{
  "_format": "hh-sol-artifact-1",
  "contractName": "SkyLaunchFundRaising",
  "sourceName": "contracts/SkyLaunchFundRaising.sol",
  "abi": [
    {
      "anonymous": false,
      "inputs": [
        {
          "indexed": true,
          "internalType": "address",
          "name": "guildBank",
          "type": "address"
        }
      ],
      "name": "ContractDeployed",
      "type": "event"
    },
    {
      "anonymous": false,
      "inputs": [
        {
          "indexed": true,
          "internalType": "uint256",
          "name": "pid",
          "type": "uint256"
        },
        {
          "indexed": true,
          "internalType": "address",
          "name": "recipient",
          "type": "address"
        },
        {
          "indexed": false,
          "internalType": "uint256",
          "name": "amount",
          "type": "uint256"
        }
      ],
      "name": "FundRaisingClaimed",
      "type": "event"
    },
    {
      "anonymous": false,
      "inputs": [
        {
          "indexed": true,
          "internalType": "uint256",
          "name": "pid",
          "type": "uint256"
        }
      ],
      "name": "PoolAdded",
      "type": "event"
    },
    {
      "anonymous": false,
      "inputs": [
        {
          "indexed": true,
          "internalType": "address",
          "name": "user",
          "type": "address"
        },
        {
          "indexed": true,
          "internalType": "uint256",
          "name": "pid",
          "type": "uint256"
        },
        {
          "indexed": false,
          "internalType": "uint256",
          "name": "amount",
          "type": "uint256"
        }
      ],
      "name": "RewardClaimed",
      "type": "event"
    },
    {
      "anonymous": false,
      "inputs": [
        {
          "indexed": true,
          "internalType": "uint256",
          "name": "pid",
          "type": "uint256"
        },
        {
          "indexed": false,
          "internalType": "uint256",
          "name": "amount",
          "type": "uint256"
        },
        {
          "indexed": false,
          "internalType": "uint256",
          "name": "rewardStartTime",
          "type": "uint256"
        },
        {
          "indexed": false,
          "internalType": "uint256",
          "name": "rewardCliffEndTime",
          "type": "uint256"
        },
        {
          "indexed": false,
          "internalType": "uint256",
          "name": "rewardEndTime",
          "type": "uint256"
        }
      ],
      "name": "RewardsSetUp",
      "type": "event"
    },
    {
      "anonymous": false,
      "inputs": [
        {
          "indexed": true,
          "internalType": "bytes32",
          "name": "role",
          "type": "bytes32"
        },
        {
          "indexed": true,
          "internalType": "bytes32",
          "name": "previousAdminRole",
          "type": "bytes32"
        },
        {
          "indexed": true,
          "internalType": "bytes32",
          "name": "newAdminRole",
          "type": "bytes32"
        }
      ],
      "name": "RoleAdminChanged",
      "type": "event"
    },
    {
      "anonymous": false,
      "inputs": [
        {
          "indexed": true,
          "internalType": "bytes32",
          "name": "role",
          "type": "bytes32"
        },
        {
          "indexed": true,
          "internalType": "address",
          "name": "account",
          "type": "address"
        },
        {
          "indexed": true,
          "internalType": "address",
          "name": "sender",
          "type": "address"
        }
      ],
      "name": "RoleGranted",
      "type": "event"
    },
    {
      "anonymous": false,
      "inputs": [
        {
          "indexed": true,
          "internalType": "bytes32",
          "name": "role",
          "type": "bytes32"
        },
        {
          "indexed": true,
          "internalType": "address",
          "name": "account",
          "type": "address"
        },
        {
          "indexed": true,
          "internalType": "address",
          "name": "sender",
          "type": "address"
        }
      ],
      "name": "RoleRevoked",
      "type": "event"
    },
    {
      "anonymous": false,
      "inputs": [
        {
          "indexed": true,
          "internalType": "address",
          "name": "user",
          "type": "address"
        },
        {
          "indexed": true,
          "internalType": "uint256",
          "name": "pid",
          "type": "uint256"
        }
      ],
      "name": "Subscribe",
      "type": "event"
    },
    {
      "anonymous": false,
      "inputs": [
        {
          "indexed": true,
          "internalType": "address",
          "name": "user",
          "type": "address"
        },
        {
          "indexed": true,
          "internalType": "uint256",
          "name": "pid",
          "type": "uint256"
        },
        {
          "indexed": false,
          "internalType": "uint256",
          "name": "amount",
          "type": "uint256"
        }
      ],
      "name": "SubscribeWithUtilityNFT",
      "type": "event"
    },
    {
      "anonymous": false,
      "inputs": [
        {
          "indexed": true,
          "internalType": "address",
          "name": "user",
          "type": "address"
        },
        {
          "indexed": true,
          "internalType": "uint256",
          "name": "pid",
          "type": "uint256"
        },
        {
          "indexed": false,
          "internalType": "uint256",
          "name": "amount",
          "type": "uint256"
        }
      ],
      "name": "SubscriptionFunded",
      "type": "event"
    },
    {
      "inputs": [],
      "name": "ADMIN",
      "outputs": [
        {
          "internalType": "bytes32",
          "name": "",
          "type": "bytes32"
        }
      ],
      "stateMutability": "view",
      "type": "function"
    },
    {
      "inputs": [],
      "name": "DEFAULT_ADMIN_ROLE",
      "outputs": [
        {
          "internalType": "bytes32",
          "name": "",
          "type": "bytes32"
        }
      ],
      "stateMutability": "view",
      "type": "function"
    },
    {
      "inputs": [],
      "name": "KYC_SETTER",
      "outputs": [
        {
          "internalType": "bytes32",
          "name": "",
          "type": "bytes32"
        }
      ],
      "stateMutability": "view",
      "type": "function"
    },
    {
      "inputs": [],
      "name": "TOTAL_TOKEN_ALLOCATION_POINTS",
      "outputs": [
        {
          "internalType": "uint256",
          "name": "",
          "type": "uint256"
        }
      ],
      "stateMutability": "view",
      "type": "function"
    },
    {
      "inputs": [
        {
          "internalType": "contract IERC20Upgradeable",
          "name": "_rewardToken",
          "type": "address"
        },
        {
          "internalType": "contract IERC20Upgradeable",
          "name": "_fundRaisingToken",
          "type": "address"
        },
        {
          "internalType": "uint256",
          "name": "_subscriptionStartTimestamp",
          "type": "uint256"
        },
        {
          "internalType": "uint256",
          "name": "_subscriptionEndTimestamp",
          "type": "uint256"
        },
        {
          "internalType": "uint256",
          "name": "_fundingEndTimestamp",
          "type": "uint256"
        },
        {
          "internalType": "uint256",
          "name": "_targetRaise",
          "type": "uint256"
        },
        {
          "internalType": "uint256",
          "name": "_price",
          "type": "uint256"
        },
        {
          "internalType": "uint256",
          "name": "_maxStakingAmountPerUser",
          "type": "uint256"
        },
        {
          "internalType": "uint256",
          "name": "_maxUtilityNFTsValue",
          "type": "uint256"
        }
      ],
      "name": "add",
      "outputs": [],
      "stateMutability": "nonpayable",
      "type": "function"
    },
    {
      "inputs": [
        {
          "internalType": "address",
          "name": "_stakingRewards",
          "type": "address"
        }
      ],
      "name": "addStakingRewards",
      "outputs": [],
      "stateMutability": "nonpayable",
      "type": "function"
    },
    {
      "inputs": [
        {
          "internalType": "uint256",
          "name": "_pid",
          "type": "uint256"
        },
        {
          "internalType": "address",
          "name": "_account",
          "type": "address"
        }
      ],
      "name": "claimFundRaising",
      "outputs": [],
      "stateMutability": "nonpayable",
      "type": "function"
    },
    {
      "inputs": [
        {
          "internalType": "uint256",
          "name": "_pid",
          "type": "uint256"
        }
      ],
      "name": "claimReward",
      "outputs": [],
      "stateMutability": "nonpayable",
      "type": "function"
    },
    {
      "inputs": [
        {
          "internalType": "uint256",
          "name": "_pid",
          "type": "uint256"
        },
        {
          "internalType": "uint256",
          "name": "_amount",
          "type": "uint256"
        }
      ],
      "name": "fundSubscription",
      "outputs": [],
      "stateMutability": "payable",
      "type": "function"
    },
    {
      "inputs": [
        {
          "internalType": "uint256",
          "name": "_pid",
          "type": "uint256"
        }
      ],
      "name": "getMaximumAllocation",
      "outputs": [
        {
          "internalType": "uint256",
          "name": "",
          "type": "uint256"
        }
      ],
      "stateMutability": "view",
      "type": "function"
    },
    {
      "inputs": [
        {
          "internalType": "address",
          "name": "_account",
          "type": "address"
        }
      ],
      "name": "getMultiplier",
      "outputs": [
        {
          "internalType": "uint256",
          "name": "",
          "type": "uint256"
        }
      ],
      "stateMutability": "view",
      "type": "function"
    },
    {
      "inputs": [
        {
          "internalType": "uint256",
          "name": "_pid",
          "type": "uint256"
        }
      ],
      "name": "getRequiredRewardAmountForAmountRaised",
      "outputs": [
        {
          "internalType": "uint256",
          "name": "rewardAmount",
          "type": "uint256"
        }
      ],
      "stateMutability": "view",
      "type": "function"
    },
    {
      "inputs": [
        {
          "internalType": "bytes32",
          "name": "role",
          "type": "bytes32"
        }
      ],
      "name": "getRoleAdmin",
      "outputs": [
        {
          "internalType": "bytes32",
          "name": "",
          "type": "bytes32"
        }
      ],
      "stateMutability": "view",
      "type": "function"
    },
    {
      "inputs": [
        {
          "internalType": "uint256",
          "name": "_pid",
          "type": "uint256"
        }
      ],
      "name": "getTotalRaisedVsTarget",
      "outputs": [
        {
          "internalType": "uint256",
          "name": "raised",
          "type": "uint256"
        },
        {
          "internalType": "uint256",
          "name": "target",
          "type": "uint256"
        }
      ],
      "stateMutability": "view",
      "type": "function"
    },
    {
      "inputs": [
        {
          "internalType": "uint256",
          "name": "_pid",
          "type": "uint256"
        },
        {
          "internalType": "address",
          "name": "_user",
          "type": "address"
        }
      ],
      "name": "getTotalReward",
      "outputs": [
        {
          "internalType": "uint256",
          "name": "",
          "type": "uint256"
        }
      ],
      "stateMutability": "view",
      "type": "function"
    },
    {
      "inputs": [
        {
          "internalType": "bytes32",
          "name": "role",
          "type": "bytes32"
        },
        {
          "internalType": "address",
          "name": "account",
          "type": "address"
        }
      ],
      "name": "grantRole",
      "outputs": [],
      "stateMutability": "nonpayable",
      "type": "function"
    },
    {
      "inputs": [
        {
          "internalType": "bytes32",
          "name": "role",
          "type": "bytes32"
        },
        {
          "internalType": "address",
          "name": "account",
          "type": "address"
        }
      ],
      "name": "hasRole",
      "outputs": [
        {
          "internalType": "bool",
          "name": "",
          "type": "bool"
        }
      ],
      "stateMutability": "view",
      "type": "function"
    },
    {
      "inputs": [
        {
          "internalType": "uint256[]",
          "name": "scores",
          "type": "uint256[]"
        },
        {
          "internalType": "uint256[]",
          "name": "mps",
          "type": "uint256[]"
        },
        {
          "internalType": "address",
          "name": "_utilityNFT",
          "type": "address"
        }
      ],
      "name": "initialize",
      "outputs": [],
      "stateMutability": "nonpayable",
      "type": "function"
    },
    {
      "inputs": [],
      "name": "merkleRootKYC",
      "outputs": [
        {
          "internalType": "bytes32",
          "name": "",
          "type": "bytes32"
        }
      ],
      "stateMutability": "view",
      "type": "function"
    },
    {
      "inputs": [
        {
          "internalType": "uint256",
          "name": "",
          "type": "uint256"
        }
      ],
      "name": "multipliers",
      "outputs": [
        {
          "internalType": "uint256",
          "name": "scoreFrom",
          "type": "uint256"
        },
        {
          "internalType": "uint256",
          "name": "multiplier",
          "type": "uint256"
        }
      ],
      "stateMutability": "view",
      "type": "function"
    },
    {
      "inputs": [],
      "name": "numberOfPools",
      "outputs": [
        {
          "internalType": "uint256",
          "name": "",
          "type": "uint256"
        }
      ],
      "stateMutability": "view",
      "type": "function"
    },
    {
      "inputs": [
        {
          "internalType": "uint256",
          "name": "_pid",
          "type": "uint256"
        },
        {
          "internalType": "address",
          "name": "_user",
          "type": "address"
        }
      ],
      "name": "pendingRewards",
      "outputs": [
        {
          "internalType": "uint256",
          "name": "",
          "type": "uint256"
        }
      ],
      "stateMutability": "view",
      "type": "function"
    },
    {
      "inputs": [
        {
          "internalType": "uint256",
          "name": "",
          "type": "uint256"
        }
      ],
      "name": "poolIdToFundsClaimed",
      "outputs": [
        {
          "internalType": "bool",
          "name": "",
          "type": "bool"
        }
      ],
      "stateMutability": "view",
      "type": "function"
    },
    {
      "inputs": [
        {
          "internalType": "uint256",
          "name": "",
          "type": "uint256"
        }
      ],
      "name": "poolIdToTotalFundedPercentageOfTargetRaise",
      "outputs": [
        {
          "internalType": "uint256",
          "name": "",
          "type": "uint256"
        }
      ],
      "stateMutability": "view",
      "type": "function"
    },
    {
      "inputs": [
        {
          "internalType": "uint256",
          "name": "",
          "type": "uint256"
        }
      ],
      "name": "poolIdToTotalGuaranteedAllocationsRaised",
      "outputs": [
        {
          "internalType": "uint256",
          "name": "",
          "type": "uint256"
        }
      ],
      "stateMutability": "view",
      "type": "function"
    },
    {
      "inputs": [
        {
          "internalType": "uint256",
          "name": "",
          "type": "uint256"
        }
      ],
      "name": "poolIdToTotalGuaranteedAllocationsSubscribed",
      "outputs": [
        {
          "internalType": "uint256",
          "name": "",
          "type": "uint256"
        }
      ],
      "stateMutability": "view",
      "type": "function"
    },
    {
      "inputs": [
        {
          "internalType": "uint256",
          "name": "",
          "type": "uint256"
        }
      ],
      "name": "poolIdToTotalMultipliers",
      "outputs": [
        {
          "internalType": "uint256",
          "name": "",
          "type": "uint256"
        }
      ],
      "stateMutability": "view",
      "type": "function"
    },
    {
      "inputs": [
        {
          "internalType": "uint256",
          "name": "",
          "type": "uint256"
        }
      ],
      "name": "poolIdToTotalRaised",
      "outputs": [
        {
          "internalType": "uint256",
          "name": "",
          "type": "uint256"
        }
      ],
      "stateMutability": "view",
      "type": "function"
    },
    {
      "inputs": [
        {
          "internalType": "uint256",
          "name": "",
          "type": "uint256"
        }
      ],
      "name": "poolInfo",
      "outputs": [
        {
          "internalType": "contract IERC20Upgradeable",
          "name": "rewardToken",
          "type": "address"
        },
        {
          "internalType": "contract IERC20Upgradeable",
          "name": "fundRaisingToken",
          "type": "address"
        },
        {
          "internalType": "uint256",
          "name": "subscriptionStartTimestamp",
          "type": "uint256"
        },
        {
          "internalType": "uint256",
          "name": "subscriptionEndTimestamp",
          "type": "uint256"
        },
        {
          "internalType": "uint256",
          "name": "fundingEndTimestamp",
          "type": "uint256"
        },
        {
          "internalType": "uint256",
          "name": "targetRaise",
          "type": "uint256"
        },
        {
          "internalType": "uint256",
          "name": "price",
          "type": "uint256"
        },
        {
          "internalType": "uint256",
          "name": "maxStakingAmountPerUser",
          "type": "uint256"
        },
        {
          "internalType": "uint256",
          "name": "maxUtilityNFTsValue",
          "type": "uint256"
        },
        {
          "internalType": "uint256",
          "name": "rewardsStartTime",
          "type": "uint256"
        },
        {
          "internalType": "uint256",
          "name": "rewardsCliffEndTime",
          "type": "uint256"
        },
        {
          "internalType": "uint256",
          "name": "rewardsEndTime",
          "type": "uint256"
        }
      ],
      "stateMutability": "view",
      "type": "function"
    },
    {
      "inputs": [
        {
          "internalType": "address",
          "name": "_stakingRewards",
          "type": "address"
        }
      ],
      "name": "removeStakingRewards",
      "outputs": [],
      "stateMutability": "nonpayable",
      "type": "function"
    },
    {
      "inputs": [
        {
          "internalType": "bytes32",
          "name": "role",
          "type": "bytes32"
        },
        {
          "internalType": "address",
          "name": "account",
          "type": "address"
        }
      ],
      "name": "renounceRole",
      "outputs": [],
      "stateMutability": "nonpayable",
      "type": "function"
    },
    {
      "inputs": [
        {
          "internalType": "bytes32",
          "name": "role",
          "type": "bytes32"
        },
        {
          "internalType": "address",
          "name": "account",
          "type": "address"
        }
      ],
      "name": "revokeRole",
      "outputs": [],
      "stateMutability": "nonpayable",
      "type": "function"
    },
    {
      "inputs": [],
      "name": "rewardGuildBank",
      "outputs": [
        {
          "internalType": "contract FundRaisingGuild",
          "name": "",
          "type": "address"
        }
      ],
      "stateMutability": "view",
      "type": "function"
    },
    {
      "inputs": [
        {
          "internalType": "uint256",
          "name": "_pid",
          "type": "uint256"
        },
        {
          "internalType": "uint256",
          "name": "_subscriptionStartTimestamp",
          "type": "uint256"
        },
        {
          "internalType": "uint256",
          "name": "_subscriptionEndTimestamp",
          "type": "uint256"
        },
        {
          "internalType": "uint256",
          "name": "_fundingEndTimestamp",
          "type": "uint256"
        }
      ],
      "name": "setFundingTimestamp",
      "outputs": [],
      "stateMutability": "nonpayable",
      "type": "function"
    },
    {
      "inputs": [
        {
          "internalType": "bytes32",
          "name": "_merkleRootKYC",
          "type": "bytes32"
        }
      ],
      "name": "setKYCMerkleRoot",
      "outputs": [],
      "stateMutability": "nonpayable",
      "type": "function"
    },
    {
      "inputs": [
        {
          "internalType": "uint256",
          "name": "_pid",
          "type": "uint256"
        },
        {
          "internalType": "uint256",
          "name": "_rewardStartTimestamp",
          "type": "uint256"
        },
        {
          "internalType": "uint256",
          "name": "_rewardCliffEndTimestamp",
          "type": "uint256"
        },
        {
          "internalType": "uint256",
          "name": "_rewardEndTimestamp",
          "type": "uint256"
        }
      ],
      "name": "setVestingTimestamp",
      "outputs": [],
      "stateMutability": "nonpayable",
      "type": "function"
    },
    {
      "inputs": [
        {
          "internalType": "uint256",
          "name": "_pid",
          "type": "uint256"
        },
        {
          "internalType": "uint256",
          "name": "_rewardAmount",
          "type": "uint256"
        },
        {
          "internalType": "uint256",
          "name": "_rewardStartTimestamp",
          "type": "uint256"
        },
        {
          "internalType": "uint256",
          "name": "_rewardCliffEndTimestamp",
          "type": "uint256"
        },
        {
          "internalType": "uint256",
          "name": "_rewardEndTimestamp",
          "type": "uint256"
        }
      ],
      "name": "setupVestingRewards",
      "outputs": [],
      "stateMutability": "nonpayable",
      "type": "function"
    },
    {
      "inputs": [],
      "name": "stakingFactory",
      "outputs": [
        {
          "internalType": "contract IERC20Upgradeable",
          "name": "",
          "type": "address"
        }
      ],
      "stateMutability": "view",
      "type": "function"
    },
    {
      "inputs": [
        {
          "internalType": "uint256",
          "name": "",
          "type": "uint256"
        }
      ],
      "name": "stakingRewards",
      "outputs": [
        {
          "internalType": "address",
          "name": "",
          "type": "address"
        }
      ],
      "stateMutability": "view",
      "type": "function"
    },
    {
      "inputs": [
        {
          "internalType": "uint256",
          "name": "_pid",
          "type": "uint256"
        },
        {
          "internalType": "uint256",
          "name": "_index",
          "type": "uint256"
        },
        {
          "internalType": "bytes32[]",
          "name": "_merkleProof",
          "type": "bytes32[]"
        }
      ],
      "name": "subscribe",
      "outputs": [],
      "stateMutability": "nonpayable",
      "type": "function"
    },
    {
      "inputs": [
        {
          "internalType": "uint256",
          "name": "_pid",
          "type": "uint256"
        },
        {
          "internalType": "uint256",
          "name": "utilityNFTTokenId",
          "type": "uint256"
        },
        {
          "internalType": "uint256",
          "name": "_index",
          "type": "uint256"
        },
        {
          "internalType": "bytes32[]",
          "name": "_merkleProof",
          "type": "bytes32[]"
        }
      ],
      "name": "subscribeWithUtilityNFT",
      "outputs": [],
      "stateMutability": "nonpayable",
      "type": "function"
    },
    {
      "inputs": [
        {
          "internalType": "bytes4",
          "name": "interfaceId",
          "type": "bytes4"
        }
      ],
      "name": "supportsInterface",
      "outputs": [
        {
          "internalType": "bool",
          "name": "",
          "type": "bool"
        }
      ],
      "stateMutability": "view",
      "type": "function"
    },
    {
      "inputs": [
        {
          "internalType": "uint256",
          "name": "",
          "type": "uint256"
        },
        {
          "internalType": "address",
          "name": "",
          "type": "address"
        }
      ],
      "name": "userInfo",
      "outputs": [
        {
          "internalType": "uint256",
          "name": "amount",
          "type": "uint256"
        },
        {
          "internalType": "uint256",
          "name": "fundingAmount",
          "type": "uint256"
        },
        {
          "internalType": "uint256",
          "name": "multiplier",
          "type": "uint256"
        },
        {
          "internalType": "uint256",
          "name": "nftValue",
          "type": "uint256"
        },
        {
          "internalType": "uint256",
          "name": "utilityNFTTokenId",
          "type": "uint256"
        },
        {
          "internalType": "uint256",
          "name": "collectedRewards",
          "type": "uint256"
        }
      ],
      "stateMutability": "view",
      "type": "function"
    }
  ],
  "bytecode": "0x608060405234801561001057600080fd5b506148e7806100206000396000f3fe60806040526004361061025c5760003560e01c80638387647411610144578063c669cb55116100b6578063d5a1e66a1161007a578063d5a1e66a14610852578063d9d3addb14610872578063de9b2e0214610892578063e8736f04146108b2578063faf7444a146108d2578063fece352c146108f257600080fd5b8063c669cb55146107bc578063ce99ad42146107d2578063d18df53c146107f2578063d2b1ad1114610812578063d547741f1461083257600080fd5b8063a9d637e111610108578063a9d637e1146106df578063ac490c08146106ff578063ac7fc2631461072c578063ae169a501461074c578063b8bf1ec41461076c578063b9641a211461078c57600080fd5b806383876474146105c057806391d14854146105ed57806393f1a40b1461060d57806398e8519014610695578063a217fddf146106ca57600080fd5b80632a0acc6a116101dd57806339242127116101a157806339242127146105015780634f669ca31461052e578063597a8d6f1461054b5780635c1d31191461056b5780636f682a531461058b57806371cbb027146105a057600080fd5b80632a0acc6a146104525780632c8a239a146104745780632f2ff15d1461049457806331e45c62146104b457806336568abe146104e157600080fd5b80632182742311610224578063218274231461038a578063248a9ca3146103aa57806324c20850146103da578063260d061b146103fa578063291347681461041a57600080fd5b806301ffc9a71461026157806307ac1ea814610296578063115e3c0d146102d1578063116e5691146102e65780631526fe2714610306575b600080fd5b34801561026d57600080fd5b5061028161027c366004613bd6565b610926565b60405190151581526020015b60405180910390f35b3480156102a257600080fd5b506102c36102b1366004613b8f565b60ce6020526000908152604090205481565b60405190815260200161028d565b6102e46102df366004613c8a565b61095d565b005b3480156102f257600080fd5b506102e4610301366004613ac2565b610e13565b34801561031257600080fd5b50610326610321366004613b8f565b610e99565b604080516001600160a01b039d8e1681529c909b1660208d0152998b019890985260608a0196909652608089019490945260a088019290925260c087015260e08601526101008501526101208401526101408301526101608201526101800161028d565b34801561039657600080fd5b506102e46103a5366004613b8f565b610f16565b3480156103b657600080fd5b506102c36103c5366004613b8f565b60009081526065602052604090206001015490565b3480156103e657600080fd5b506102c36103f5366004613ba7565b610f61565b34801561040657600080fd5b506102e4610415366004613d5b565b6110ea565b34801561042657600080fd5b5060ca5461043a906001600160a01b031681565b6040516001600160a01b03909116815260200161028d565b34801561045e57600080fd5b506102c360008051602061489283398151915281565b34801561048057600080fd5b506102c361048f366004613b8f565b6111ca565b3480156104a057600080fd5b506102e46104af366004613ba7565b6112bb565b3480156104c057600080fd5b506102c36104cf366004613b8f565b60d16020526000908152604090205481565b3480156104ed57600080fd5b506102e46104fc366004613ba7565b6112e6565b34801561050d57600080fd5b506102c361051c366004613b8f565b60d06020526000908152604090205481565b34801561053a57600080fd5b506102c368056bc75e2d6310000081565b34801561055757600080fd5b5061043a610566366004613b8f565b611364565b34801561057757600080fd5b506102c3610586366004613b8f565b61138e565b34801561059757600080fd5b5060cd546102c3565b3480156105ac57600080fd5b506102e46105bb366004613cab565b611541565b3480156105cc57600080fd5b506102c36105db366004613b8f565b60d26020526000908152604090205481565b3480156105f957600080fd5b50610281610608366004613ba7565b611800565b34801561061957600080fd5b50610668610628366004613ba7565b60d4602090815260009283526040808420909152908252902080546001820154600283015460038401546004850154600590950154939492939192909186565b604080519687526020870195909552938501929092526060840152608083015260a082015260c00161028d565b3480156106a157600080fd5b506106b56106b0366004613b8f565b61182b565b6040805192835260208301919091520161028d565b3480156106d657600080fd5b506102c3600081565b3480156106eb57600080fd5b506102c36106fa366004613ac2565b61187b565b34801561070b57600080fd5b506102c361071a366004613b8f565b60cf6020526000908152604090205481565b34801561073857600080fd5b506106b5610747366004613b8f565b6119f0565b34801561075857600080fd5b506102e4610767366004613b8f565b611a1e565b34801561077857600080fd5b506102e4610787366004613cfc565b611b99565b34801561079857600080fd5b506102816107a7366004613b8f565b60d36020526000908152604090205460ff1681565b3480156107c857600080fd5b506102c360d55481565b3480156107de57600080fd5b5060cc5461043a906001600160a01b031681565b3480156107fe57600080fd5b506102c361080d366004613ba7565b612112565b34801561081e57600080fd5b506102e461082d366004613afa565b612303565b34801561083e57600080fd5b506102e461084d366004613ba7565b61261d565b34801561085e57600080fd5b506102e461086d366004613ac2565b612643565b34801561087e57600080fd5b506102e461088d366004613d5b565b6127b4565b34801561089e57600080fd5b506102e46108ad366004613d8c565b6128de565b3480156108be57600080fd5b506102e46108cd366004613ba7565b612b4a565b3480156108de57600080fd5b506102e46108ed366004613bfe565b612e33565b3480156108fe57600080fd5b506102c37f3009b3a9817cb2d51fa22333f08fff79d5094d2f02903952b399d773bdd22f5981565b60006001600160e01b03198216637965db0b60e01b148061095757506301ffc9a760e01b6001600160e01b03198316145b92915050565b600260975414156109895760405162461bcd60e51b815260040161098090614023565b60405180910390fd5b600260975560cd5482106109af5760405162461bcd60e51b815260040161098090613f8d565b600060cd83815481106109d257634e487b7160e01b600052603260045260246000fd5b6000918252602080832086845260d48252604080852033865290925292206002810154600c9092029092019250151580610a10575060008160030154115b610a4d5760405162461bcd60e51b815260206004820152600e60248201526d1b9bdd081cdd589cd8dc9a58995960921b6044820152606401610980565b81600301544211610aab5760405162461bcd60e51b815260206004820152602260248201527f537562736372697074696f6e206973207374696c6c2074616b696e6720706c61604482015261636560f01b6064820152608401610980565b8160040154421115610b155760405162461bcd60e51b815260206004820152602d60248201527f446561646c696e65206861732070617373656420746f2066756e6420796f757260448201526c1039bab139b1b934b83a34b7b760991b6064820152608401610980565b6000610b208561138e565b905060008111610b7e5760405162461bcd60e51b8152602060048201526024808201527f6d757374206861766520706f73697469766520616c6c6f636174696f6e20616d6044820152631bdd5b9d60e21b6064820152608401610980565b60018301546000906001600160a01b0316610c78576001830154610ba2903461312e565b905081811115610bf45760405162461bcd60e51b815260206004820152601760248201527f546f6f206d7563682076616c75652070726f76696465640000000000000000006044820152606401610980565b843414610c375760405162461bcd60e51b8152602060048201526011602482015270496e636f727265637420616d6f756e747360781b6044820152606401610980565b600086815260ce6020526040902054610c50903461312e565b600087815260ce60205260409020556001830154610c6e903461312e565b6001840155610dcf565b6001830154610c87908661312e565b905081811115610cd95760405162461bcd60e51b815260206004820152601860248201527f546f6f206d616e7920746f6b656e732070726f766964656400000000000000006044820152606401610980565b6001840154610cf3906001600160a01b031633308861313a565b6001830154610d02908661312e565b6001840155600086815260ce6020526040902054610d20908661312e565b600087815260ce6020526040902055600383015415610dcf57600086815260cf6020526040902054610d52908661312e565b600087815260cf6020526040908190209190915560c95460048581015492516370a23d9b60e01b815290810192909252602482018790526001600160a01b0316906370a23d9b90604401600060405180830381600087803b158015610db657600080fd5b505af1158015610dca573d6000803e3d6000fd5b505050505b604051858152869033907fb3abbf202f180f33d8c665604028b8c2bc6db0b430eee642e6a87c332ba9df3a9060200160405180910390a35050600160975550505050565b610e2b60008051602061489283398151915233611800565b610e475760405162461bcd60e51b815260040161098090613e8a565b60cb80546001810182556000919091527fa7ce836d032b2bf62b7e2097a8e0a6d8aeb35405ad15271e96d3b0188a1d06fb0180546001600160a01b0319166001600160a01b0392909216919091179055565b60cd8181548110610ea957600080fd5b60009182526020909120600c9091020180546001820154600283015460038401546004850154600586015460068701546007880154600889015460098a0154600a8b0154600b909b01546001600160a01b039a8b169c50999098169996989597949693959294919390928c565b610f407f3009b3a9817cb2d51fa22333f08fff79d5094d2f02903952b399d773bdd22f5933611800565b610f5c5760405162461bcd60e51b815260040161098090613e8a565b60d555565b60cd546000908310610f855760405162461bcd60e51b815260040161098090613fb2565b600083815260d4602090815260408083206001600160a01b0386168452825291829020825160c08101845281548152600182015492810183905260028201549381019390935260038101546060840152600481015460808401526005015460a0830152610ff6576000915050610957565b600060cd858154811061101957634e487b7160e01b600052603260045260246000fd5b60009182526020918290206040805161018081018252600c90930290910180546001600160a01b039081168452600182015416838501526002810154918301919091526003810154606083015260048101546080830152600581015460a0830152600681015460c08301819052600782015460e084015260088201546101008401526009820154610120840152600a820154610140840152600b90910154610160830152918401519092506110e191670de0b6b3a7640000916110db91613194565b906131a0565b95945050505050565b61110260008051602061489283398151915233611800565b61111e5760405162461bcd60e51b815260040161098090613e8a565b60cd54841061113f5760405162461bcd60e51b815260040161098090613f8d565b81831061115e5760405162461bcd60e51b815260040161098090613eb0565b80821061117d5760405162461bcd60e51b815260040161098090613f47565b600060cd85815481106111a057634e487b7160e01b600052603260045260246000fd5b60009182526020909120600c90910201600281019490945550600383019190915560049091015550565b60008060cd83815481106111ee57634e487b7160e01b600052603260045260246000fd5b600091825260208083206040805161018081018252600c90940290910180546001600160a01b039081168552600182015416848401526002810154848301526003810154606085015260048101546080850152600581015460a0850152600681015460c08501819052600782015460e086015260088201546101008601526009820154610120860152600a820154610140860152600b9091015461016085015287855260ce909252909220549092506112b491670de0b6b3a7640000916110db91613194565b9392505050565b6000828152606560205260409020600101546112d781336131ac565b6112e18383613210565b505050565b6001600160a01b03811633146113565760405162461bcd60e51b815260206004820152602f60248201527f416363657373436f6e74726f6c3a2063616e206f6e6c792072656e6f756e636560448201526e103937b632b9903337b91039b2b63360891b6064820152608401610980565b6113608282613296565b5050565b60cb818154811061137457600080fd5b6000918252602090912001546001600160a01b0316905081565b60cd5460009082106113b25760405162461bcd60e51b815260040161098090613f8d565b600060cd83815481106113d557634e487b7160e01b600052603260045260246000fd5b600091825260208083206040805161018081018252600c90940290910180546001600160a01b03908116855260018083015490911685850152600280830154868501526003808401546060808901919091526004808601546080808b019190915260058088015460a0808d0191909152600689015460c0808e019190915260078a015460e08e015260088a01546101008e015260098a01546101208e0152600a8a01546101408e0152600b909901546101608d01528f8d5260d48b52898d20338e528b529b89902089519889018a528054895296870154998801999099529385015496860196909652908301549084018190529382015490830152909201549382019390935290925090156114ef57606001519392505050565b600084815260d1602090815260408083205460d090925282205460a0850151611523929161151d91906132fd565b90613194565b9050606482604001518261153791906140dc565b6110e191906140bc565b600260975414156115645760405162461bcd60e51b815260040161098090614023565b600260975560cd54841061158a5760405162461bcd60e51b815260040161098090613f8d565b600060cd85815481106115ad57634e487b7160e01b600052603260045260246000fd5b6000918252602080832088845260d48252604080852033865290925292206002600c909202909201908101549092504210156116265760405162461bcd60e51b81526020600482015260186024820152771cdd589cd8dc9a5c1d1a5bdb881b9bdd081cdd185c9d195960421b6044820152606401610980565b816003015442111561167a5760405162461bcd60e51b815260206004820181905260248201527f737562736372697074696f6e206e6f206c6f6e676572207065726d69747465646044820152606401610980565b600085336040516020016116aa92919091825260601b6bffffffffffffffffffffffff1916602082015260340190565b6040516020818303038152906040528051906020012090506117038585808060200260200160405190810160405280939291908181526020018383602002808284376000920191909152505060d5549150849050613309565b6117405760405162461bcd60e51b815260206004820152600e60248201526d24b73b30b634b210383937b7b31760911b6044820152606401610980565b600061174b3361187b565b9050600081116117945760405162461bcd60e51b81526020600482015260146024820152736e6f742073756666696369656e742073636f726560601b6044820152606401610980565b60028301819055600088815260d160205260409020546117b4908261312e565b600089815260d16020526040808220929092559051899133917f6d9501d4c8596b2602660e3aa7db27655be4177db6b3d3eddaefedd8c631fa719190a350506001609755505050505050565b60009182526065602090815260408084206001600160a01b0393909316845291905290205460ff1690565b600081815260ce602052604081205460cd8054839291908590811061186057634e487b7160e01b600052603260045260246000fd5b90600052602060002090600c02016005015491509150915091565b6000806000805b60cb548110156119515761193d60cb82815481106118b057634e487b7160e01b600052603260045260246000fd5b60009182526020909120015460405163b34e0c4760e01b81526001600160a01b0388811660048301529091169063b34e0c479060240160206040518083038186803b1580156118fe57600080fd5b505afa158015611912573d6000803e3d6000fd5b505050506040513d601f19601f820116820180604052508101906119369190613c72565b849061312e565b92508061194981614155565b915050611882565b5060005b60d654611964906001906140fb565b8110156119e857600060d6828154811061198e57634e487b7160e01b600052603260045260246000fd5b9060005260206000209060020201604051806040016040529081600082015481526020016001820154815250509050806000015184106119d5576020015195945050505050565b50806119e081614155565b915050611955565b509392505050565b60d68181548110611a0057600080fd5b60009182526020909120600290910201805460019091015490915082565b60026097541415611a415760405162461bcd60e51b815260040161098090614023565b6002609781905550600060cd8281548110611a6c57634e487b7160e01b600052603260045260246000fd5b90600052602060002090600c0201905080600a0154421015611ac15760405162461bcd60e51b815260206004820152600e60248201526d2737ba103830b9ba1031b634b33360911b6044820152606401610980565b600082815260d46020908152604080832033845290915290206001810154611b185760405162461bcd60e51b815260206004820152600a602482015269139bdd08199d5b99195960b21b6044820152606401610980565b6000611b248433612112565b90508015611b8e576005820154611b3b908261312e565b60058301558254611b56906001600160a01b0316338361331f565b604051818152849033907ff01da32686223933d8a18a391060918c7f11a3648639edd87ae013e2e27317439060200160405180910390a35b505060016097555050565b60026097541415611bbc5760405162461bcd60e51b815260040161098090614023565b600260975560cd548510611be25760405162461bcd60e51b815260040161098090613f8d565b600060cd8681548110611c0557634e487b7160e01b600052603260045260246000fd5b6000918252602080832089845260d48252604080852033865290925292206003810154600c909202909201925015611c8b5760405162461bcd60e51b815260206004820152602360248201527f616c726561647920737562736372696265642077697468207574696c697479206044820152621b999d60ea1b6064820152608401610980565b60018201546001600160a01b0316611d165760405162461bcd60e51b815260206004820152604260248201527f5574696c697479204e4654732063616e6e6f74206265207573656420666f722060448201527f6e61746976652063727970746f63757272656e63792066756e642072616973696064820152616e6760f01b608482015260a401610980565b6008820154600088815260d0602052604090205410611d855760405162461bcd60e51b815260206004820152602560248201527f47756172616e7465656420616c6c6f636174696f6e73206f76657273756273636044820152641c9a58995960da1b6064820152608401610980565b8160020154421015611dd45760405162461bcd60e51b81526020600482015260186024820152771cdd589cd8dc9a5c1d1a5bdb881b9bdd081cdd185c9d195960421b6044820152606401610980565b8160030154421115611e285760405162461bcd60e51b815260206004820181905260248201527f737562736372697074696f6e206e6f206c6f6e676572207065726d69747465646044820152606401610980565b60008533604051602001611e5892919091825260601b6bffffffffffffffffffffffff1916602082015260340190565b604051602081830303815290604052805190602001209050611eb18585808060200260200160405190810160405280939291908181526020018383602002808284376000920191909152505060d5549150849050613309565b611eee5760405162461bcd60e51b815260206004820152600e60248201526d24b73b30b634b210383937b7b31760911b6044820152606401610980565b60c9546040516331a9108f60e11b81526004810189905233916001600160a01b031690636352211e9060240160206040518083038186803b158015611f3257600080fd5b505afa158015611f46573d6000803e3d6000fd5b505050506040513d601f19601f82011682018060405250810190611f6a9190613ade565b6001600160a01b031614611fc05760405162461bcd60e51b815260206004820181905260248201527f54686973207574696c697479204e4654206964206973206e6f7420796f7572736044820152606401610980565b60c95460405163bee5493b60e01b8152600481018990526000916001600160a01b03169063bee5493b9060240160206040518083038186803b15801561200557600080fd5b505afa158015612019573d6000803e3d6000fd5b505050506040513d601f19601f8201168201806040525081019061203d9190613c72565b60008a815260d060205260408120546008870154929350909161205f916132fd565b9050846007015482116120725781612078565b84600701545b6003850181905581101561208e57600384018190555b60048401899055600384015460008b815260d060205260409020546120b29161312e565b60008b815260d0602090815260409182902092909255600386015490519081528b9133917f81e940651c9155c6e9e01df016cafae56e85bf92c3250d703a6a3dc79911dfb4910160405180910390a3505060016097555050505050505050565b60cd5460009083106121365760405162461bcd60e51b815260040161098090613fb2565b600083815260d4602090815260408083206001600160a01b0386168452825291829020825160c08101845281548152600182015492810183905260028201549381019390935260038101546060840152600481015460808401526005015460a08301526121a7576000915050610957565b600060cd85815481106121ca57634e487b7160e01b600052603260045260246000fd5b60009182526020918290206040805161018081018252600c90930290910180546001600160a01b039081168452600182015416938301939093526002830154908201526003820154606082015260048201546080820152600582015460a0820152600682015460c0820152600782015460e0820152600882015461010082015260098201546101208201819052600a830154610140830152600b90920154610160820152915042101561228257600092505050610957565b60006122a18261012001518361016001516132fd90919063ffffffff16565b905060006122af8787610f61565b905060006122bd8284613194565b905060006122dd826110db876101200151426132fd90919063ffffffff16565b90506122f68660a00151826132fd90919063ffffffff16565b9998505050505050505050565b600054610100900460ff1661231e5760005460ff1615612322565b303b155b6123855760405162461bcd60e51b815260206004820152602e60248201527f496e697469616c697a61626c653a20636f6e747261637420697320616c72656160448201526d191e481a5b9a5d1a585b1a5e995960921b6064820152608401610980565b600054610100900460ff161580156123a7576000805461ffff19166101011790555b82518451146123f05760405162461bcd60e51b8152602060048201526015602482015274696e636f7272656374206d756c7469706c6965727360581b6044820152606401610980565b6123f861348e565b6124006134bf565b61240b6000336134e6565b612423600080516020614892833981519152336134e6565b60405161242f906139cd565b604051809103906000f08015801561244b573d6000803e3d6000fd5b5060cc80546001600160a01b0319166001600160a01b0392909216918217905560405163189acdbd60e31b815230600482015263c4d66de890602401600060405180830381600087803b1580156124a157600080fd5b505af11580156124b5573d6000803e3d6000fd5b505060c980546001600160a01b0319166001600160a01b03861617905550600090505b84518110156125cc57604080518082019091526000808252602082015285828151811061251557634e487b7160e01b600052603260045260246000fd5b602002602001015181600001818152505084828151811061254657634e487b7160e01b600052603260045260246000fd5b60209081029190910181015190820190815260d6805460018101825560009190915291517fe767803f8ecf1dee6bb0345811f7312cda556058b19db6389ad9ae3568643ddd600290930292830155517fe767803f8ecf1dee6bb0345811f7312cda556058b19db6389ad9ae3568643dde90910155806125c481614155565b9150506124d8565b5060cc546040516001600160a01b03909116907f8ffcdc15a283d706d38281f500270d8b5a656918f555de0913d7455e3e6bc1bf90600090a28015612617576000805461ff00191690555b50505050565b60008281526065602052604090206001015461263981336131ac565b6112e18383613296565b61265b60008051602061489283398151915233611800565b6126775760405162461bcd60e51b815260040161098090613e8a565b60005b60cb5481101561136057816001600160a01b031660cb82815481106126af57634e487b7160e01b600052603260045260246000fd5b6000918252602090912001546001600160a01b031614156127a25760cb80546126da906001906140fb565b815481106126f857634e487b7160e01b600052603260045260246000fd5b60009182526020909120015460cb80546001600160a01b03909216918390811061273257634e487b7160e01b600052603260045260246000fd5b9060005260206000200160006101000a8154816001600160a01b0302191690836001600160a01b0316021790555060cb80548061277f57634e487b7160e01b600052603160045260246000fd5b600082815260209020810160001990810180546001600160a01b03191690550190555b806127ac81614155565b91505061267a565b6127cc60008051602061489283398151915233611800565b6127e85760405162461bcd60e51b815260040161098090613e8a565b60cd5484106128095760405162461bcd60e51b815260040161098090613f8d565b4283116128525760405162461bcd60e51b81526020600482015260176024820152761cdd185c9d08189b1bd8dac81a5b881d1a19481c185cdd604a1b6044820152606401610980565b828210156128725760405162461bcd60e51b81526004016109809061405a565b8181116128915760405162461bcd60e51b815260040161098090613f06565b600060cd85815481106128b457634e487b7160e01b600052603260045260246000fd5b60009182526020909120600c90910201600981019490945550600a830191909155600b9091015550565b600260975414156129015760405162461bcd60e51b815260040161098090614023565b600260975561291e60008051602061489283398151915233611800565b61293a5760405162461bcd60e51b815260040161098090613e8a565b60cd54851061295b5760405162461bcd60e51b815260040161098090613f8d565b4283116129a45760405162461bcd60e51b81526020600482015260176024820152761cdd185c9d08189b1bd8dac81a5b881d1a19481c185cdd604a1b6044820152606401610980565b828210156129c45760405162461bcd60e51b81526004016109809061405a565b8181116129e35760405162461bcd60e51b815260040161098090613f06565b600060cd8681548110612a0657634e487b7160e01b600052603260045260246000fd5b90600052602060002090600c0201905080600401544211612a695760405162461bcd60e51b815260206004820152601760248201527f557365727320617265207374696c6c2066756e64696e670000000000000000006044820152606401610980565b612a72866111ca565b8514612ac05760405162461bcd60e51b815260206004820152601c60248201527f77726f6e672072657761726420616d6f756e742070726f7669646564000000006044820152606401610980565b60098101849055600a8101839055600b810182905560cc548154612af3916001600160a01b03918216913391168861313a565b60408051868152602081018690529081018490526060810183905286907f8045337d628acd774b68bb9b6c640b898e7fda0d005613ad8828aff4ba41d7629060800160405180910390a25050600160975550505050565b60026097541415612b6d5760405162461bcd60e51b815260040161098090614023565b6002609755612b8a60008051602061489283398151915233611800565b612ba65760405162461bcd60e51b815260040161098090613e8a565b60cd548210612bc75760405162461bcd60e51b815260040161098090613fb2565b600060cd8381548110612bea57634e487b7160e01b600052603260045260246000fd5b90600052602060002090600c02019050806009015460001415612c465760405162461bcd60e51b81526020600482015260146024820152731c995dd85c991cc81b9bdd081e595d081cd95b9d60621b6044820152606401610980565b600083815260d3602052604090205460ff1615612c9d5760405162461bcd60e51b8152602060048201526015602482015274416c726561647920636c61696d65642066756e647360581b6044820152606401610980565b600083815260d360205260409020805460ff191660019081179091558101546001600160a01b0316612d3857600083815260ce60205260408082205490516001600160a01b03851691908381818185875af1925050503d8060008114612d1f576040519150601f19603f3d011682016040523d82523d6000602084013e612d24565b606091505b5050905080612d3257600080fd5b50612dd2565b6001810154600084815260ce60205260409081902054905163a9059cbb60e01b81526001600160a01b038581166004830152602482019290925291169063a9059cbb90604401602060405180830381600087803b158015612d9857600080fd5b505af1158015612dac573d6000803e3d6000fd5b505050506040513d601f19601f82011682018060405250810190612dd09190613b6f565b505b816001600160a01b0316837f90b6b0d5b4b6169cc45fd20c2536a9d57c31e428447bd18963c0210541a8708960ce600087815260200190815260200160002054604051612e2191815260200190565b60405180910390a35050600160975550565b612e4b60008051602061489283398151915233611800565b612e675760405162461bcd60e51b815260040161098090613e8a565b886001600160a01b038116612ebe5760405162461bcd60e51b815260206004820152601c60248201527f5f726577617264546f6b656e206973207a65726f2061646472657373000000006044820152606401610980565b868810612edd5760405162461bcd60e51b815260040161098090613eb0565b858710612efc5760405162461bcd60e51b815260040161098090613f47565b60008511612f435760405162461bcd60e51b8152602060048201526014602482015273125b9d985b1a59081c985a5cd948185b5bdd5b9d60621b6044820152606401610980565b60008411612f8a5760405162461bcd60e51b8152602060048201526014602482015273125b9d985b1a59081c1c9a58d948185b5bdd5b9d60621b6044820152606401610980565b60cd6040518061018001604052808c6001600160a01b031681526020018b6001600160a01b031681526020018a81526020018981526020018881526020018781526020018681526020018581526020018481526020016000815260200160008152602001600081525090806001815401808255809150506001900390600052602060002090600c020160009091909190915060008201518160000160006101000a8154816001600160a01b0302191690836001600160a01b0316021790555060208201518160010160006101000a8154816001600160a01b0302191690836001600160a01b0316021790555060408201518160020155606082015181600301556080820151816004015560a0820151816005015560c0820151816006015560e082015181600701556101008201518160080155610120820151816009015561014082015181600a015561016082015181600b015550506130f9600160cd805490506132fd90919063ffffffff16565b6040517f522b283dfad3650433b41164a9379b13dc60bbf24676affdc6a33c84dd3ac15d90600090a250505050505050505050565b60006112b482846140a4565b604080516001600160a01b0385811660248301528416604482015260648082018490528251808303909101815260849091019091526020810180516001600160e01b03166323b872dd60e01b1790526126179085906134f0565b60006112b482846140bc565b60006112b482846140dc565b6131b68282611800565b611360576131ce816001600160a01b031660146135c2565b6131d98360206135c2565b6040516020016131ea929190613de2565b60408051601f198184030181529082905262461bcd60e51b825261098091600401613e57565b61321a8282611800565b6113605760008281526065602090815260408083206001600160a01b03851684529091529020805460ff191660011790556132523390565b6001600160a01b0316816001600160a01b0316837f2f8788117e7eff1d82e926ec794901d17c78024a50270940304540a733656f0d60405160405180910390a45050565b6132a08282611800565b156113605760008281526065602090815260408083206001600160a01b0385168085529252808320805460ff1916905551339285917ff6391f5c32d9c69d2a47ea670b442974b53935d1edc7fd64eb21e047a839171b9190a45050565b60006112b482846140fb565b60008261331685846137a4565b14949350505050565b60cc5460405163776e4b3560e11b81526001600160a01b038581166004830152600092169063eedc966a9060240160206040518083038186803b15801561336557600080fd5b505afa158015613379573d6000803e3d6000fd5b505050506040513d601f19601f8201168201806040525081019061339d9190613c72565b90508082111561341a5760cc546040516361d9ad3f60e11b81526001600160a01b0386811660048301528581166024830152604482018490529091169063c3b35a7e90606401600060405180830381600087803b1580156133fd57600080fd5b505af1158015613411573d6000803e3d6000fd5b50505050612617565b60cc546040516361d9ad3f60e11b81526001600160a01b0386811660048301528581166024830152604482018590529091169063c3b35a7e90606401600060405180830381600087803b15801561347057600080fd5b505af1158015613484573d6000803e3d6000fd5b5050505050505050565b600054610100900460ff166134b55760405162461bcd60e51b815260040161098090613fd8565b6134bd61381e565b565b600054610100900460ff166134bd5760405162461bcd60e51b815260040161098090613fd8565b6113608282613210565b6000613545826040518060400160405280602081526020017f5361666545524332303a206c6f772d6c6576656c2063616c6c206661696c6564815250856001600160a01b031661384c9092919063ffffffff16565b8051909150156112e157808060200190518101906135639190613b6f565b6112e15760405162461bcd60e51b815260206004820152602a60248201527f5361666545524332303a204552433230206f7065726174696f6e20646964206e6044820152691bdd081cdd58d8d9595960b21b6064820152608401610980565b606060006135d18360026140dc565b6135dc9060026140a4565b67ffffffffffffffff81111561360257634e487b7160e01b600052604160045260246000fd5b6040519080825280601f01601f19166020018201604052801561362c576020820181803683370190505b509050600360fc1b8160008151811061365557634e487b7160e01b600052603260045260246000fd5b60200101906001600160f81b031916908160001a905350600f60fb1b8160018151811061369257634e487b7160e01b600052603260045260246000fd5b60200101906001600160f81b031916908160001a90535060006136b68460026140dc565b6136c19060016140a4565b90505b6001811115613755576f181899199a1a9b1b9c1cb0b131b232b360811b85600f166010811061370357634e487b7160e01b600052603260045260246000fd5b1a60f81b82828151811061372757634e487b7160e01b600052603260045260246000fd5b60200101906001600160f81b031916908160001a90535060049490941c9361374e8161413e565b90506136c4565b5083156112b45760405162461bcd60e51b815260206004820181905260248201527f537472696e67733a20686578206c656e67746820696e73756666696369656e746044820152606401610980565b600081815b84518110156119e85760008582815181106137d457634e487b7160e01b600052603260045260246000fd5b602002602001015190508083116137fa576000838152602082905260409020925061380b565b600081815260208490526040902092505b508061381681614155565b9150506137a9565b600054610100900460ff166138455760405162461bcd60e51b815260040161098090613fd8565b6001609755565b606061385b8484600085613863565b949350505050565b6060824710156138c45760405162461bcd60e51b815260206004820152602660248201527f416464726573733a20696e73756666696369656e742062616c616e636520666f6044820152651c8818d85b1b60d21b6064820152608401610980565b6001600160a01b0385163b61391b5760405162461bcd60e51b815260206004820152601d60248201527f416464726573733a2063616c6c20746f206e6f6e2d636f6e74726163740000006044820152606401610980565b600080866001600160a01b031685876040516139379190613dc6565b60006040518083038185875af1925050503d8060008114613974576040519150601f19603f3d011682016040523d82523d6000602084013e613979565b606091505b5091509150613989828286613994565b979650505050505050565b606083156139a35750816112b4565b8251156139b35782518084602001fd5b8160405162461bcd60e51b81526004016109809190613e57565b6106dd806141b583390190565b60008083601f8401126139eb578081fd5b50813567ffffffffffffffff811115613a02578182fd5b6020830191508360208260051b8501011115613a1d57600080fd5b9250929050565b600082601f830112613a34578081fd5b8135602067ffffffffffffffff80831115613a5157613a51614186565b8260051b604051601f19603f83011681018181108482111715613a7657613a76614186565b60405284815283810192508684018288018501891015613a94578687fd5b8692505b85831015613ab6578035845292840192600192909201918401613a98565b50979650505050505050565b600060208284031215613ad3578081fd5b81356112b48161419c565b600060208284031215613aef578081fd5b81516112b48161419c565b600080600060608486031215613b0e578182fd5b833567ffffffffffffffff80821115613b25578384fd5b613b3187838801613a24565b94506020860135915080821115613b46578384fd5b50613b5386828701613a24565b9250506040840135613b648161419c565b809150509250925092565b600060208284031215613b80578081fd5b815180151581146112b4578182fd5b600060208284031215613ba0578081fd5b5035919050565b60008060408385031215613bb9578182fd5b823591506020830135613bcb8161419c565b809150509250929050565b600060208284031215613be7578081fd5b81356001600160e01b0319811681146112b4578182fd5b60008060008060008060008060006101208a8c031215613c1c578485fd5b8935613c278161419c565b985060208a0135613c378161419c565b989b989a505050506040870135966060810135966080820135965060a0820135955060c0820135945060e08201359350610100909101359150565b600060208284031215613c83578081fd5b5051919050565b60008060408385031215613c9c578182fd5b50508035926020909101359150565b60008060008060608587031215613cc0578384fd5b8435935060208501359250604085013567ffffffffffffffff811115613ce4578283fd5b613cf0878288016139da565b95989497509550505050565b600080600080600060808688031215613d13578283fd5b853594506020860135935060408601359250606086013567ffffffffffffffff811115613d3e578182fd5b613d4a888289016139da565b969995985093965092949392505050565b60008060008060808587031215613d70578182fd5b5050823594602084013594506040840135936060013592509050565b600080600080600060a08688031215613da3578283fd5b505083359560208501359550604085013594606081013594506080013592509050565b60008251613dd8818460208701614112565b9190910192915050565b7f416363657373436f6e74726f6c3a206163636f756e7420000000000000000000815260008351613e1a816017850160208801614112565b7001034b99036b4b9b9b4b733903937b6329607d1b6017918401918201528351613e4b816028840160208801614112565b01602801949350505050565b6020815260008251806020840152613e76816040850160208701614112565b601f01601f19169190910160400192915050565b6020808252600c908201526b155b985d5d1a1bdc9a5e995960a21b604082015260600190565b60208082526036908201527f5f737562736372697074696f6e537461727454696d657374616d70206d757374604082015275081899481899599bdc99481cdd185ada5b99c8195b9960521b606082015260800190565b60208082526021908201527f656e642074696d65206d75737420626520616674657220636c6966662074696d6040820152606560f81b606082015260800190565b60208082526026908201527f7374616b696e6720656e64206d757374206265206265666f72652066756e64696040820152651b99c8195b9960d21b606082015260800190565b6020808252600b908201526a125b9d985b1a590814125160aa1b604082015260600190565b6020808252600c908201526b1a5b9d985b1a590817dc1a5960a21b604082015260600190565b6020808252602b908201527f496e697469616c697a61626c653a20636f6e7472616374206973206e6f74206960408201526a6e697469616c697a696e6760a81b606082015260800190565b6020808252601f908201527f5265656e7472616e637947756172643a207265656e7472616e742063616c6c00604082015260600190565b6020808252602a908201527f436c696666206d757374206265206166746572206f7220657175616c20746f2060408201526973746172742074696d6560b01b606082015260800190565b600082198211156140b7576140b7614170565b500190565b6000826140d757634e487b7160e01b81526012600452602481fd5b500490565b60008160001904831182151516156140f6576140f6614170565b500290565b60008282101561410d5761410d614170565b500390565b60005b8381101561412d578181015183820152602001614115565b838111156126175750506000910152565b60008161414d5761414d614170565b506000190190565b600060001982141561416957614169614170565b5060010190565b634e487b7160e01b600052601160045260246000fd5b634e487b7160e01b600052604160045260246000fd5b6001600160a01b03811681146141b157600080fd5b5056fe608060405234801561001057600080fd5b506106bd806100206000396000f3fe608060405234801561001057600080fd5b506004361061004c5760003560e01c8063c3b35a7e14610051578063c4d66de814610066578063ee99205c14610079578063eedc966a146100af575b600080fd5b61006461005f366004610598565b6100d0565b005b61006461007436600461055c565b61015e565b600054610092906201000090046001600160a01b031681565b6040516001600160a01b0390911681526020015b60405180910390f35b6100c26100bd36600461055c565b61023a565b6040519081526020016100a6565b6000546201000090046001600160a01b031633146101455760405162461bcd60e51b815260206004820152602760248201527f4775696c642e7769746864726177546f3a204f6e6c79207374616b696e6720636044820152661bdb9d1c9858dd60ca1b60648201526084015b60405180910390fd5b6101596001600160a01b03841683836102ba565b505050565b600054610100900460ff166101795760005460ff161561017d565b303b155b6101e05760405162461bcd60e51b815260206004820152602e60248201527f496e697469616c697a61626c653a20636f6e747261637420697320616c72656160448201526d191e481a5b9a5d1a585b1a5e995960921b606482015260840161013c565b600054610100900460ff16158015610202576000805461ffff19166101011790555b6000805462010000600160b01b031916620100006001600160a01b038516021790558015610236576000805461ff00191690555b5050565b6040516370a0823160e01b81523060048201526000906001600160a01b038316906370a082319060240160206040518083038186803b15801561027c57600080fd5b505afa158015610290573d6000803e3d6000fd5b505050506040513d601f19601f820116820180604052508101906102b491906105d8565b92915050565b604080516001600160a01b038416602482015260448082018490528251808303909101815260649091019091526020810180516001600160e01b031663a9059cbb60e01b179052610159908490600061035c826040518060400160405280602081526020017f5361666545524332303a206c6f772d6c6576656c2063616c6c206661696c6564815250856001600160a01b03166103d99092919063ffffffff16565b805190915015610159578080602001905181019061037a9190610578565b6101595760405162461bcd60e51b815260206004820152602a60248201527f5361666545524332303a204552433230206f7065726174696f6e20646964206e6044820152691bdd081cdd58d8d9595960b21b606482015260840161013c565b60606103e884846000856103f2565b90505b9392505050565b6060824710156104535760405162461bcd60e51b815260206004820152602660248201527f416464726573733a20696e73756666696369656e742062616c616e636520666f6044820152651c8818d85b1b60d21b606482015260840161013c565b6001600160a01b0385163b6104aa5760405162461bcd60e51b815260206004820152601d60248201527f416464726573733a2063616c6c20746f206e6f6e2d636f6e7472616374000000604482015260640161013c565b600080866001600160a01b031685876040516104c691906105f0565b60006040518083038185875af1925050503d8060008114610503576040519150601f19603f3d011682016040523d82523d6000602084013e610508565b606091505b5091509150610518828286610523565b979650505050505050565b606083156105325750816103eb565b8251156105425782518084602001fd5b8160405162461bcd60e51b815260040161013c919061060c565b60006020828403121561056d578081fd5b81356103eb8161066f565b600060208284031215610589578081fd5b815180151581146103eb578182fd5b6000806000606084860312156105ac578182fd5b83356105b78161066f565b925060208401356105c78161066f565b929592945050506040919091013590565b6000602082840312156105e9578081fd5b5051919050565b6000825161060281846020870161063f565b9190910192915050565b602081526000825180602084015261062b81604085016020870161063f565b601f01601f19169190910160400192915050565b60005b8381101561065a578181015183820152602001610642565b83811115610669576000848401525b50505050565b6001600160a01b038116811461068457600080fd5b5056fea2646970667358221220698686e00da2d3c146c23f0df7a0f914a19d3713c31bb9b3c841deb5e4675f0e64736f6c63430008040033df8b4c520ffe197c5343c6f5aec59570151ef9a492f2c624fd45ddde6135ec42a2646970667358221220892243fbab30b40b5048b0ac1ae3da31b4207b35ca4216d1f1ba68ac67e6390364736f6c63430008040033",
  "linkReferences": {},
  "deployedLinkReferences": {}
}