{
    "abi": [
        {
            "inputs": [
                {
                    "internalType": "uint256[]",
                    "name": "scores",
                    "type": "uint256[]"
                },
                {
                    "internalType": "uint256[]",
                    "name": "mps",
                    "type": "uint256[]"
                },
                {
                    "internalType": "address",
                    "name": "_utilityNFT",
                    "type": "address"
                }
            ],
            "stateMutability": "nonpayable",
            "type": "constructor"
        },
        {
            "anonymous": false,
            "inputs": [
                {
                    "indexed": true,
                    "internalType": "address",
                    "name": "guildBank",
                    "type": "address"
                }
            ],
            "name": "ContractDeployed",
            "type": "event"
        },
        {
            "anonymous": false,
            "inputs": [
                {
                    "indexed": true,
                    "internalType": "uint256",
                    "name": "pid",
                    "type": "uint256"
                },
                {
                    "indexed": true,
                    "internalType": "address",
                    "name": "recipient",
                    "type": "address"
                },
                {
                    "indexed": false,
                    "internalType": "uint256",
                    "name": "amount",
                    "type": "uint256"
                }
            ],
            "name": "FundRaisingClaimed",
            "type": "event"
        },
        {
            "anonymous": false,
            "inputs": [
                {
                    "indexed": true,
                    "internalType": "address",
                    "name": "previousOwner",
                    "type": "address"
                },
                {
                    "indexed": true,
                    "internalType": "address",
                    "name": "newOwner",
                    "type": "address"
                }
            ],
            "name": "OwnershipTransferred",
            "type": "event"
        },
        {
            "anonymous": false,
            "inputs": [
                {
                    "indexed": true,
                    "internalType": "uint256",
                    "name": "pid",
                    "type": "uint256"
                }
            ],
            "name": "PoolAdded",
            "type": "event"
        },
        {
            "anonymous": false,
            "inputs": [
                {
                    "indexed": true,
                    "internalType": "address",
                    "name": "user",
                    "type": "address"
                },
                {
                    "indexed": true,
                    "internalType": "uint256",
                    "name": "pid",
                    "type": "uint256"
                },
                {
                    "indexed": false,
                    "internalType": "uint256",
                    "name": "amount",
                    "type": "uint256"
                }
            ],
            "name": "RewardClaimed",
            "type": "event"
        },
        {
            "anonymous": false,
            "inputs": [
                {
                    "indexed": true,
                    "internalType": "uint256",
                    "name": "pid",
                    "type": "uint256"
                },
                {
                    "indexed": false,
                    "internalType": "uint256",
                    "name": "amount",
                    "type": "uint256"
                },
                {
                    "indexed": false,
                    "internalType": "uint256",
                    "name": "rewardStartTime",
                    "type": "uint256"
                },
                {
                    "indexed": false,
                    "internalType": "uint256",
                    "name": "rewardCliffEndTime",
                    "type": "uint256"
                },
                {
                    "indexed": false,
                    "internalType": "uint256",
                    "name": "rewardEndTime",
                    "type": "uint256"
                }
            ],
            "name": "RewardsSetUp",
            "type": "event"
        },
        {
            "anonymous": false,
            "inputs": [
                {
                    "indexed": true,
                    "internalType": "address",
                    "name": "user",
                    "type": "address"
                },
                {
                    "indexed": true,
                    "internalType": "uint256",
                    "name": "pid",
                    "type": "uint256"
                }
            ],
            "name": "Subscribe",
            "type": "event"
        },
        {
            "anonymous": false,
            "inputs": [
                {
                    "indexed": true,
                    "internalType": "address",
                    "name": "user",
                    "type": "address"
                },
                {
                    "indexed": true,
                    "internalType": "uint256",
                    "name": "pid",
                    "type": "uint256"
                },
                {
                    "indexed": false,
                    "internalType": "uint256",
                    "name": "amount",
                    "type": "uint256"
                }
            ],
            "name": "SubscribeWithUtilityNFT",
            "type": "event"
        },
        {
            "anonymous": false,
            "inputs": [
                {
                    "indexed": true,
                    "internalType": "address",
                    "name": "user",
                    "type": "address"
                },
                {
                    "indexed": true,
                    "internalType": "uint256",
                    "name": "pid",
                    "type": "uint256"
                },
                {
                    "indexed": false,
                    "internalType": "uint256",
                    "name": "amount",
                    "type": "uint256"
                }
            ],
            "name": "SubscriptionFunded",
            "type": "event"
        },
        {
            "inputs": [],
            "name": "TOTAL_TOKEN_ALLOCATION_POINTS",
            "outputs": [
                {
                    "internalType": "uint256",
                    "name": "",
                    "type": "uint256"
                }
            ],
            "stateMutability": "view",
            "type": "function"
        },
        {
            "inputs": [],
            "name": "merkleRootKYC",
            "outputs": [
                {
                    "internalType": "bytes32",
                    "name": "",
                    "type": "bytes32"
                }
            ],
            "stateMutability": "view",
            "type": "function"
        },
        {
            "inputs": [
                {
                    "internalType": "uint256",
                    "name": "",
                    "type": "uint256"
                }
            ],
            "name": "multipliers",
            "outputs": [
                {
                    "internalType": "uint256",
                    "name": "scoreFrom",
                    "type": "uint256"
                },
                {
                    "internalType": "uint256",
                    "name": "multiplier",
                    "type": "uint256"
                }
            ],
            "stateMutability": "view",
            "type": "function"
        },
        {
            "inputs": [],
            "name": "owner",
            "outputs": [
                {
                    "internalType": "address",
                    "name": "",
                    "type": "address"
                }
            ],
            "stateMutability": "view",
            "type": "function"
        },
        {
            "inputs": [
                {
                    "internalType": "uint256",
                    "name": "",
                    "type": "uint256"
                }
            ],
            "name": "poolIdToAccPercentagePerShare",
            "outputs": [
                {
                    "internalType": "uint256",
                    "name": "",
                    "type": "uint256"
                }
            ],
            "stateMutability": "view",
            "type": "function"
        },
        {
            "inputs": [
                {
                    "internalType": "uint256",
                    "name": "",
                    "type": "uint256"
                }
            ],
            "name": "poolIdToAccRewardPerShareVesting",
            "outputs": [
                {
                    "internalType": "uint256",
                    "name": "",
                    "type": "uint256"
                }
            ],
            "stateMutability": "view",
            "type": "function"
        },
        {
            "inputs": [
                {
                    "internalType": "uint256",
                    "name": "",
                    "type": "uint256"
                }
            ],
            "name": "poolIdToFundsClaimed",
            "outputs": [
                {
                    "internalType": "bool",
                    "name": "",
                    "type": "bool"
                }
            ],
            "stateMutability": "view",
            "type": "function"
        },
        {
            "inputs": [
                {
                    "internalType": "uint256",
                    "name": "",
                    "type": "uint256"
                }
            ],
            "name": "poolIdToLastPercentageAllocBlock",
            "outputs": [
                {
                    "internalType": "uint256",
                    "name": "",
                    "type": "uint256"
                }
            ],
            "stateMutability": "view",
            "type": "function"
        },
        {
            "inputs": [
                {
                    "internalType": "uint256",
                    "name": "",
                    "type": "uint256"
                }
            ],
            "name": "poolIdToLastRewardBlock",
            "outputs": [
                {
                    "internalType": "uint256",
                    "name": "",
                    "type": "uint256"
                }
            ],
            "stateMutability": "view",
            "type": "function"
        },
        {
            "inputs": [
                {
                    "internalType": "uint256",
                    "name": "",
                    "type": "uint256"
                }
            ],
            "name": "poolIdToMaxRewardTokensAvailableForVesting",
            "outputs": [
                {
                    "internalType": "uint256",
                    "name": "",
                    "type": "uint256"
                }
            ],
            "stateMutability": "view",
            "type": "function"
        },
        {
            "inputs": [
                {
                    "internalType": "uint256",
                    "name": "",
                    "type": "uint256"
                }
            ],
            "name": "poolIdToRewardCliffEndBlock",
            "outputs": [
                {
                    "internalType": "uint256",
                    "name": "",
                    "type": "uint256"
                }
            ],
            "stateMutability": "view",
            "type": "function"
        },
        {
            "inputs": [
                {
                    "internalType": "uint256",
                    "name": "",
                    "type": "uint256"
                }
            ],
            "name": "poolIdToRewardEndBlock",
            "outputs": [
                {
                    "internalType": "uint256",
                    "name": "",
                    "type": "uint256"
                }
            ],
            "stateMutability": "view",
            "type": "function"
        },
        {
            "inputs": [
                {
                    "internalType": "uint256",
                    "name": "",
                    "type": "uint256"
                }
            ],
            "name": "poolIdToRewardPerBlock",
            "outputs": [
                {
                    "internalType": "uint256",
                    "name": "",
                    "type": "uint256"
                }
            ],
            "stateMutability": "view",
            "type": "function"
        },
        {
            "inputs": [
                {
                    "internalType": "uint256",
                    "name": "",
                    "type": "uint256"
                }
            ],
            "name": "poolIdToRewardStartBlock",
            "outputs": [
                {
                    "internalType": "uint256",
                    "name": "",
                    "type": "uint256"
                }
            ],
            "stateMutability": "view",
            "type": "function"
        },
        {
            "inputs": [
                {
                    "internalType": "uint256",
                    "name": "",
                    "type": "uint256"
                }
            ],
            "name": "poolIdToTotalFundedPercentageOfTargetRaise",
            "outputs": [
                {
                    "internalType": "uint256",
                    "name": "",
                    "type": "uint256"
                }
            ],
            "stateMutability": "view",
            "type": "function"
        },
        {
            "inputs": [
                {
                    "internalType": "uint256",
                    "name": "",
                    "type": "uint256"
                }
            ],
            "name": "poolIdToTotalGuaranteedAllocationsRaised",
            "outputs": [
                {
                    "internalType": "uint256",
                    "name": "",
                    "type": "uint256"
                }
            ],
            "stateMutability": "view",
            "type": "function"
        },
        {
            "inputs": [
                {
                    "internalType": "uint256",
                    "name": "",
                    "type": "uint256"
                }
            ],
            "name": "poolIdToTotalGuaranteedAllocationsSubscribed",
            "outputs": [
                {
                    "internalType": "uint256",
                    "name": "",
                    "type": "uint256"
                }
            ],
            "stateMutability": "view",
            "type": "function"
        },
        {
            "inputs": [
                {
                    "internalType": "uint256",
                    "name": "",
                    "type": "uint256"
                }
            ],
            "name": "poolIdToTotalMultipliers",
            "outputs": [
                {
                    "internalType": "uint256",
                    "name": "",
                    "type": "uint256"
                }
            ],
            "stateMutability": "view",
            "type": "function"
        },
        {
            "inputs": [
                {
                    "internalType": "uint256",
                    "name": "",
                    "type": "uint256"
                }
            ],
            "name": "poolIdToTotalRaised",
            "outputs": [
                {
                    "internalType": "uint256",
                    "name": "",
                    "type": "uint256"
                }
            ],
            "stateMutability": "view",
            "type": "function"
        },
        {
            "inputs": [
                {
                    "internalType": "uint256",
                    "name": "",
                    "type": "uint256"
                }
            ],
            "name": "poolIdToTotalStaked",
            "outputs": [
                {
                    "internalType": "uint256",
                    "name": "",
                    "type": "uint256"
                }
            ],
            "stateMutability": "view",
            "type": "function"
        },
        {
            "inputs": [
                {
                    "internalType": "uint256",
                    "name": "",
                    "type": "uint256"
                }
            ],
            "name": "poolInfo",
            "outputs": [
                {
                    "internalType": "contract IERC20",
                    "name": "rewardToken",
                    "type": "address"
                },
                {
                    "internalType": "contract IERC20",
                    "name": "fundRaisingToken",
                    "type": "address"
                },
                {
                    "internalType": "uint256",
                    "name": "subscriptionStartTimestamp",
                    "type": "uint256"
                },
                {
                    "internalType": "uint256",
                    "name": "subscriptionEndTimestamp",
                    "type": "uint256"
                },
                {
                    "internalType": "uint256",
                    "name": "fundingEndTimestamp",
                    "type": "uint256"
                },
                {
                    "internalType": "uint256",
                    "name": "targetRaise",
                    "type": "uint256"
                },
                {
                    "internalType": "uint256",
                    "name": "price",
                    "type": "uint256"
                },
                {
                    "internalType": "uint256",
                    "name": "maxStakingAmountPerUser",
                    "type": "uint256"
                },
                {
                    "internalType": "uint256",
                    "name": "maxUtilityNFTsValue",
                    "type": "uint256"
                },
                {
                    "internalType": "uint256",
                    "name": "rewardsStartTime",
                    "type": "uint256"
                },
                {
                    "internalType": "uint256",
                    "name": "rewardsCliffEndTime",
                    "type": "uint256"
                },
                {
                    "internalType": "uint256",
                    "name": "rewardsEndTime",
                    "type": "uint256"
                }
            ],
            "stateMutability": "view",
            "type": "function"
        },
        {
            "inputs": [],
            "name": "renounceOwnership",
            "outputs": [],
            "stateMutability": "nonpayable",
            "type": "function"
        },
        {
            "inputs": [],
            "name": "rewardGuildBank",
            "outputs": [
                {
                    "internalType": "contract FundRaisingGuild",
                    "name": "",
                    "type": "address"
                }
            ],
            "stateMutability": "view",
            "type": "function"
        },
        {
            "inputs": [],
            "name": "stakingFactory",
            "outputs": [
                {
                    "internalType": "contract IERC20",
                    "name": "",
                    "type": "address"
                }
            ],
            "stateMutability": "view",
            "type": "function"
        },
        {
            "inputs": [
                {
                    "internalType": "uint256",
                    "name": "",
                    "type": "uint256"
                }
            ],
            "name": "stakingRewards",
            "outputs": [
                {
                    "internalType": "address",
                    "name": "",
                    "type": "address"
                }
            ],
            "stateMutability": "view",
            "type": "function"
        },
        {
            "inputs": [
                {
                    "internalType": "address",
                    "name": "newOwner",
                    "type": "address"
                }
            ],
            "name": "transferOwnership",
            "outputs": [],
            "stateMutability": "nonpayable",
            "type": "function"
        },
        {
            "inputs": [
                {
                    "internalType": "uint256",
                    "name": "",
                    "type": "uint256"
                },
                {
                    "internalType": "address",
                    "name": "",
                    "type": "address"
                }
            ],
            "name": "userInfo",
            "outputs": [
                {
                    "internalType": "uint256",
                    "name": "amount",
                    "type": "uint256"
                },
                {
                    "internalType": "uint256",
                    "name": "fundingAmount",
                    "type": "uint256"
                },
                {
                    "internalType": "uint256",
                    "name": "multiplier",
                    "type": "uint256"
                },
                {
                    "internalType": "uint256",
                    "name": "nftValue",
                    "type": "uint256"
                },
                {
                    "internalType": "uint256",
                    "name": "utilityNFTTokenId",
                    "type": "uint256"
                },
                {
                    "internalType": "uint256",
                    "name": "collectedRewards",
                    "type": "uint256"
                }
            ],
            "stateMutability": "view",
            "type": "function"
        },
        {
            "inputs": [
                {
                    "internalType": "address",
                    "name": "_stakingRewards",
                    "type": "address"
                }
            ],
            "name": "addStakingRewards",
            "outputs": [],
            "stateMutability": "nonpayable",
            "type": "function"
        },
        {
            "inputs": [
                {
                    "internalType": "address",
                    "name": "_stakingRewards",
                    "type": "address"
                }
            ],
            "name": "removeStakingRewards",
            "outputs": [],
            "stateMutability": "nonpayable",
            "type": "function"
        },
        {
            "inputs": [
                {
                    "internalType": "bytes32",
                    "name": "_merkleRootKYC",
                    "type": "bytes32"
                }
            ],
            "name": "setKYCMerkleRoot",
            "outputs": [],
            "stateMutability": "nonpayable",
            "type": "function"
        },
        {
            "inputs": [],
            "name": "numberOfPools",
            "outputs": [
                {
                    "internalType": "uint256",
                    "name": "",
                    "type": "uint256"
                }
            ],
            "stateMutability": "view",
            "type": "function"
        },
        {
            "inputs": [
                {
                    "internalType": "contract IERC20",
                    "name": "_rewardToken",
                    "type": "address"
                },
                {
                    "internalType": "contract IERC20",
                    "name": "_fundRaisingToken",
                    "type": "address"
                },
                {
                    "internalType": "uint256",
                    "name": "_subscriptionStartTimestamp",
                    "type": "uint256"
                },
                {
                    "internalType": "uint256",
                    "name": "_subscriptionEndTimestamp",
                    "type": "uint256"
                },
                {
                    "internalType": "uint256",
                    "name": "_fundingEndTimestamp",
                    "type": "uint256"
                },
                {
                    "internalType": "uint256",
                    "name": "_targetRaise",
                    "type": "uint256"
                },
                {
                    "internalType": "uint256",
                    "name": "_price",
                    "type": "uint256"
                },
                {
                    "internalType": "uint256",
                    "name": "_maxStakingAmountPerUser",
                    "type": "uint256"
                },
                {
                    "internalType": "uint256",
                    "name": "_maxUtilityNFTsValue",
                    "type": "uint256"
                }
            ],
            "name": "add",
            "outputs": [],
            "stateMutability": "nonpayable",
            "type": "function"
        },
        {
            "inputs": [
                {
                    "internalType": "uint256",
                    "name": "_pid",
                    "type": "uint256"
                },
                {
                    "internalType": "uint256",
                    "name": "_index",
                    "type": "uint256"
                },
                {
                    "internalType": "bytes32[]",
                    "name": "_merkleProof",
                    "type": "bytes32[]"
                }
            ],
            "name": "subscribe",
            "outputs": [],
            "stateMutability": "nonpayable",
            "type": "function"
        },
        {
            "inputs": [
                {
                    "internalType": "uint256",
                    "name": "_pid",
                    "type": "uint256"
                },
                {
                    "internalType": "uint256",
                    "name": "utilityNFTTokenId",
                    "type": "uint256"
                },
                {
                    "internalType": "uint256",
                    "name": "_index",
                    "type": "uint256"
                },
                {
                    "internalType": "bytes32[]",
                    "name": "_merkleProof",
                    "type": "bytes32[]"
                }
            ],
            "name": "subscribeWithUtilityNFT",
            "outputs": [],
            "stateMutability": "nonpayable",
            "type": "function"
        },
        {
            "inputs": [
                {
                    "internalType": "uint256",
                    "name": "_pid",
                    "type": "uint256"
                }
            ],
            "name": "getMaximumAllocation",
            "outputs": [
                {
                    "internalType": "uint256",
                    "name": "",
                    "type": "uint256"
                }
            ],
            "stateMutability": "view",
            "type": "function"
        },
        {
            "inputs": [
                {
                    "internalType": "uint256",
                    "name": "_pid",
                    "type": "uint256"
                },
                {
                    "internalType": "uint256",
                    "name": "_amount",
                    "type": "uint256"
                }
            ],
            "name": "fundSubscription",
            "outputs": [],
            "stateMutability": "payable",
            "type": "function"
        },
        {
            "inputs": [
                {
                    "internalType": "uint256",
                    "name": "_pid",
                    "type": "uint256"
                }
            ],
            "name": "getTotalRaisedVsTarget",
            "outputs": [
                {
                    "internalType": "uint256",
                    "name": "raised",
                    "type": "uint256"
                },
                {
                    "internalType": "uint256",
                    "name": "target",
                    "type": "uint256"
                }
            ],
            "stateMutability": "view",
            "type": "function"
        },
        {
            "inputs": [
                {
                    "internalType": "uint256",
                    "name": "_pid",
                    "type": "uint256"
                }
            ],
            "name": "getRequiredRewardAmountForAmountRaised",
            "outputs": [
                {
                    "internalType": "uint256",
                    "name": "rewardAmount",
                    "type": "uint256"
                }
            ],
            "stateMutability": "view",
            "type": "function"
        },
        {
            "inputs": [
                {
                    "internalType": "uint256",
                    "name": "_pid",
                    "type": "uint256"
                },
                {
                    "internalType": "uint256",
                    "name": "_rewardAmount",
                    "type": "uint256"
                },
                {
                    "internalType": "uint256",
                    "name": "_rewardStartTimestamp",
                    "type": "uint256"
                },
                {
                    "internalType": "uint256",
                    "name": "_rewardCliffEndTimestamp",
                    "type": "uint256"
                },
                {
                    "internalType": "uint256",
                    "name": "_rewardEndTimestamp",
                    "type": "uint256"
                }
            ],
            "name": "setupVestingRewards",
            "outputs": [],
            "stateMutability": "nonpayable",
            "type": "function"
        },
        {
            "inputs": [
                {
                    "internalType": "uint256",
                    "name": "_pid",
                    "type": "uint256"
                },
                {
                    "internalType": "address",
                    "name": "_user",
                    "type": "address"
                }
            ],
            "name": "pendingRewards",
            "outputs": [
                {
                    "internalType": "uint256",
                    "name": "",
                    "type": "uint256"
                }
            ],
            "stateMutability": "view",
            "type": "function"
        },
        {
            "inputs": [
                {
                    "internalType": "uint256",
                    "name": "_pid",
                    "type": "uint256"
                },
                {
                    "internalType": "address",
                    "name": "_user",
                    "type": "address"
                }
            ],
            "name": "getTotalReward",
            "outputs": [
                {
                    "internalType": "uint256",
                    "name": "",
                    "type": "uint256"
                }
            ],
            "stateMutability": "view",
            "type": "function"
        },
        {
            "inputs": [
                {
                    "internalType": "uint256",
                    "name": "_pid",
                    "type": "uint256"
                }
            ],
            "name": "claimReward",
            "outputs": [],
            "stateMutability": "nonpayable",
            "type": "function"
        },
        {
            "inputs": [
                {
                    "internalType": "uint256",
                    "name": "_pid",
                    "type": "uint256"
                }
            ],
            "name": "claimFundRaising",
            "outputs": [],
            "stateMutability": "nonpayable",
            "type": "function"
        }
    ],
    "bytecode": "0x60806040523480156200001157600080fd5b5060405162006a8138038062006a81833981810160405260608110156200003757600080fd5b81019080805160405193929190846401000000008211156200005857600080fd5b838201915060208201858111156200006f57600080fd5b82518660208202830111640100000000821117156200008d57600080fd5b8083526020830192505050908051906020019060200280838360005b83811015620000c6578082015181840152602081019050620000a9565b5050505090500160405260200180516040519392919084640100000000821115620000f057600080fd5b838201915060208201858111156200010757600080fd5b82518660208202830111640100000000821117156200012557600080fd5b8083526020830192505050908051906020019060200280838360005b838110156200015e57808201518184015260208101905062000141565b505050509050016040526020018051906020019092919050505060006200018a6200048560201b60201c565b9050806000806101000a81548173ffffffffffffffffffffffffffffffffffffffff021916908373ffffffffffffffffffffffffffffffffffffffff1602179055508073ffffffffffffffffffffffffffffffffffffffff16600073ffffffffffffffffffffffffffffffffffffffff167f8be0079c531659141344cd1fd0a4f28419497f9722a3daafe3b4186f6b6457e060405160405180910390a3506001808190555081518351146200028b576040517f08c379a000000000000000000000000000000000000000000000000000000000815260040180806020018281038252602281526020018062006a5f6022913960400191505060405180910390fd5b306040516200029a906200048d565b808273ffffffffffffffffffffffffffffffffffffffff1673ffffffffffffffffffffffffffffffffffffffff168152602001915050604051809103906000f080158015620002ed573d6000803e3d6000fd5b50600560006101000a81548173ffffffffffffffffffffffffffffffffffffffff021916908373ffffffffffffffffffffffffffffffffffffffff16021790555080600260006101000a81548173ffffffffffffffffffffffffffffffffffffffff021916908373ffffffffffffffffffffffffffffffffffffffff16021790555060008090505b83518110156200041657620003896200049b565b8482815181106200039657fe5b6020026020010151816000018181525050838281518110620003b457fe5b602002602001015181602001818152505060198190806001815401808255809150506001900390600052602060002090600202016000909190919091506000820151816000015560208201518160010155505050808060010191505062000375565b50600560009054906101000a900473ffffffffffffffffffffffffffffffffffffffff1673ffffffffffffffffffffffffffffffffffffffff167f8ffcdc15a283d706d38281f500270d8b5a656918f555de0913d7455e3e6bc1bf60405160405180910390a2505050620004b5565b600033905090565b61089980620061c683390190565b604051806040016040528060008152602001600081525090565b615d0180620004c56000396000f3fe60806040526004361061025c5760003560e01c806380cd692111610144578063b8bf1ec4116100b6578063d53e7bcb1161007a578063d53e7bcb14610ef5578063d5a1e66a14610f44578063db5dc29d14610f95578063de9b2e0214610fe4578063f2fde38b14611047578063faf7444a146110985761025c565b8063b8bf1ec414610d0d578063b9641a2114610db1578063c669cb5514610e04578063ce99ad4214610e2f578063d18df53c14610e865761025c565b806393f1a40b1161010857806393f1a40b14610af657806398e8519014610b88578063ac490c0814610bde578063ac7fc26314610c2d578063ae169a5014610c83578063b6139e0c14610cbe5761025c565b806380cd69211461096357806383876474146109b25780638481a5ac14610a0157806384a2398c14610a505780638da5cb5b14610a9f5761025c565b806339242127116101dd5780635c1d3119116101a15780635c1d3119146107ae57806367a49923146107fd5780636f682a5314610838578063715018a61461086357806371cbb0271461087a578063793d2809146109145761025c565b8063392421271461061b57806344e7c4ea1461066a5780634f669ca3146106b9578063577f3525146106e4578063597a8d6f146107335761025c565b806324c208501161022457806324c208501461046857806329134768146104d75780632c8a239a1461052e57806331e45c621461057d578063329f812e146105cc5761025c565b806307ac1ea814610261578063115e3c0d146102b0578063116e5691146102e85780631526fe2714610339578063218274231461042d575b600080fd5b34801561026d57600080fd5b5061029a6004803603602081101561028457600080fd5b8101908080359060200190929190505050611150565b6040518082815260200191505060405180910390f35b6102e6600480360360408110156102c657600080fd5b810190808035906020019092919080359060200190929190505050611168565b005b3480156102f457600080fd5b506103376004803603602081101561030b57600080fd5b81019080803573ffffffffffffffffffffffffffffffffffffffff169060200190929190505050611862565b005b34801561034557600080fd5b506103726004803603602081101561035c57600080fd5b8101908080359060200190929190505050611977565b604051808d73ffffffffffffffffffffffffffffffffffffffff1673ffffffffffffffffffffffffffffffffffffffff1681526020018c73ffffffffffffffffffffffffffffffffffffffff1673ffffffffffffffffffffffffffffffffffffffff1681526020018b81526020018a81526020018981526020018881526020018781526020018681526020018581526020018481526020018381526020018281526020019c5050505050505050505050505060405180910390f35b34801561043957600080fd5b506104666004803603602081101561045057600080fd5b8101908080359060200190929190505050611a24565b005b34801561047457600080fd5b506104c16004803603604081101561048b57600080fd5b8101908080359060200190929190803573ffffffffffffffffffffffffffffffffffffffff169060200190929190505050611add565b6040518082815260200191505060405180910390f35b3480156104e357600080fd5b506104ec611d92565b604051808273ffffffffffffffffffffffffffffffffffffffff1673ffffffffffffffffffffffffffffffffffffffff16815260200191505060405180910390f35b34801561053a57600080fd5b506105676004803603602081101561055157600080fd5b8101908080359060200190929190505050611db8565b6040518082815260200191505060405180910390f35b34801561058957600080fd5b506105b6600480360360208110156105a057600080fd5b8101908080359060200190929190505050611f47565b6040518082815260200191505060405180910390f35b3480156105d857600080fd5b50610605600480360360208110156105ef57600080fd5b8101908080359060200190929190505050611f5f565b6040518082815260200191505060405180910390f35b34801561062757600080fd5b506106546004803603602081101561063e57600080fd5b8101908080359060200190929190505050611f77565b6040518082815260200191505060405180910390f35b34801561067657600080fd5b506106a36004803603602081101561068d57600080fd5b8101908080359060200190929190505050611f8f565b6040518082815260200191505060405180910390f35b3480156106c557600080fd5b506106ce611fa7565b6040518082815260200191505060405180910390f35b3480156106f057600080fd5b5061071d6004803603602081101561070757600080fd5b8101908080359060200190929190505050611fb4565b6040518082815260200191505060405180910390f35b34801561073f57600080fd5b5061076c6004803603602081101561075657600080fd5b8101908080359060200190929190505050611fcc565b604051808273ffffffffffffffffffffffffffffffffffffffff1673ffffffffffffffffffffffffffffffffffffffff16815260200191505060405180910390f35b3480156107ba57600080fd5b506107e7600480360360208110156107d157600080fd5b8101908080359060200190929190505050612008565b6040518082815260200191505060405180910390f35b34801561080957600080fd5b506108366004803603602081101561082057600080fd5b81019080803590602001909291905050506122f0565b005b34801561084457600080fd5b5061084d612814565b6040518082815260200191505060405180910390f35b34801561086f57600080fd5b50610878612821565b005b34801561088657600080fd5b506109126004803603606081101561089d57600080fd5b810190808035906020019092919080359060200190929190803590602001906401000000008111156108ce57600080fd5b8201836020820111156108e057600080fd5b8035906020019184602083028401116401000000008311171561090257600080fd5b909192939192939050505061298f565b005b34801561092057600080fd5b5061094d6004803603602081101561093757600080fd5b8101908080359060200190929190505050612df7565b6040518082815260200191505060405180910390f35b34801561096f57600080fd5b5061099c6004803603602081101561098657600080fd5b8101908080359060200190929190505050612e0f565b6040518082815260200191505060405180910390f35b3480156109be57600080fd5b506109eb600480360360208110156109d557600080fd5b8101908080359060200190929190505050612e27565b6040518082815260200191505060405180910390f35b348015610a0d57600080fd5b50610a3a60048036036020811015610a2457600080fd5b8101908080359060200190929190505050612e3f565b6040518082815260200191505060405180910390f35b348015610a5c57600080fd5b50610a8960048036036020811015610a7357600080fd5b8101908080359060200190929190505050612e57565b6040518082815260200191505060405180910390f35b348015610aab57600080fd5b50610ab4612e6f565b604051808273ffffffffffffffffffffffffffffffffffffffff1673ffffffffffffffffffffffffffffffffffffffff16815260200191505060405180910390f35b348015610b0257600080fd5b50610b4f60048036036040811015610b1957600080fd5b8101908080359060200190929190803573ffffffffffffffffffffffffffffffffffffffff169060200190929190505050612e98565b60405180878152602001868152602001858152602001848152602001838152602001828152602001965050505050505060405180910390f35b348015610b9457600080fd5b50610bc160048036036020811015610bab57600080fd5b8101908080359060200190929190505050612ee1565b604051808381526020018281526020019250505060405180910390f35b348015610bea57600080fd5b50610c1760048036036020811015610c0157600080fd5b8101908080359060200190929190505050612f20565b6040518082815260200191505060405180910390f35b348015610c3957600080fd5b50610c6660048036036020811015610c5057600080fd5b8101908080359060200190929190505050612f38565b604051808381526020018281526020019250505060405180910390f35b348015610c8f57600080fd5b50610cbc60048036036020811015610ca657600080fd5b8101908080359060200190929190505050612f69565b005b348015610cca57600080fd5b50610cf760048036036020811015610ce157600080fd5b8101908080359060200190929190505050613213565b6040518082815260200191505060405180910390f35b348015610d1957600080fd5b50610daf60048036036080811015610d3057600080fd5b8101908080359060200190929190803590602001909291908035906020019092919080359060200190640100000000811115610d6b57600080fd5b820183602082011115610d7d57600080fd5b80359060200191846020830284011164010000000083111715610d9f57600080fd5b909192939192939050505061322b565b005b348015610dbd57600080fd5b50610dea60048036036020811015610dd457600080fd5b81019080803590602001909291905050506139c4565b604051808215151515815260200191505060405180910390f35b348015610e1057600080fd5b50610e196139e4565b6040518082815260200191505060405180910390f35b348015610e3b57600080fd5b50610e446139ea565b604051808273ffffffffffffffffffffffffffffffffffffffff1673ffffffffffffffffffffffffffffffffffffffff16815260200191505060405180910390f35b348015610e9257600080fd5b50610edf60048036036040811015610ea957600080fd5b8101908080359060200190929190803573ffffffffffffffffffffffffffffffffffffffff169060200190929190505050613a10565b6040518082815260200191505060405180910390f35b348015610f0157600080fd5b50610f2e60048036036020811015610f1857600080fd5b8101908080359060200190929190505050613d37565b6040518082815260200191505060405180910390f35b348015610f5057600080fd5b50610f9360048036036020811015610f6757600080fd5b81019080803573ffffffffffffffffffffffffffffffffffffffff169060200190929190505050613d4f565b005b348015610fa157600080fd5b50610fce60048036036020811015610fb857600080fd5b8101908080359060200190929190505050613f63565b6040518082815260200191505060405180910390f35b348015610ff057600080fd5b50611045600480360360a081101561100757600080fd5b810190808035906020019092919080359060200190929190803590602001909291908035906020019092919080359060200190929190505050613f7b565b005b34801561105357600080fd5b506110966004803603602081101561106a57600080fd5b81019080803573ffffffffffffffffffffffffffffffffffffffff16906020019092919050505061440e565b005b3480156110a457600080fd5b5061114e60048036036101208110156110bc57600080fd5b81019080803573ffffffffffffffffffffffffffffffffffffffff169060200190929190803573ffffffffffffffffffffffffffffffffffffffff16906020019092919080359060200190929190803590602001909291908035906020019092919080359060200190929190803590602001909291908035906020019092919080359060200190929190505050614601565b005b60116020528060005260406000206000915090505481565b600260015414156111e1576040517f08c379a000000000000000000000000000000000000000000000000000000000815260040180806020018281038252601f8152602001807f5265656e7472616e637947756172643a207265656e7472616e742063616c6c0081525060200191505060405180910390fd5b60026001819055506006805490508210611263576040517f08c379a000000000000000000000000000000000000000000000000000000000815260040180806020018281038252601d8152602001807f66756e64537562736372697074696f6e3a20496e76616c69642050494400000081525060200191505060405180910390fd5b60006006838154811061127257fe5b90600052602060002090600c0201905060006017600085815260200190815260200160002060003373ffffffffffffffffffffffffffffffffffffffff1673ffffffffffffffffffffffffffffffffffffffff16815260200190815260200160002090506000816002015411806112ed575060008160030154115b61135f576040517f08c379a00000000000000000000000000000000000000000000000000000000081526004018080602001828103825260208152602001807f66756e64537562736372697074696f6e3a206e6f74207375627363726962656481525060200191505060405180910390fd5b60008160010154146113bc576040517f08c379a00000000000000000000000000000000000000000000000000000000081526004018080602001828103825260338152602001806158eb6033913960400191505060405180910390fd5b81600301544211611418576040517f08c379a000000000000000000000000000000000000000000000000000000000815260040180806020018281038252603481526020018061591e6034913960400191505060405180910390fd5b8160040154421115611475576040517f08c379a000000000000000000000000000000000000000000000000000000000815260040180806020018281038252603f815260200180615b5d603f913960400191505060405180910390fd5b600061148085612008565b9050600081116114db576040517f08c379a00000000000000000000000000000000000000000000000000000000081526004018080602001828103825260368152602001806159ae6036913960400191505060405180910390fd5b600073ffffffffffffffffffffffffffffffffffffffff168360010160009054906101000a900473ffffffffffffffffffffffffffffffffffffffff1673ffffffffffffffffffffffffffffffffffffffff161415611630578034111561158d576040517f08c379a0000000000000000000000000000000000000000000000000000000008152600401808060200182810382526029815260200180615b346029913960400191505060405180910390fd5b8334146115e5576040517f08c379a0000000000000000000000000000000000000000000000000000000008152600401808060200182810382526023815260200180615ca96023913960400191505060405180910390fd5b61160b346011600088815260200190815260200160002054614ad290919063ffffffff16565b6011600087815260200190815260200160002081905550348260010181905550611805565b80841115611689576040517f08c379a000000000000000000000000000000000000000000000000000000000815260040180806020018281038252602a815260200180615bd7602a913960400191505060405180910390fd5b6116da3330868660010160009054906101000a900473ffffffffffffffffffffffffffffffffffffffff1673ffffffffffffffffffffffffffffffffffffffff16614b5a909392919063ffffffff16565b838260010181905550611709846011600088815260200190815260200160002054614ad290919063ffffffff16565b601160008781526020019081526020016000208190555060008260030154111561180457611753846012600088815260200190815260200160002054614ad290919063ffffffff16565b6012600087815260200190815260200160002081905550600260009054906101000a900473ffffffffffffffffffffffffffffffffffffffff1673ffffffffffffffffffffffffffffffffffffffff166370a23d9b8360040154866040518363ffffffff1660e01b81526004018083815260200182815260200192505050600060405180830381600087803b1580156117eb57600080fd5b505af11580156117ff573d6000803e3d6000fd5b505050505b5b843373ffffffffffffffffffffffffffffffffffffffff167fb3abbf202f180f33d8c665604028b8c2bc6db0b430eee642e6a87c332ba9df3a866040518082815260200191505060405180910390a3505050600180819055505050565b61186a614c47565b73ffffffffffffffffffffffffffffffffffffffff16611888612e6f565b73ffffffffffffffffffffffffffffffffffffffff1614611911576040517f08c379a00000000000000000000000000000000000000000000000000000000081526004018080602001828103825260208152602001807f4f776e61626c653a2063616c6c6572206973206e6f7420746865206f776e657281525060200191505060405180910390fd5b6004819080600181540180825580915050600190039060005260206000200160009091909190916101000a81548173ffffffffffffffffffffffffffffffffffffffff021916908373ffffffffffffffffffffffffffffffffffffffff16021790555050565b6006818154811061198457fe5b90600052602060002090600c02016000915090508060000160009054906101000a900473ffffffffffffffffffffffffffffffffffffffff16908060010160009054906101000a900473ffffffffffffffffffffffffffffffffffffffff169080600201549080600301549080600401549080600501549080600601549080600701549080600801549080600901549080600a01549080600b015490508c565b611a2c614c47565b73ffffffffffffffffffffffffffffffffffffffff16611a4a612e6f565b73ffffffffffffffffffffffffffffffffffffffff1614611ad3576040517f08c379a00000000000000000000000000000000000000000000000000000000081526004018080602001828103825260208152602001807f4f776e61626c653a2063616c6c6572206973206e6f7420746865206f776e657281525060200191505060405180910390fd5b8060188190555050565b60006006805490508310611b59576040517f08c379a000000000000000000000000000000000000000000000000000000000815260040180806020018281038252601c8152602001807f70656e64696e67526577617264733a20696e76616c6964205f7069640000000081525060200191505060405180910390fd5b611b616156c1565b6017600085815260200190815260200160002060008473ffffffffffffffffffffffffffffffffffffffff1673ffffffffffffffffffffffffffffffffffffffff1681526020019081526020016000206040518060c001604052908160008201548152602001600182015481526020016002820154815260200160038201548152602001600482015481526020016005820154815250509050600081602001511415611c11576000915050611d8c565b611c196156f7565b60068581548110611c2657fe5b90600052602060002090600c0201604051806101800160405290816000820160009054906101000a900473ffffffffffffffffffffffffffffffffffffffff1673ffffffffffffffffffffffffffffffffffffffff1673ffffffffffffffffffffffffffffffffffffffff1681526020016001820160009054906101000a900473ffffffffffffffffffffffffffffffffffffffff1673ffffffffffffffffffffffffffffffffffffffff1673ffffffffffffffffffffffffffffffffffffffff1681526020016002820154815260200160038201548152602001600482015481526020016005820154815260200160068201548152602001600782015481526020016008820154815260200160098201548152602001600a8201548152602001600b820154815250509050611d87670de0b6b3a7640000611d798360c001518560200151614c4f90919063ffffffff16565b614cd890919063ffffffff16565b925050505b92915050565b600360009054906101000a900473ffffffffffffffffffffffffffffffffffffffff1681565b6000611dc26156f7565b60068381548110611dcf57fe5b90600052602060002090600c0201604051806101800160405290816000820160009054906101000a900473ffffffffffffffffffffffffffffffffffffffff1673ffffffffffffffffffffffffffffffffffffffff1673ffffffffffffffffffffffffffffffffffffffff1681526020016001820160009054906101000a900473ffffffffffffffffffffffffffffffffffffffff1673ffffffffffffffffffffffffffffffffffffffff1673ffffffffffffffffffffffffffffffffffffffff1681526020016002820154815260200160038201548152602001600482015481526020016005820154815260200160068201548152602001600782015481526020016008820154815260200160098201548152602001600a8201548152602001600b820154815250509050611f3f670de0b6b3a7640000611f318360c001516011600088815260200190815260200160002054614cd890919063ffffffff16565b614c4f90919063ffffffff16565b915050919050565b60146020528060005260406000206000915090505481565b60086020528060005260406000206000915090505481565b60136020528060005260406000206000915090505481565b600c6020528060005260406000206000915090505481565b68056bc75e2d6310000081565b600a6020528060005260406000206000915090505481565b60048181548110611fd957fe5b906000526020600020016000915054906101000a900473ffffffffffffffffffffffffffffffffffffffff1681565b60006006805490508210612084576040517f08c379a000000000000000000000000000000000000000000000000000000000815260040180806020018281038252601d8152602001807f67657446756e64696e67416d6f756e743a20496e76616c69642050494400000081525060200191505060405180910390fd5b61208c6156f7565b6006838154811061209957fe5b90600052602060002090600c0201604051806101800160405290816000820160009054906101000a900473ffffffffffffffffffffffffffffffffffffffff1673ffffffffffffffffffffffffffffffffffffffff1673ffffffffffffffffffffffffffffffffffffffff1681526020016001820160009054906101000a900473ffffffffffffffffffffffffffffffffffffffff1673ffffffffffffffffffffffffffffffffffffffff1673ffffffffffffffffffffffffffffffffffffffff1681526020016002820154815260200160038201548152602001600482015481526020016005820154815260200160068201548152602001600782015481526020016008820154815260200160098201548152602001600a8201548152602001600b8201548152505090506121cd6156c1565b6017600085815260200190815260200160002060003373ffffffffffffffffffffffffffffffffffffffff1673ffffffffffffffffffffffffffffffffffffffff1681526020019081526020016000206040518060c001604052908160008201548152602001600182015481526020016002820154815260200160038201548152602001600482015481526020016005820154815250509050600081606001511115612281578060600151925050506122eb565b60006122d260146000878152602001908152602001600020546122c460136000898152602001908152602001600020548660a00151614d5e90919063ffffffff16565b614c4f90919063ffffffff16565b9050606482604001518202816122e457fe5b0493505050505b919050565b60026001541415612369576040517f08c379a000000000000000000000000000000000000000000000000000000000815260040180806020018281038252601f8152602001807f5265656e7472616e637947756172643a207265656e7472616e742063616c6c0081525060200191505060405180910390fd5b6002600181905550612379614c47565b73ffffffffffffffffffffffffffffffffffffffff16612397612e6f565b73ffffffffffffffffffffffffffffffffffffffff1614612420576040517f08c379a00000000000000000000000000000000000000000000000000000000081526004018080602001828103825260208152602001807f4f776e61626c653a2063616c6c6572206973206e6f7420746865206f776e657281525060200191505060405180910390fd5b600680549050811061249a576040517f08c379a000000000000000000000000000000000000000000000000000000000815260040180806020018281038252601e8152602001807f636c61696d46756e6452616973696e673a20696e76616c6964205f706964000081525060200191505060405180910390fd5b6000600682815481106124a957fe5b90600052602060002090600c02019050600081600901541415612517576040517f08c379a0000000000000000000000000000000000000000000000000000000008152600401808060200182810382526026815260200180615abe6026913960400191505060405180910390fd5b600015156016600084815260200190815260200160002060009054906101000a900460ff16151514612594576040517f08c379a00000000000000000000000000000000000000000000000000000000081526004018080602001828103825260278152602001806158346027913960400191505060405180910390fd5b60016016600084815260200190815260200160002060006101000a81548160ff021916908315150217905550600073ffffffffffffffffffffffffffffffffffffffff168160010160009054906101000a900473ffffffffffffffffffffffffffffffffffffffff1673ffffffffffffffffffffffffffffffffffffffff16141561269e57612621612e6f565b73ffffffffffffffffffffffffffffffffffffffff16601160008481526020019081526020016000205460405180600001905060006040518083038185875af1925050503d8060008114612691576040519150601f19603f3d011682016040523d82523d6000602084013e612696565b606091505b5050506127a0565b8060010160009054906101000a900473ffffffffffffffffffffffffffffffffffffffff1673ffffffffffffffffffffffffffffffffffffffff1663a9059cbb6126e6612e6f565b60116000868152602001908152602001600020546040518363ffffffff1660e01b8152600401808373ffffffffffffffffffffffffffffffffffffffff1673ffffffffffffffffffffffffffffffffffffffff16815260200182815260200192505050602060405180830381600087803b15801561276357600080fd5b505af1158015612777573d6000803e3d6000fd5b505050506040513d602081101561278d57600080fd5b8101908080519060200190929190505050505b6127a8612e6f565b73ffffffffffffffffffffffffffffffffffffffff16827f90b6b0d5b4b6169cc45fd20c2536a9d57c31e428447bd18963c0210541a8708960116000868152602001908152602001600020546040518082815260200191505060405180910390a3506001808190555050565b6000600680549050905090565b612829614c47565b73ffffffffffffffffffffffffffffffffffffffff16612847612e6f565b73ffffffffffffffffffffffffffffffffffffffff16146128d0576040517f08c379a00000000000000000000000000000000000000000000000000000000081526004018080602001828103825260208152602001807f4f776e61626c653a2063616c6c6572206973206e6f7420746865206f776e657281525060200191505060405180910390fd5b600073ffffffffffffffffffffffffffffffffffffffff166000809054906101000a900473ffffffffffffffffffffffffffffffffffffffff1673ffffffffffffffffffffffffffffffffffffffff167f8be0079c531659141344cd1fd0a4f28419497f9722a3daafe3b4186f6b6457e060405160405180910390a360008060006101000a81548173ffffffffffffffffffffffffffffffffffffffff021916908373ffffffffffffffffffffffffffffffffffffffff160217905550565b60026001541415612a08576040517f08c379a000000000000000000000000000000000000000000000000000000000815260040180806020018281038252601f8152602001807f5265656e7472616e637947756172643a207265656e7472616e742063616c6c0081525060200191505060405180910390fd5b60026001819055506006805490508410612a8a576040517f08c379a00000000000000000000000000000000000000000000000000000000081526004018080602001828103825260168152602001807f7375627363726962653a20496e76616c6964205049440000000000000000000081525060200191505060405180910390fd5b600060068581548110612a9957fe5b90600052602060002090600c0201905060006017600087815260200190815260200160002060003373ffffffffffffffffffffffffffffffffffffffff1673ffffffffffffffffffffffffffffffffffffffff16815260200190815260200160002090508160020154421015612b5a576040517f08c379a0000000000000000000000000000000000000000000000000000000008152600401808060200182810382526023815260200180615c016023913960400191505060405180910390fd5b8160030154421115612bb7576040517f08c379a000000000000000000000000000000000000000000000000000000000815260040180806020018281038252602b8152602001806159e4602b913960400191505060405180910390fd5b60008533604051602001808381526020018273ffffffffffffffffffffffffffffffffffffffff1673ffffffffffffffffffffffffffffffffffffffff1660601b815260140192505050604051602081830303815290604052805190602001209050612c67858580806020026020016040519081016040528093929190818152602001838360200280828437600081840152601f19601f8201169050808301925050505050505060185483614de1565b612cd9576040517f08c379a00000000000000000000000000000000000000000000000000000000081526004018080602001828103825260198152602001807f7375627363726962653a20496e76616c69642070726f6f662e0000000000000081525060200191505060405180910390fd5b6000612ce433614e99565b905060008111612d5c576040517f08c379a000000000000000000000000000000000000000000000000000000000815260040180806020018281038252601f8152602001807f7375627363726962653a206e6f742073756666696369656e742073636f72650081525060200191505060405180910390fd5b808360020181905550612d8b81601460008b815260200190815260200160002054614ad290919063ffffffff16565b601460008a815260200190815260200160002081905550873373ffffffffffffffffffffffffffffffffffffffff167f6d9501d4c8596b2602660e3aa7db27655be4177db6b3d3eddaefedd8c631fa7160405160405180910390a3505050506001808190555050505050565b60076020528060005260406000206000915090505481565b600b6020528060005260406000206000915090505481565b60156020528060005260406000206000915090505481565b60106020528060005260406000206000915090505481565b600f6020528060005260406000206000915090505481565b60008060009054906101000a900473ffffffffffffffffffffffffffffffffffffffff16905090565b6017602052816000526040600020602052806000526040600020600091509150508060000154908060010154908060020154908060030154908060040154908060050154905086565b600080601160008481526020019081526020016000205460068481548110612f0557fe5b90600052602060002090600c02016005015491509150915091565b60126020528060005260406000206000915090505481565b60198181548110612f4557fe5b90600052602060002090600202016000915090508060000154908060010154905082565b60026001541415612fe2576040517f08c379a000000000000000000000000000000000000000000000000000000000815260040180806020018281038252601f8152602001807f5265656e7472616e637947756172643a207265656e7472616e742063616c6c0081525060200191505060405180910390fd5b6002600181905550600060068281548110612ff957fe5b90600052602060002090600c0201905080600a0154421015613083576040517f08c379a000000000000000000000000000000000000000000000000000000000815260040180806020018281038252601b8152602001807f636c61696d5265776172643a204e6f74207061737420636c696666000000000081525060200191505060405180910390fd5b60006017600084815260200190815260200160002060003373ffffffffffffffffffffffffffffffffffffffff1673ffffffffffffffffffffffffffffffffffffffff16815260200190815260200160002090506000816001015411613151576040517f08c379a00000000000000000000000000000000000000000000000000000000081526004018080602001828103825260178152602001807f636c61696d5265776172643a204e6f742066756e64656400000000000000000081525060200191505060405180910390fd5b600061315d8433613a10565b905060008111156132065761317f818360050154614ad290919063ffffffff16565b82600501819055506131b68360000160009054906101000a900473ffffffffffffffffffffffffffffffffffffffff163383615054565b833373ffffffffffffffffffffffffffffffffffffffff167ff01da32686223933d8a18a391060918c7f11a3648639edd87ae013e2e2731743836040518082815260200191505060405180910390a35b5050506001808190555050565b600e6020528060005260406000206000915090505481565b600260015414156132a4576040517f08c379a000000000000000000000000000000000000000000000000000000000815260040180806020018281038252601f8152602001807f5265656e7472616e637947756172643a207265656e7472616e742063616c6c0081525060200191505060405180910390fd5b60026001819055506006805490508510613309576040517f08c379a0000000000000000000000000000000000000000000000000000000008152600401808060200182810382526024815260200180615b106024913960400191505060405180910390fd5b60006006868154811061331857fe5b90600052602060002090600c0201905060006017600088815260200190815260200160002060003373ffffffffffffffffffffffffffffffffffffffff1673ffffffffffffffffffffffffffffffffffffffff168152602001908152602001600020905060008160030154146133d9576040517f08c379a000000000000000000000000000000000000000000000000000000000815260040180806020018281038252603c815260200180615a61603c913960400191505060405180910390fd5b600073ffffffffffffffffffffffffffffffffffffffff168260010160009054906101000a900473ffffffffffffffffffffffffffffffffffffffff1673ffffffffffffffffffffffffffffffffffffffff161415613483576040517f08c379a000000000000000000000000000000000000000000000000000000000815260040180806020018281038252605b815260200180615c24605b913960600191505060405180910390fd5b81600801546013600089815260200190815260200160002054106134f2576040517f08c379a000000000000000000000000000000000000000000000000000000000815260040180806020018281038252603e81526020018061579f603e913960400191505060405180910390fd5b816002015442101561354f576040517f08c379a0000000000000000000000000000000000000000000000000000000008152600401808060200182810382526023815260200180615c016023913960400191505060405180910390fd5b81600301544211156135ac576040517f08c379a000000000000000000000000000000000000000000000000000000000815260040180806020018281038252602b8152602001806159e4602b913960400191505060405180910390fd5b60008533604051602001808381526020018273ffffffffffffffffffffffffffffffffffffffff1673ffffffffffffffffffffffffffffffffffffffff1660601b81526014019250505060405160208183030381529060405280519060200120905061365c858580806020026020016040519081016040528093929190818152602001838360200280828437600081840152601f19601f8201169050808301925050505050505060185483614de1565b6136ce576040517f08c379a00000000000000000000000000000000000000000000000000000000081526004018080602001828103825260198152602001807f7375627363726962653a20496e76616c69642070726f6f662e0000000000000081525060200191505060405180910390fd5b3373ffffffffffffffffffffffffffffffffffffffff16600260009054906101000a900473ffffffffffffffffffffffffffffffffffffffff1673ffffffffffffffffffffffffffffffffffffffff16636352211e896040518263ffffffff1660e01b81526004018082815260200191505060206040518083038186803b15801561375857600080fd5b505afa15801561376c573d6000803e3d6000fd5b505050506040513d602081101561378257600080fd5b810190808051906020019092919050505073ffffffffffffffffffffffffffffffffffffffff16146137ff576040517f08c379a000000000000000000000000000000000000000000000000000000000815260040180806020018281038252602b815260200180615809602b913960400191505060405180910390fd5b6000600260009054906101000a900473ffffffffffffffffffffffffffffffffffffffff1673ffffffffffffffffffffffffffffffffffffffff1663bee5493b896040518263ffffffff1660e01b81526004018082815260200191505060206040518083038186803b15801561387457600080fd5b505afa158015613888573d6000803e3d6000fd5b505050506040513d602081101561389e57600080fd5b8101908080519060200190929190505050905060006138dd601360008c8152602001908152602001600020548660080154614d5e90919063ffffffff16565b9050846007015482116138f057816138f6565b84600701545b84600301819055508084600301541115613914578084600301819055505b8884600401819055506139478460030154601360008d815260200190815260200160002054614ad290919063ffffffff16565b601360008c815260200190815260200160002081905550893373ffffffffffffffffffffffffffffffffffffffff167f81e940651c9155c6e9e01df016cafae56e85bf92c3250d703a6a3dc79911dfb486600301546040518082815260200191505060405180910390a35050505050600180819055505050505050565b60166020528060005260406000206000915054906101000a900460ff1681565b60185481565b600560009054906101000a900473ffffffffffffffffffffffffffffffffffffffff1681565b60006006805490508310613a8c576040517f08c379a000000000000000000000000000000000000000000000000000000000815260040180806020018281038252601c8152602001807f70656e64696e67526577617264733a20696e76616c6964205f7069640000000081525060200191505060405180910390fd5b613a946156c1565b6017600085815260200190815260200160002060008473ffffffffffffffffffffffffffffffffffffffff1673ffffffffffffffffffffffffffffffffffffffff1681526020019081526020016000206040518060c001604052908160008201548152602001600182015481526020016002820154815260200160038201548152602001600482015481526020016005820154815250509050600081602001511415613b44576000915050613d31565b613b4c6156f7565b60068581548110613b5957fe5b90600052602060002090600c0201604051806101800160405290816000820160009054906101000a900473ffffffffffffffffffffffffffffffffffffffff1673ffffffffffffffffffffffffffffffffffffffff1673ffffffffffffffffffffffffffffffffffffffff1681526020016001820160009054906101000a900473ffffffffffffffffffffffffffffffffffffffff1673ffffffffffffffffffffffffffffffffffffffff1673ffffffffffffffffffffffffffffffffffffffff1681526020016002820154815260200160038201548152602001600482015481526020016005820154815260200160068201548152602001600782015481526020016008820154815260200160098201548152602001600a8201548152602001600b820154815250509050428161012001511115613c9d57600092505050613d31565b6000613cbc826101200151836101600151614d5e90919063ffffffff16565b90506000613cca8787611add565b90506000613ce18383614c4f90919063ffffffff16565b90506000613d0f82613d0187610120015142614d5e90919063ffffffff16565b614cd890919063ffffffff16565b9050613d288660a0015182614d5e90919063ffffffff16565b96505050505050505b92915050565b60096020528060005260406000206000915090505481565b613d57614c47565b73ffffffffffffffffffffffffffffffffffffffff16613d75612e6f565b73ffffffffffffffffffffffffffffffffffffffff1614613dfe576040517f08c379a00000000000000000000000000000000000000000000000000000000081526004018080602001828103825260208152602001807f4f776e61626c653a2063616c6c6572206973206e6f7420746865206f776e657281525060200191505060405180910390fd5b60008090505b600480549050811015613f5f578173ffffffffffffffffffffffffffffffffffffffff1660048281548110613e3557fe5b9060005260206000200160009054906101000a900473ffffffffffffffffffffffffffffffffffffffff1673ffffffffffffffffffffffffffffffffffffffff161415613f5257600460016004805490500381548110613e9157fe5b9060005260206000200160009054906101000a900473ffffffffffffffffffffffffffffffffffffffff1660048281548110613ec957fe5b9060005260206000200160006101000a81548173ffffffffffffffffffffffffffffffffffffffff021916908373ffffffffffffffffffffffffffffffffffffffff1602179055506004805480613f1c57fe5b6001900381819060005260206000200160006101000a81549073ffffffffffffffffffffffffffffffffffffffff021916905590555b8080600101915050613e04565b5050565b600d6020528060005260406000206000915090505481565b60026001541415613ff4576040517f08c379a000000000000000000000000000000000000000000000000000000000815260040180806020018281038252601f8152602001807f5265656e7472616e637947756172643a207265656e7472616e742063616c6c0081525060200191505060405180910390fd5b6002600181905550614004614c47565b73ffffffffffffffffffffffffffffffffffffffff16614022612e6f565b73ffffffffffffffffffffffffffffffffffffffff16146140ab576040517f08c379a00000000000000000000000000000000000000000000000000000000081526004018080602001828103825260208152602001807f4f776e61626c653a2063616c6c6572206973206e6f7420746865206f776e657281525060200191505060405180910390fd5b6006805490508510614125576040517f08c379a00000000000000000000000000000000000000000000000000000000081526004018080602001828103825260208152602001807f736574757056657374696e67526577617264733a20496e76616c69642050494481525060200191505060405180910390fd5b42831161417d576040517f08c379a000000000000000000000000000000000000000000000000000000000815260040180806020018281038252602c815260200180615ae4602c913960400191505060405180910390fd5b828210156141d6576040517f08c379a000000000000000000000000000000000000000000000000000000000815260040180806020018281038252603f815260200180615881603f913960400191505060405180910390fd5b81811161422e576040517f08c379a00000000000000000000000000000000000000000000000000000000081526004018080602001828103825260368152602001806159526036913960400191505060405180910390fd5b60006006868154811061423d57fe5b90600052602060002090600c02019050806004015442116142a9576040517f08c379a000000000000000000000000000000000000000000000000000000000815260040180806020018281038252602c8152602001806157dd602c913960400191505060405180910390fd5b6142b286611db8565b8514614309576040517f08c379a0000000000000000000000000000000000000000000000000000000008152600401808060200182810382526031815260200180615a0f6031913960400191505060405180910390fd5b600061431e8584614d5e90919063ffffffff16565b90508482600901819055508382600a01819055508282600b01819055506143ae33600560009054906101000a900473ffffffffffffffffffffffffffffffffffffffff16888560000160009054906101000a900473ffffffffffffffffffffffffffffffffffffffff1673ffffffffffffffffffffffffffffffffffffffff16614b5a909392919063ffffffff16565b867f8045337d628acd774b68bb9b6c640b898e7fda0d005613ad8828aff4ba41d762878787876040518085815260200184815260200183815260200182815260200194505050505060405180910390a25050600180819055505050505050565b614416614c47565b73ffffffffffffffffffffffffffffffffffffffff16614434612e6f565b73ffffffffffffffffffffffffffffffffffffffff16146144bd576040517f08c379a00000000000000000000000000000000000000000000000000000000081526004018080602001828103825260208152602001807f4f776e61626c653a2063616c6c6572206973206e6f7420746865206f776e657281525060200191505060405180910390fd5b600073ffffffffffffffffffffffffffffffffffffffff168173ffffffffffffffffffffffffffffffffffffffff161415614543576040517f08c379a000000000000000000000000000000000000000000000000000000000815260040180806020018281038252602681526020018061585b6026913960400191505060405180910390fd5b8073ffffffffffffffffffffffffffffffffffffffff166000809054906101000a900473ffffffffffffffffffffffffffffffffffffffff1673ffffffffffffffffffffffffffffffffffffffff167f8be0079c531659141344cd1fd0a4f28419497f9722a3daafe3b4186f6b6457e060405160405180910390a3806000806101000a81548173ffffffffffffffffffffffffffffffffffffffff021916908373ffffffffffffffffffffffffffffffffffffffff16021790555050565b614609614c47565b73ffffffffffffffffffffffffffffffffffffffff16614627612e6f565b73ffffffffffffffffffffffffffffffffffffffff16146146b0576040517f08c379a00000000000000000000000000000000000000000000000000000000081526004018080602001828103825260208152602001807f4f776e61626c653a2063616c6c6572206973206e6f7420746865206f776e657281525060200191505060405180910390fd5b6000899050600073ffffffffffffffffffffffffffffffffffffffff168173ffffffffffffffffffffffffffffffffffffffff16141561473b576040517f08c379a0000000000000000000000000000000000000000000000000000000008152600401808060200182810382526021815260200180615a406021913960400191505060405180910390fd5b6000899050878910614798576040517f08c379a000000000000000000000000000000000000000000000000000000000815260040180806020018281038252603b815260200180615b9c603b913960400191505060405180910390fd5b8688106147f0576040517f08c379a000000000000000000000000000000000000000000000000000000000815260040180806020018281038252602b8152602001806158c0602b913960400191505060405180910390fd5b60008611614866576040517f08c379a00000000000000000000000000000000000000000000000000000000081526004018080602001828103825260198152602001807f6164643a20496e76616c696420726169736520616d6f756e740000000000000081525060200191505060405180910390fd5b600085116148dc576040517f08c379a00000000000000000000000000000000000000000000000000000000081526004018080602001828103825260198152602001807f6164643a20496e76616c696420707269636520616d6f756e740000000000000081525060200191505060405180910390fd5b60066040518061018001604052808d73ffffffffffffffffffffffffffffffffffffffff1681526020018c73ffffffffffffffffffffffffffffffffffffffff1681526020018b81526020018a81526020018981526020018881526020018781526020018681526020018581526020016000815260200160008152602001600081525090806001815401808255809150506001900390600052602060002090600c020160009091909190915060008201518160000160006101000a81548173ffffffffffffffffffffffffffffffffffffffff021916908373ffffffffffffffffffffffffffffffffffffffff16021790555060208201518160010160006101000a81548173ffffffffffffffffffffffffffffffffffffffff021916908373ffffffffffffffffffffffffffffffffffffffff16021790555060408201518160020155606082015181600301556080820151816004015560a0820151816005015560c0820151816006015560e082015181600701556101008201518160080155610120820151816009015561014082015181600a015561016082015181600b01555050614a996001600680549050614d5e90919063ffffffff16565b7f522b283dfad3650433b41164a9379b13dc60bbf24676affdc6a33c84dd3ac15d60405160405180910390a25050505050505050505050565b600080828401905083811015614b50576040517f08c379a000000000000000000000000000000000000000000000000000000000815260040180806020018281038252601b8152602001807f536166654d6174683a206164646974696f6e206f766572666c6f77000000000081525060200191505060405180910390fd5b8091505092915050565b614c41846323b872dd60e01b858585604051602401808473ffffffffffffffffffffffffffffffffffffffff1673ffffffffffffffffffffffffffffffffffffffff1681526020018373ffffffffffffffffffffffffffffffffffffffff1673ffffffffffffffffffffffffffffffffffffffff1681526020018281526020019350505050604051602081830303815290604052907bffffffffffffffffffffffffffffffffffffffffffffffffffffffff19166020820180517bffffffffffffffffffffffffffffffffffffffffffffffffffffffff8381831617835250505050615332565b50505050565b600033905090565b6000808211614cc6576040517f08c379a000000000000000000000000000000000000000000000000000000000815260040180806020018281038252601a8152602001807f536166654d6174683a206469766973696f6e206279207a65726f00000000000081525060200191505060405180910390fd5b818381614ccf57fe5b04905092915050565b600080831415614ceb5760009050614d58565b6000828402905082848281614cfc57fe5b0414614d53576040517f08c379a0000000000000000000000000000000000000000000000000000000008152600401808060200182810382526021815260200180615a9d6021913960400191505060405180910390fd5b809150505b92915050565b600082821115614dd6576040517f08c379a000000000000000000000000000000000000000000000000000000000815260040180806020018281038252601e8152602001807f536166654d6174683a207375627472616374696f6e206f766572666c6f77000081525060200191505060405180910390fd5b818303905092915050565b60008082905060008090505b8551811015614e8b576000868281518110614e0457fe5b60200260200101519050808311614e4b5782816040516020018083815260200182815260200192505050604051602081830303815290604052805190602001209250614e7d565b808360405160200180838152602001828152602001925050506040516020818303038152906040528051906020012092505b508080600101915050614ded565b508381149150509392505050565b600080600080905060008090505b600480549050811015614fc457614fb560048281548110614ec457fe5b9060005260206000200160009054906101000a900473ffffffffffffffffffffffffffffffffffffffff1673ffffffffffffffffffffffffffffffffffffffff1663b34e0c47876040518263ffffffff1660e01b8152600401808273ffffffffffffffffffffffffffffffffffffffff1673ffffffffffffffffffffffffffffffffffffffff16815260200191505060206040518083038186803b158015614f6b57600080fd5b505afa158015614f7f573d6000803e3d6000fd5b505050506040513d6020811015614f9557600080fd5b810190808051906020019092919050505084614ad290919063ffffffff16565b92508080600101915050614ea7565b5060008090505b60016019805490500381101561504857614fe3615784565b60198281548110614ff057fe5b90600052602060002090600202016040518060400160405290816000820154815260200160018201548152505090508060000151841061503a57806020015194505050505061504f565b508080600101915050614fcb565b5080925050505b919050565b6000600560009054906101000a900473ffffffffffffffffffffffffffffffffffffffff1673ffffffffffffffffffffffffffffffffffffffff1663eedc966a856040518263ffffffff1660e01b8152600401808273ffffffffffffffffffffffffffffffffffffffff1673ffffffffffffffffffffffffffffffffffffffff168152602001915050602060405180830381600087803b1580156150f757600080fd5b505af115801561510b573d6000803e3d6000fd5b505050506040513d602081101561512157600080fd5b810190808051906020019092919050505090508082111561523657600560009054906101000a900473ffffffffffffffffffffffffffffffffffffffff1673ffffffffffffffffffffffffffffffffffffffff1663c3b35a7e8585846040518463ffffffff1660e01b8152600401808473ffffffffffffffffffffffffffffffffffffffff1673ffffffffffffffffffffffffffffffffffffffff1681526020018373ffffffffffffffffffffffffffffffffffffffff1673ffffffffffffffffffffffffffffffffffffffff1681526020018281526020019350505050600060405180830381600087803b15801561521957600080fd5b505af115801561522d573d6000803e3d6000fd5b5050505061532c565b600560009054906101000a900473ffffffffffffffffffffffffffffffffffffffff1673ffffffffffffffffffffffffffffffffffffffff1663c3b35a7e8585856040518463ffffffff1660e01b8152600401808473ffffffffffffffffffffffffffffffffffffffff1673ffffffffffffffffffffffffffffffffffffffff1681526020018373ffffffffffffffffffffffffffffffffffffffff1673ffffffffffffffffffffffffffffffffffffffff1681526020018281526020019350505050600060405180830381600087803b15801561531357600080fd5b505af1158015615327573d6000803e3d6000fd5b505050505b50505050565b6060615394826040518060400160405280602081526020017f5361666545524332303a206c6f772d6c6576656c2063616c6c206661696c65648152508573ffffffffffffffffffffffffffffffffffffffff166154219092919063ffffffff16565b905060008151111561541c578080602001905160208110156153b557600080fd5b810190808051906020019092919050505061541b576040517f08c379a000000000000000000000000000000000000000000000000000000000815260040180806020018281038252602a815260200180615c7f602a913960400191505060405180910390fd5b5b505050565b60606154308484600085615439565b90509392505050565b606082471015615494576040517f08c379a00000000000000000000000000000000000000000000000000000000081526004018080602001828103825260268152602001806159886026913960400191505060405180910390fd5b61549d856155e2565b61550f576040517f08c379a000000000000000000000000000000000000000000000000000000000815260040180806020018281038252601d8152602001807f416464726573733a2063616c6c20746f206e6f6e2d636f6e747261637400000081525060200191505060405180910390fd5b600060608673ffffffffffffffffffffffffffffffffffffffff1685876040518082805190602001908083835b6020831061555f578051825260208201915060208101905060208303925061553c565b6001836020036101000a03801982511681845116808217855250505050505090500191505060006040518083038185875af1925050503d80600081146155c1576040519150601f19603f3d011682016040523d82523d6000602084013e6155c6565b606091505b50915091506155d68282866155f5565b92505050949350505050565b600080823b905060008111915050919050565b60608315615605578290506156ba565b6000835111156156185782518084602001fd5b816040517f08c379a00000000000000000000000000000000000000000000000000000000081526004018080602001828103825283818151815260200191508051906020019080838360005b8381101561567f578082015181840152602081019050615664565b50505050905090810190601f1680156156ac5780820380516001836020036101000a031916815260200191505b509250505060405180910390fd5b9392505050565b6040518060c001604052806000815260200160008152602001600081526020016000815260200160008152602001600081525090565b604051806101800160405280600073ffffffffffffffffffffffffffffffffffffffff168152602001600073ffffffffffffffffffffffffffffffffffffffff168152602001600081526020016000815260200160008152602001600081526020016000815260200160008152602001600081526020016000815260200160008152602001600081525090565b60405180604001604052806000815260200160008152509056fe737562736372696265576974685574696c6974794e46543a2047756172616e7465656420616c6c6f636174696f6e73206f76657273756273637269626564736574757056657374696e67526577617264733a20557365727320617265207374696c6c2066756e64696e677375627363726962653a2054686973207574696c697479204e4654206964206973206e6f7420796f757273636c61696d46756e6452616973696e673a20416c726561647920636c61696d65642066756e64734f776e61626c653a206e6577206f776e657220697320746865207a65726f2061646472657373736574757056657374696e67526577617264733a20436c696666206d757374206265206166746572206f7220657175616c20746f2073746172742074696d656164643a207374616b696e6720656e64206d757374206265206265666f72652066756e64696e6720656e6466756e64537562736372697074696f6e3a205375627363726962652068617320616c7265616479206265656e2066756e64656466756e64537562736372697074696f6e3a20537562736372697074696f6e206973207374696c6c2074616b696e6720706c616365736574757056657374696e67526577617264733a20656e642074696d65206d75737420626520616674657220636c6966662074696d65416464726573733a20696e73756666696369656e742062616c616e636520666f722063616c6c66756e64537562736372697074696f6e3a206d757374206861766520706f73697469766520616c6c6f636174696f6e20616d6f756e747375627363726962653a20737562736372697074696f6e206e6f206c6f6e676572207065726d6974746564736574757056657374696e67526577617264733a2077726f6e672072657761726420616d6f756e742070726f76696465646164643a205f726577617264546f6b656e206973207a65726f2061646472657373737562736372696265576974685574696c6974794e46543a20616c726561647920737562736372696265642077697468207574696c697479206e6674536166654d6174683a206d756c7469706c69636174696f6e206f766572666c6f77636c61696d46756e6452616973696e673a2072657761726473206e6f74207965742073656e74736574757056657374696e67526577617264733a20737461727420626c6f636b20696e207468652070617374737562736372696265576974685574696c6974794e46543a20496e76616c69642050494466756e64537562736372697074696f6e3a20546f6f206d7563682076616c75652070726f766964656466756e64537562736372697074696f6e3a20446561646c696e65206861732070617373656420746f2066756e6420796f757220737562736372697074696f6e6164643a205f737562736372697074696f6e537461727454696d657374616d70206d757374206265206265666f7265207374616b696e6720656e6466756e64537562736372697074696f6e3a20546f6f206d616e7920746f6b656e732070726f76696465647375627363726962653a20737562736372697074696f6e206e6f742073746172746564737562736372696265576974685574696c6974794e46543a205574696c697479204e4654732063616e6e6f74206265207573656420666f72206e61746976652063727970746f63757272656e63792066756e642072616973696e675361666545524332303a204552433230206f7065726174696f6e20646964206e6f74207375636365656466756e64537562736372697074696f6e3a20496e636f727265637420616d6f756e7473a26469706673582212204baf988821fa3046f0ec5686904085569bbd705915d6514d618bf3aa10cb20a764736f6c63430006060033608060405234801561001057600080fd5b506040516108993803806108998339818101604052602081101561003357600080fd5b8101908080519060200190929190505050806000806101000a81548173ffffffffffffffffffffffffffffffffffffffff021916908373ffffffffffffffffffffffffffffffffffffffff16021790555050610805806100946000396000f3fe608060405234801561001057600080fd5b50600436106100415760003560e01c8063c3b35a7e14610046578063ee99205c146100b4578063eedc966a146100fe575b600080fd5b6100b26004803603606081101561005c57600080fd5b81019080803573ffffffffffffffffffffffffffffffffffffffff169060200190929190803573ffffffffffffffffffffffffffffffffffffffff16906020019092919080359060200190929190505050610156565b005b6100bc61022b565b604051808273ffffffffffffffffffffffffffffffffffffffff1673ffffffffffffffffffffffffffffffffffffffff16815260200191505060405180910390f35b6101406004803603602081101561011457600080fd5b81019080803573ffffffffffffffffffffffffffffffffffffffff169060200190929190505050610250565b6040518082815260200191505060405180910390f35b6000809054906101000a900473ffffffffffffffffffffffffffffffffffffffff1673ffffffffffffffffffffffffffffffffffffffff163373ffffffffffffffffffffffffffffffffffffffff16146101fb576040517f08c379a00000000000000000000000000000000000000000000000000000000081526004018080602001828103825260278152602001806107596027913960400191505060405180910390fd5b61022682828573ffffffffffffffffffffffffffffffffffffffff166103119092919063ffffffff16565b505050565b6000809054906101000a900473ffffffffffffffffffffffffffffffffffffffff1681565b60008173ffffffffffffffffffffffffffffffffffffffff166370a08231306040518263ffffffff1660e01b8152600401808273ffffffffffffffffffffffffffffffffffffffff1673ffffffffffffffffffffffffffffffffffffffff16815260200191505060206040518083038186803b1580156102cf57600080fd5b505afa1580156102e3573d6000803e3d6000fd5b505050506040513d60208110156102f957600080fd5b81019080805190602001909291905050509050919050565b6103c48363a9059cbb60e01b8484604051602401808373ffffffffffffffffffffffffffffffffffffffff1673ffffffffffffffffffffffffffffffffffffffff16815260200182815260200192505050604051602081830303815290604052907bffffffffffffffffffffffffffffffffffffffffffffffffffffffff19166020820180517bffffffffffffffffffffffffffffffffffffffffffffffffffffffff83818316178352505050506103c9565b505050565b606061042b826040518060400160405280602081526020017f5361666545524332303a206c6f772d6c6576656c2063616c6c206661696c65648152508573ffffffffffffffffffffffffffffffffffffffff166104b89092919063ffffffff16565b90506000815111156104b35780806020019051602081101561044c57600080fd5b81019080805190602001909291905050506104b2576040517f08c379a000000000000000000000000000000000000000000000000000000000815260040180806020018281038252602a8152602001806107a6602a913960400191505060405180910390fd5b5b505050565b60606104c784846000856104d0565b90509392505050565b60608247101561052b576040517f08c379a00000000000000000000000000000000000000000000000000000000081526004018080602001828103825260268152602001806107806026913960400191505060405180910390fd5b61053485610679565b6105a6576040517f08c379a000000000000000000000000000000000000000000000000000000000815260040180806020018281038252601d8152602001807f416464726573733a2063616c6c20746f206e6f6e2d636f6e747261637400000081525060200191505060405180910390fd5b600060608673ffffffffffffffffffffffffffffffffffffffff1685876040518082805190602001908083835b602083106105f657805182526020820191506020810190506020830392506105d3565b6001836020036101000a03801982511681845116808217855250505050505090500191505060006040518083038185875af1925050503d8060008114610658576040519150601f19603f3d011682016040523d82523d6000602084013e61065d565b606091505b509150915061066d82828661068c565b92505050949350505050565b600080823b905060008111915050919050565b6060831561069c57829050610751565b6000835111156106af5782518084602001fd5b816040517f08c379a00000000000000000000000000000000000000000000000000000000081526004018080602001828103825283818151815260200191508051906020019080838360005b838110156107165780820151818401526020810190506106fb565b50505050905090810190601f1680156107435780820380516001836020036101000a031916815260200191505b509250505060405180910390fd5b939250505056fe4775696c642e7769746864726177546f3a204f6e6c79207374616b696e6720636f6e7472616374416464726573733a20696e73756666696369656e742062616c616e636520666f722063616c6c5361666545524332303a204552433230206f7065726174696f6e20646964206e6f742073756363656564a26469706673582212207e0b485884f6e22036966655ca2b7e507974a2e44c98172b517c8b2c1f56b40764736f6c63430006060033636f6e7374727563746f723a20696e636f7272656374206d756c7469706c69657273",
    "immutableReferences": {},
    "source": "// SPDX-License-Identifier: MIT\r\n\r\npragma solidity 0.6.6;\r\n\r\nimport \"@openzeppelin/contracts/token/ERC20/IERC20.sol\";\r\nimport \"@openzeppelin/contracts/token/ERC20/SafeERC20.sol\";\r\nimport \"@openzeppelin/contracts/utils/ReentrancyGuard.sol\";\r\nimport \"@openzeppelin/contracts/math/SafeMath.sol\";\r\nimport \"@openzeppelin/contracts/access/Ownable.sol\";\r\nimport \"@openzeppelin/contracts/cryptography/MerkleProof.sol\";\r\nimport \"./interfaces/IStakingRewards.sol\";\r\n\r\nimport { FundRaisingGuild } from \"./FundRaisingGuild.sol\";\r\n\r\n/// @title Fund raising platform by SkyLaunch\r\n/// @notice Developed by Chris Ciszak\r\n/// @dev Only the owner can add new pools\r\ncontract SkyLaunchFundRaising is Ownable, ReentrancyGuard {\r\n    using SafeMath for uint256;\r\n    using SafeERC20 for IERC20;\r\n\r\n    /// @dev Details about each user in a pool\r\n    struct UserInfo {\r\n        uint256 amount;\r\n        uint256 fundingAmount; // Based on staked tokens, the funding that has come from the user (or not if they choose to pull out)\r\n        uint256 multiplier;\r\n        uint256 nftValue;\r\n        uint256 utilityNFTTokenId;\r\n        uint256 collectedRewards;\r\n    }\r\n\r\n    /// @dev Info of each pool.\r\n    struct PoolInfo {\r\n        IERC20 rewardToken; // Address of the reward token contract.\r\n        IERC20 fundRaisingToken;\r\n        uint256 subscriptionStartTimestamp ; // Block when users stake counts towards earning reward token allocation\r\n        uint256 subscriptionEndTimestamp; // Before this block, staking is permitted\r\n        uint256 fundingEndTimestamp; // Between subscriptionEndTimestamp and this number pledge funding is permitted\r\n        uint256 targetRaise; // Amount that the project wishes to raise\r\n        uint256 price; // Price per token\r\n        uint256 maxStakingAmountPerUser; // Max. amount of tokens that can be staked per account/user\r\n        uint256 maxUtilityNFTsValue; // max amount of tokens that are permitted to participate in this pool\r\n        uint256 rewardsStartTime;\r\n        uint256 rewardsCliffEndTime;\r\n        uint256 rewardsEndTime;\r\n    }\r\n\r\n    struct Multiplier {\r\n        uint256 scoreFrom;\r\n        uint256 multiplier; // 1.5 represented as 150 \r\n    }\r\n\r\n    // Utility NFTs with guaranteed allocations\r\n    address utilityNFT;\r\n\r\n    /// @notice staking token is fixed for all pools\r\n    IERC20 public stakingFactory;\r\n\r\n    /// @notice staking token is fixed for all pools\r\n    address[] public stakingRewards;\r\n\r\n    /// @notice Container for holding all rewards\r\n    FundRaisingGuild public rewardGuildBank;\r\n\r\n    /// @notice List of pools that users can stake into\r\n    PoolInfo[] public poolInfo;\r\n\r\n    // Pool to accumulated share counters\r\n    mapping(uint256 => uint256) public poolIdToAccPercentagePerShare;\r\n    mapping(uint256 => uint256) public poolIdToLastPercentageAllocBlock;\r\n\r\n    // Number of reward tokens distributed per block for this pool\r\n    mapping(uint256 => uint256) public poolIdToRewardPerBlock;\r\n\r\n    // Last block number that reward token distribution took place\r\n    mapping(uint256 => uint256) public poolIdToLastRewardBlock;\r\n\r\n    // Block number when rewards start\r\n    mapping(uint256 => uint256) public poolIdToRewardStartBlock;\r\n\r\n    // Block number when cliff ends\r\n    mapping(uint256 => uint256) public poolIdToRewardCliffEndBlock;\r\n\r\n    // Block number when rewards end\r\n    mapping(uint256 => uint256) public poolIdToRewardEndBlock;\r\n\r\n    // Per LPOOL token staked, how much reward token earned in pool that users will get\r\n    mapping(uint256 => uint256) public poolIdToAccRewardPerShareVesting;\r\n\r\n    // Total rewards being distributed up to rewardEndBlock\r\n    mapping(uint256 => uint256) public poolIdToMaxRewardTokensAvailableForVesting;\r\n\r\n    // Total amount staked into the pool\r\n    mapping(uint256 => uint256) public poolIdToTotalStaked;\r\n\r\n    // Total amount of funding received by stakers after subscriptionEndTimestamp and before fundingEndTimestamp\r\n    mapping(uint256 => uint256) public poolIdToTotalRaised;\r\n\r\n    mapping(uint256 => uint256) public poolIdToTotalGuaranteedAllocationsRaised;\r\n\r\n    mapping(uint256 => uint256) public poolIdToTotalGuaranteedAllocationsSubscribed;\r\n\r\n    mapping(uint256 => uint256) public poolIdToTotalMultipliers;\r\n\r\n    // For every staker that funded their pledge, the sum of all of their allocated percentages\r\n    mapping(uint256 => uint256) public poolIdToTotalFundedPercentageOfTargetRaise;\r\n\r\n    // True when funds have been claimed\r\n    mapping(uint256 => bool) public poolIdToFundsClaimed;\r\n\r\n    /// @notice Per pool, info of each user that stakes ERC20 tokens.\r\n    /// @notice Pool ID => User Address => User Info\r\n    mapping(uint256 => mapping(address => UserInfo)) public userInfo;\r\n\r\n    // Available before staking ends for any given project. Essentitally 100% to 18 dp\r\n    uint256 public constant TOTAL_TOKEN_ALLOCATION_POINTS = (100 * (10 ** 18));\r\n\r\n    // KYCed users Merkle Root\r\n    bytes32 public merkleRootKYC;\r\n\r\n    // multiplier brackets for score\r\n    Multiplier[] public multipliers;\r\n\r\n    event ContractDeployed(address indexed guildBank);\r\n    event PoolAdded(uint256 indexed pid);\r\n    event Subscribe(address indexed user, uint256 indexed pid);\r\n    event SubscribeWithUtilityNFT(address indexed user, uint256 indexed pid, uint256 amount);\r\n    event SubscriptionFunded(address indexed user, uint256 indexed pid, uint256 amount);\r\n    event RewardsSetUp(uint256 indexed pid, uint256 amount, uint256 rewardStartTime, uint256 rewardCliffEndTime, uint256 rewardEndTime);\r\n    event RewardClaimed(address indexed user, uint256 indexed pid, uint256 amount);\r\n    event FundRaisingClaimed(uint256 indexed pid, address indexed recipient, uint256 amount);\r\n\r\n    constructor(uint256[] memory scores, uint256[] memory mps, address _utilityNFT) public {\r\n        //require(address(_stakingRewards) != address(0), \"constructor: stakingRewards must not be zero address\");\r\n        require(scores.length == mps.length, \"constructor: incorrect multipliers\");\r\n\r\n        //stakingRewards = _stakingRewards;\r\n        rewardGuildBank = new FundRaisingGuild(address(this));\r\n        utilityNFT = _utilityNFT;\r\n\r\n        for(uint256 i = 0; i < scores.length; i++){\r\n            Multiplier memory mp;\r\n            mp.scoreFrom = scores[i];\r\n            mp.multiplier = mps[i];\r\n            multipliers.push(mp);\r\n        }\r\n\r\n        emit ContractDeployed(address(rewardGuildBank));\r\n    }\r\n\r\n    function addStakingRewards(address _stakingRewards) onlyOwner external {\r\n        stakingRewards.push(_stakingRewards);\r\n    }\r\n\r\n    function removeStakingRewards(address _stakingRewards) onlyOwner external {\r\n        for(uint256 i = 0; i < stakingRewards.length; i++){\r\n            if(stakingRewards[i] == _stakingRewards){\r\n                stakingRewards[i] = stakingRewards[stakingRewards.length -1];\r\n                stakingRewards.pop();\r\n            }\r\n        }\r\n    }\r\n\r\n    function setKYCMerkleRoot(bytes32 _merkleRootKYC) onlyOwner external {\r\n        merkleRootKYC = _merkleRootKYC;\r\n    }\r\n\r\n    /// @notice Returns the number of pools that have been added by the owner\r\n    /// @return Number of pools\r\n    function numberOfPools() external view returns (uint256) {\r\n        return poolInfo.length;\r\n    }\r\n\r\n    /// @dev Can only be called by the contract owner\r\n    function add(\r\n        IERC20 _rewardToken,\r\n        IERC20 _fundRaisingToken,\r\n        uint256 _subscriptionStartTimestamp,\r\n        uint256 _subscriptionEndTimestamp,\r\n        uint256 _fundingEndTimestamp,\r\n        uint256 _targetRaise,\r\n        uint256 _price,\r\n        uint256 _maxStakingAmountPerUser,\r\n        uint256 _maxUtilityNFTsValue\r\n    ) public onlyOwner {\r\n        address rewardTokenAddress = address(_rewardToken);\r\n        require(rewardTokenAddress != address(0), \"add: _rewardToken is zero address\");\r\n        address fundRaisingTokenAddress = address(_fundRaisingToken);\r\n\r\n        require(_subscriptionStartTimestamp < _subscriptionEndTimestamp, \"add: _subscriptionStartTimestamp must be before staking end\");\r\n        require(_subscriptionEndTimestamp < _fundingEndTimestamp, \"add: staking end must be before funding end\");\r\n        require(_targetRaise > 0, \"add: Invalid raise amount\");\r\n        require(_price > 0, \"add: Invalid price amount\");\r\n\r\n        poolInfo.push(PoolInfo({\r\n            rewardToken : _rewardToken,\r\n            fundRaisingToken : _fundRaisingToken,\r\n            subscriptionStartTimestamp: _subscriptionStartTimestamp,\r\n            subscriptionEndTimestamp: _subscriptionEndTimestamp,\r\n            fundingEndTimestamp: _fundingEndTimestamp,\r\n            targetRaise: _targetRaise,\r\n            price: _price,\r\n            maxStakingAmountPerUser: _maxStakingAmountPerUser,\r\n            maxUtilityNFTsValue: _maxUtilityNFTsValue,\r\n            rewardsStartTime: 0,\r\n            rewardsCliffEndTime: 0,\r\n            rewardsEndTime: 0\r\n\r\n        }));\r\n\r\n        //poolIdToLastPercentageAllocBlock[poolInfo.length.sub(1)] = _subscriptionStartTimestamp;\r\n\r\n        emit PoolAdded(poolInfo.length.sub(1));\r\n    }\r\n\r\n    // step \r\n    // subscribe\r\n    function subscribe(uint256 _pid, uint256 _index, bytes32[] calldata _merkleProof) external nonReentrant {\r\n        // join upcoming IDO\r\n        require(_pid < poolInfo.length, \"subscribe: Invalid PID\");\r\n\r\n        PoolInfo storage pool = poolInfo[_pid];\r\n        UserInfo storage user = userInfo[_pid][msg.sender];\r\n\r\n        require(block.timestamp >= pool.subscriptionStartTimestamp, \"subscribe: subscription not started\");\r\n        require(block.timestamp <= pool.subscriptionEndTimestamp, \"subscribe: subscription no longer permitted\");\r\n\r\n        // Verify the merkle proof.\r\n        bytes32 node = keccak256(abi.encodePacked(_index, msg.sender));\r\n        require(MerkleProof.verify(_merkleProof, merkleRootKYC, node), 'subscribe: Invalid proof.');\r\n\r\n        // Collect the users multiplier\r\n        uint256 userMultiplier = getMultiplier(msg.sender);\r\n        require(userMultiplier > 0, \"subscribe: not sufficient score\");\r\n\r\n        // Add user to the pool\r\n        user.multiplier = userMultiplier;\r\n\r\n        // update multipliers\r\n        poolIdToTotalMultipliers[_pid] = poolIdToTotalMultipliers[_pid].add(userMultiplier);\r\n\r\n        emit Subscribe(msg.sender, _pid);\r\n    }\r\n\r\n    // step \r\n    // subscribe\r\n    function subscribeWithUtilityNFT(uint256 _pid, uint256 utilityNFTTokenId, uint256 _index, bytes32[] calldata _merkleProof) external nonReentrant {\r\n        // join upcoming IDO\r\n        require(_pid < poolInfo.length, \"subscribeWithUtilityNFT: Invalid PID\");\r\n\r\n        PoolInfo storage pool = poolInfo[_pid];\r\n        UserInfo storage user = userInfo[_pid][msg.sender];\r\n\r\n        require(user.nftValue == 0, \"subscribeWithUtilityNFT: already subscribed with utility nft\");\r\n        require(address(pool.fundRaisingToken) != address(0), \"subscribeWithUtilityNFT: Utility NFTs cannot be used for native cryptocurrency fund raising\");\r\n        require(poolIdToTotalGuaranteedAllocationsSubscribed[_pid] < pool.maxUtilityNFTsValue, \"subscribeWithUtilityNFT: Guaranteed allocations oversubscribed\");\r\n\r\n        require(block.timestamp >= pool.subscriptionStartTimestamp, \"subscribe: subscription not started\");\r\n        require(block.timestamp <= pool.subscriptionEndTimestamp, \"subscribe: subscription no longer permitted\");\r\n\r\n        // Verify the merkle proof.\r\n        bytes32 node = keccak256(abi.encodePacked(_index, msg.sender));\r\n        require(MerkleProof.verify(_merkleProof, merkleRootKYC, node), 'subscribe: Invalid proof.');\r\n\r\n        require(UtilityNFT(utilityNFT).ownerOf(utilityNFTTokenId) == msg.sender, 'subscribe: This utility NFT id is not yours');\r\n        uint256 nftValue = UtilityNFT(utilityNFT).getAvailableAllocation(utilityNFTTokenId);\r\n        uint256 availableValue = pool.maxUtilityNFTsValue.sub(poolIdToTotalGuaranteedAllocationsSubscribed[_pid]);\r\n\r\n        // Add user to the pool\r\n        user.nftValue = nftValue > pool.maxStakingAmountPerUser ? pool.maxStakingAmountPerUser : nftValue;\r\n\r\n        if(user.nftValue > availableValue)\r\n            user.nftValue = availableValue;\r\n\r\n        user.utilityNFTTokenId = utilityNFTTokenId;\r\n\r\n        // update poolIdToTotalGuaranteedAllocationsSubscribed\r\n        poolIdToTotalGuaranteedAllocationsSubscribed[_pid] = poolIdToTotalGuaranteedAllocationsSubscribed[_pid].add(user.nftValue);\r\n\r\n        emit SubscribeWithUtilityNFT(msg.sender, _pid, user.nftValue);\r\n    }\r\n\r\n    function getMaximumAllocation(uint256 _pid) public view returns (uint256) {\r\n        require(_pid < poolInfo.length, \"getFundingAmount: Invalid PID\");\r\n        PoolInfo memory pool = poolInfo[_pid];\r\n        UserInfo memory user = userInfo[_pid][msg.sender];\r\n\r\n        // utility nft has got priority\r\n        if(user.nftValue > 0)\r\n            return user.nftValue;\r\n\r\n        // subtrack the utility NFTs\r\n        uint256 singleAllocation = pool.targetRaise.sub(poolIdToTotalGuaranteedAllocationsSubscribed[_pid]).div(poolIdToTotalMultipliers[_pid]);\r\n        return singleAllocation * user.multiplier / 100;\r\n    }\r\n\r\n    // step 2\r\n    function fundSubscription(uint256 _pid, uint256 _amount) external payable nonReentrant {\r\n        require(_pid < poolInfo.length, \"fundSubscription: Invalid PID\");\r\n\r\n        PoolInfo storage pool = poolInfo[_pid];\r\n        UserInfo storage user = userInfo[_pid][msg.sender];\r\n\r\n        require(user.multiplier > 0 || user.nftValue > 0, \"fundSubscription: not subscribed\");\r\n        require(user.fundingAmount == 0, \"fundSubscription: Subscribe has already been funded\");\r\n\r\n        require(block.timestamp > pool.subscriptionEndTimestamp, \"fundSubscription: Subscription is still taking place\");\r\n        require(block.timestamp <= pool.fundingEndTimestamp, \"fundSubscription: Deadline has passed to fund your subscription\");\r\n        uint256 maximumAllocation = getMaximumAllocation(_pid);\r\n\r\n        require(maximumAllocation > 0, \"fundSubscription: must have positive allocation amount\");\r\n\r\n        // collecting the payment\r\n        if(address(pool.fundRaisingToken) == address(0)){\r\n            // ETH/BNB etc native cryptocurrency of the platform\r\n            require(msg.value <= maximumAllocation, \"fundSubscription: Too much value provided\");\r\n            require(msg.value == _amount, \"fundSubscription: Incorrect amounts\");\r\n            poolIdToTotalRaised[_pid] = poolIdToTotalRaised[_pid].add(msg.value);\r\n            user.fundingAmount = msg.value; // ensures pledges can only be done once\r\n        }\r\n        else {\r\n            // this will fail if the sender does not have the right amount of the token or the allowance is not given\r\n            require(_amount <= maximumAllocation, \"fundSubscription: Too many tokens provided\");\r\n            pool.fundRaisingToken.safeTransferFrom(msg.sender, address(this), _amount);\r\n            user.fundingAmount = _amount; // ensures pledges can only be done once\r\n            poolIdToTotalRaised[_pid] = poolIdToTotalRaised[_pid].add(_amount);\r\n            if(user.nftValue > 0){\r\n                poolIdToTotalGuaranteedAllocationsRaised[_pid] = poolIdToTotalGuaranteedAllocationsRaised[_pid].add(_amount);\r\n                UtilityNFT(utilityNFT).spendAllocation(user.utilityNFTTokenId, _amount);\r\n            }\r\n        }\r\n\r\n        emit SubscriptionFunded(msg.sender, _pid, _amount);\r\n    }\r\n\r\n    // pre-step 3 for project\r\n    function getTotalRaisedVsTarget(uint256 _pid) external view returns (uint256 raised, uint256 target) {\r\n        return (poolIdToTotalRaised[_pid], poolInfo[_pid].targetRaise);\r\n    }\r\n\r\n    function getRequiredRewardAmountForAmountRaised(uint256 _pid) public view returns (uint256 rewardAmount) {\r\n        PoolInfo memory pool = poolInfo[_pid];\r\n        return poolIdToTotalRaised[_pid].mul(pool.price).div(10**18);\r\n    }\r\n\r\n    // step 3\r\n    function setupVestingRewards(uint256 _pid, uint256 _rewardAmount,  uint256 _rewardStartTimestamp, uint256 _rewardCliffEndTimestamp, uint256 _rewardEndTimestamp)\r\n    external nonReentrant onlyOwner {\r\n        require(_pid < poolInfo.length, \"setupVestingRewards: Invalid PID\");\r\n        require(_rewardStartTimestamp > block.timestamp, \"setupVestingRewards: start block in the past\");\r\n        require(_rewardCliffEndTimestamp >= _rewardStartTimestamp, \"setupVestingRewards: Cliff must be after or equal to start time\");\r\n        require(_rewardEndTimestamp > _rewardCliffEndTimestamp, \"setupVestingRewards: end time must be after cliff time\");\r\n        PoolInfo storage pool = poolInfo[_pid];\r\n\r\n        require(block.timestamp > pool.fundingEndTimestamp, \"setupVestingRewards: Users are still funding\");\r\n        require(_rewardAmount == getRequiredRewardAmountForAmountRaised(_pid), \"setupVestingRewards: wrong reward amount provided\");\r\n\r\n        uint256 vestingLength = _rewardEndTimestamp.sub(_rewardStartTimestamp);\r\n\r\n        pool.rewardsStartTime = _rewardStartTimestamp;\r\n        pool.rewardsCliffEndTime = _rewardCliffEndTimestamp;\r\n        pool.rewardsEndTime = _rewardEndTimestamp;\r\n\r\n        pool.rewardToken.safeTransferFrom(msg.sender, address(rewardGuildBank), _rewardAmount);\r\n\r\n        emit RewardsSetUp(_pid, _rewardAmount, _rewardStartTimestamp, _rewardCliffEndTimestamp, _rewardEndTimestamp);\r\n    }\r\n\r\n    function pendingRewards(uint256 _pid, address _user) public view returns (uint256) {\r\n        require(_pid < poolInfo.length, \"pendingRewards: invalid _pid\");\r\n\r\n        UserInfo memory user = userInfo[_pid][_user];\r\n\r\n        // not funded have no rewards\r\n        if (user.fundingAmount == 0) {\r\n            return 0;\r\n        }\r\n\r\n        PoolInfo memory pool = poolInfo[_pid];\r\n\r\n        if (pool.rewardsStartTime > block.timestamp){\r\n            return 0;\r\n        }\r\n\r\n        uint256 vestingLength = pool.rewardsEndTime.sub(pool.rewardsStartTime);\r\n        uint256 totalReward = getTotalReward(_pid, _user);\r\n        uint256 rewardPerSecond = totalReward.div(vestingLength);\r\n        uint256 totalUnlocked = block.timestamp.sub(pool.rewardsStartTime).mul(rewardPerSecond);\r\n\r\n        return totalUnlocked.sub(user.collectedRewards);\r\n    }\r\n\r\n    function getTotalReward(uint256 _pid, address _user) public view returns (uint256) {\r\n        require(_pid < poolInfo.length, \"pendingRewards: invalid _pid\");\r\n\r\n        UserInfo memory user = userInfo[_pid][_user];\r\n\r\n        // not funded have no rewards\r\n        if (user.fundingAmount == 0) {\r\n            return 0;\r\n        }\r\n        \r\n        PoolInfo memory pool = poolInfo[_pid];\r\n        return user.fundingAmount.div(pool.price).mul(10**18);\r\n    }\r\n\r\n    function claimReward(uint256 _pid) public nonReentrant {\r\n        PoolInfo storage pool = poolInfo[_pid];\r\n        require(block.timestamp >= pool.rewardsCliffEndTime, \"claimReward: Not past cliff\");\r\n\r\n        UserInfo storage user = userInfo[_pid][msg.sender];\r\n        require(user.fundingAmount > 0, \"claimReward: Not funded\");\r\n\r\n        uint256 pending = pendingRewards(_pid, msg.sender);\r\n\r\n        if (pending > 0) {\r\n            user.collectedRewards = user.collectedRewards.add(pending);\r\n            safeRewardTransfer(pool.rewardToken, msg.sender, pending);\r\n\r\n            emit RewardClaimed(msg.sender, _pid, pending);\r\n        }\r\n    }\r\n\r\n    function claimFundRaising(uint256 _pid) external nonReentrant onlyOwner {\r\n        require(_pid < poolInfo.length, \"claimFundRaising: invalid _pid\");\r\n        PoolInfo storage pool = poolInfo[_pid];\r\n\r\n        require(pool.rewardsStartTime != 0, \"claimFundRaising: rewards not yet sent\");\r\n        require(poolIdToFundsClaimed[_pid] == false, \"claimFundRaising: Already claimed funds\");\r\n\r\n        poolIdToFundsClaimed[_pid] = true;\r\n\r\n        if(address(pool.fundRaisingToken) == address(0)){\r\n            owner().call{value: poolIdToTotalRaised[_pid]}(\"\");\r\n            //owner.transfer(poolIdToTotalRaised[_pid]);\r\n        }\r\n        else {\r\n            pool.fundRaisingToken.transfer(owner(), poolIdToTotalRaised[_pid]);\r\n        }        \r\n\r\n        emit FundRaisingClaimed(_pid, owner(), poolIdToTotalRaised[_pid]);\r\n    }\r\n\r\n    ////////////\r\n    // Private /\r\n    ////////////\r\n\r\n    /// @dev Safe reward transfer function, just in case if rounding error causes pool to not have enough rewards.\r\n\r\n    function safeRewardTransfer(IERC20 _rewardToken, address _to, uint256 _amount) private {\r\n        uint256 bal = rewardGuildBank.tokenBalance(_rewardToken);\r\n        if (_amount > bal) {\r\n            rewardGuildBank.withdrawTo(_rewardToken, _to, bal);\r\n        } else {\r\n            rewardGuildBank.withdrawTo(_rewardToken, _to, _amount);\r\n        }\r\n    }\r\n\r\n    /// @notice Return reward multiplier.\r\n    /// @param _account account\r\n    /// @return Multiplier\r\n    function getMultiplier(address _account) private view returns (uint256) {\r\n        // connect to the factory\r\n        // loop through the pools and get the user score\r\n        uint256 score;\r\n        uint256 multiplier = 0;\r\n\r\n        for(uint256 i = 0; i < stakingRewards.length; i++){\r\n            score = score.add(IStakingRewards(stakingRewards[i]).getUserScore(_account));\r\n        }\r\n\r\n        // get the multiplier based on the score\r\n        for (uint256 i = 0; i < multipliers.length - 1; i++){\r\n            Multiplier memory mp = multipliers[i];\r\n            if(score >= mp.scoreFrom){\r\n                return mp.multiplier;\r\n                break;\r\n            }\r\n        }\r\n\r\n        return multiplier;\r\n    }\r\n}\r\n\r\ninterface UtilityNFT {\r\n    function getAvailableAllocation(uint256 id) external view returns (uint256);\r\n    function spendAllocation(uint256 id, uint256 amount) external;\r\n    function ownerOf(uint256 tokenId) external view returns (address owner);\r\n}",
    "sourcePath": "D:\\blockchain\\sinDong\\sinDong\\fund-raising\\contracts\\SkyLaunchFundRaising.sol",
    "compiler": {
        "name": "solc",
        "version": "0.6.6+commit.6c089d02.Emscripten.clang"
    },
    "schemaVersion": "3.4.3",
    "updatedAt": "2022-01-06T09:18:41.107Z",
    "devdoc": {
        "details": "Only the owner can add new pools",
        "methods": {
            "add(address,address,uint256,uint256,uint256,uint256,uint256,uint256,uint256)": {
                "details": "Can only be called by the contract owner"
            },
            "owner()": {
                "details": "Returns the address of the current owner."
            },
            "renounceOwnership()": {
                "details": "Leaves the contract without owner. It will not be possible to call `onlyOwner` functions anymore. Can only be called by the current owner.     * NOTE: Renouncing ownership will leave the contract without an owner, thereby removing any functionality that is only available to the owner."
            },
            "transferOwnership(address)": {
                "details": "Transfers ownership of the contract to a new account (`newOwner`). Can only be called by the current owner."
            }
        },
        "title": "Fund raising platform by SkyLaunch"
    },
    "userdoc": {
        "methods": {
            "numberOfPools()": {
                "notice": "Returns the number of pools that have been added by the owner"
            }
        },
        "notice": "Developed by Chris Ciszak"
    }
}