{
  "contractName": "TestNFT",
  "abi": [
    {
      "inputs": [],
      "stateMutability": "nonpayable",
      "type": "constructor"
    },
    {
      "anonymous": false,
      "inputs": [
        {
          "indexed": false,
          "internalType": "uint256",
          "name": "id",
          "type": "uint256"
        },
        {
          "indexed": false,
          "internalType": "uint256",
          "name": "amount",
          "type": "uint256"
        }
      ],
      "name": "AllocationSpent",
      "type": "event"
    },
    {
      "anonymous": false,
      "inputs": [
        {
          "indexed": true,
          "internalType": "address",
          "name": "owner",
          "type": "address"
        },
        {
          "indexed": true,
          "internalType": "address",
          "name": "approved",
          "type": "address"
        },
        {
          "indexed": true,
          "internalType": "uint256",
          "name": "tokenId",
          "type": "uint256"
        }
      ],
      "name": "Approval",
      "type": "event"
    },
    {
      "anonymous": false,
      "inputs": [
        {
          "indexed": true,
          "internalType": "address",
          "name": "owner",
          "type": "address"
        },
        {
          "indexed": true,
          "internalType": "address",
          "name": "operator",
          "type": "address"
        },
        {
          "indexed": false,
          "internalType": "bool",
          "name": "approved",
          "type": "bool"
        }
      ],
      "name": "ApprovalForAll",
      "type": "event"
    },
    {
      "anonymous": false,
      "inputs": [
        {
          "indexed": true,
          "internalType": "address",
          "name": "from",
          "type": "address"
        },
        {
          "indexed": true,
          "internalType": "address",
          "name": "to",
          "type": "address"
        },
        {
          "indexed": true,
          "internalType": "uint256",
          "name": "tokenId",
          "type": "uint256"
        }
      ],
      "name": "Transfer",
      "type": "event"
    },
    {
      "anonymous": false,
      "inputs": [
        {
          "indexed": false,
          "internalType": "address",
          "name": "user",
          "type": "address"
        }
      ],
      "name": "UserClaimed",
      "type": "event"
    },
    {
      "inputs": [
        {
          "internalType": "uint256",
          "name": "",
          "type": "uint256"
        }
      ],
      "name": "allocations",
      "outputs": [
        {
          "internalType": "uint256",
          "name": "",
          "type": "uint256"
        }
      ],
      "stateMutability": "view",
      "type": "function"
    },
    {
      "inputs": [
        {
          "internalType": "address",
          "name": "to",
          "type": "address"
        },
        {
          "internalType": "uint256",
          "name": "tokenId",
          "type": "uint256"
        }
      ],
      "name": "approve",
      "outputs": [],
      "stateMutability": "nonpayable",
      "type": "function"
    },
    {
      "inputs": [
        {
          "internalType": "address",
          "name": "owner",
          "type": "address"
        }
      ],
      "name": "balanceOf",
      "outputs": [
        {
          "internalType": "uint256",
          "name": "",
          "type": "uint256"
        }
      ],
      "stateMutability": "view",
      "type": "function"
    },
    {
      "inputs": [],
      "name": "baseURI",
      "outputs": [
        {
          "internalType": "string",
          "name": "",
          "type": "string"
        }
      ],
      "stateMutability": "view",
      "type": "function"
    },
    {
      "inputs": [
        {
          "internalType": "uint256",
          "name": "tokenId",
          "type": "uint256"
        }
      ],
      "name": "getApproved",
      "outputs": [
        {
          "internalType": "address",
          "name": "",
          "type": "address"
        }
      ],
      "stateMutability": "view",
      "type": "function"
    },
    {
      "inputs": [
        {
          "internalType": "address",
          "name": "owner",
          "type": "address"
        },
        {
          "internalType": "address",
          "name": "operator",
          "type": "address"
        }
      ],
      "name": "isApprovedForAll",
      "outputs": [
        {
          "internalType": "bool",
          "name": "",
          "type": "bool"
        }
      ],
      "stateMutability": "view",
      "type": "function"
    },
    {
      "inputs": [],
      "name": "name",
      "outputs": [
        {
          "internalType": "string",
          "name": "",
          "type": "string"
        }
      ],
      "stateMutability": "view",
      "type": "function"
    },
    {
      "inputs": [
        {
          "internalType": "uint256",
          "name": "tokenId",
          "type": "uint256"
        }
      ],
      "name": "ownerOf",
      "outputs": [
        {
          "internalType": "address",
          "name": "",
          "type": "address"
        }
      ],
      "stateMutability": "view",
      "type": "function"
    },
    {
      "inputs": [
        {
          "internalType": "address",
          "name": "from",
          "type": "address"
        },
        {
          "internalType": "address",
          "name": "to",
          "type": "address"
        },
        {
          "internalType": "uint256",
          "name": "tokenId",
          "type": "uint256"
        }
      ],
      "name": "safeTransferFrom",
      "outputs": [],
      "stateMutability": "nonpayable",
      "type": "function"
    },
    {
      "inputs": [
        {
          "internalType": "address",
          "name": "from",
          "type": "address"
        },
        {
          "internalType": "address",
          "name": "to",
          "type": "address"
        },
        {
          "internalType": "uint256",
          "name": "tokenId",
          "type": "uint256"
        },
        {
          "internalType": "bytes",
          "name": "_data",
          "type": "bytes"
        }
      ],
      "name": "safeTransferFrom",
      "outputs": [],
      "stateMutability": "nonpayable",
      "type": "function"
    },
    {
      "inputs": [
        {
          "internalType": "address",
          "name": "operator",
          "type": "address"
        },
        {
          "internalType": "bool",
          "name": "approved",
          "type": "bool"
        }
      ],
      "name": "setApprovalForAll",
      "outputs": [],
      "stateMutability": "nonpayable",
      "type": "function"
    },
    {
      "inputs": [
        {
          "internalType": "bytes4",
          "name": "interfaceId",
          "type": "bytes4"
        }
      ],
      "name": "supportsInterface",
      "outputs": [
        {
          "internalType": "bool",
          "name": "",
          "type": "bool"
        }
      ],
      "stateMutability": "view",
      "type": "function"
    },
    {
      "inputs": [],
      "name": "symbol",
      "outputs": [
        {
          "internalType": "string",
          "name": "",
          "type": "string"
        }
      ],
      "stateMutability": "view",
      "type": "function"
    },
    {
      "inputs": [
        {
          "internalType": "uint256",
          "name": "index",
          "type": "uint256"
        }
      ],
      "name": "tokenByIndex",
      "outputs": [
        {
          "internalType": "uint256",
          "name": "",
          "type": "uint256"
        }
      ],
      "stateMutability": "view",
      "type": "function"
    },
    {
      "inputs": [
        {
          "internalType": "address",
          "name": "owner",
          "type": "address"
        },
        {
          "internalType": "uint256",
          "name": "index",
          "type": "uint256"
        }
      ],
      "name": "tokenOfOwnerByIndex",
      "outputs": [
        {
          "internalType": "uint256",
          "name": "",
          "type": "uint256"
        }
      ],
      "stateMutability": "view",
      "type": "function"
    },
    {
      "inputs": [
        {
          "internalType": "uint256",
          "name": "tokenId",
          "type": "uint256"
        }
      ],
      "name": "tokenURI",
      "outputs": [
        {
          "internalType": "string",
          "name": "",
          "type": "string"
        }
      ],
      "stateMutability": "view",
      "type": "function"
    },
    {
      "inputs": [],
      "name": "totalSupply",
      "outputs": [
        {
          "internalType": "uint256",
          "name": "",
          "type": "uint256"
        }
      ],
      "stateMutability": "view",
      "type": "function"
    },
    {
      "inputs": [
        {
          "internalType": "address",
          "name": "from",
          "type": "address"
        },
        {
          "internalType": "address",
          "name": "to",
          "type": "address"
        },
        {
          "internalType": "uint256",
          "name": "tokenId",
          "type": "uint256"
        }
      ],
      "name": "transferFrom",
      "outputs": [],
      "stateMutability": "nonpayable",
      "type": "function"
    },
    {
      "inputs": [
        {
          "internalType": "address",
          "name": "",
          "type": "address"
        }
      ],
      "name": "userToAllocation",
      "outputs": [
        {
          "internalType": "uint256",
          "name": "",
          "type": "uint256"
        }
      ],
      "stateMutability": "view",
      "type": "function"
    },
    {
      "inputs": [
        {
          "internalType": "address",
          "name": "to",
          "type": "address"
        },
        {
          "internalType": "uint256",
          "name": "value",
          "type": "uint256"
        }
      ],
      "name": "mint",
      "outputs": [],
      "stateMutability": "nonpayable",
      "type": "function"
    },
    {
      "inputs": [
        {
          "internalType": "uint256",
          "name": "id",
          "type": "uint256"
        }
      ],
      "name": "getAvailableAllocation",
      "outputs": [
        {
          "internalType": "uint256",
          "name": "",
          "type": "uint256"
        }
      ],
      "stateMutability": "view",
      "type": "function"
    },
    {
      "inputs": [
        {
          "internalType": "uint256",
          "name": "id",
          "type": "uint256"
        },
        {
          "internalType": "uint256",
          "name": "amount",
          "type": "uint256"
        }
      ],
      "name": "spendAllocation",
      "outputs": [],
      "stateMutability": "nonpayable",
      "type": "function"
    },
    {
      "inputs": [],
      "name": "claim",
      "outputs": [],
      "stateMutability": "nonpayable",
      "type": "function"
    }
  ],
  "bytecode": "0x60806040523480156200001157600080fd5b506040518060400160405280600a81526020017f54657374455243373231000000000000000000000000000000000000000000008152506040518060400160405280600481526020017f5445535400000000000000000000000000000000000000000000000000000000815250620000966301ffc9a760e01b6200011860201b60201c565b8160069080519060200190620000ae929190620001f0565b508060079080519060200190620000c7929190620001f0565b50620000e06380ac58cd60e01b6200011860201b60201c565b620000f8635b5e139f60e01b6200011860201b60201c565b6200011063780e9d6360e01b6200011860201b60201c565b505062000314565b63ffffffff60e01b817bffffffffffffffffffffffffffffffffffffffffffffffffffffffff1916141562000184576040517f08c379a00000000000000000000000000000000000000000000000000000000081526004016200017b90620002e1565b60405180910390fd5b6001600080837bffffffffffffffffffffffffffffffffffffffffffffffffffffffff19167bffffffffffffffffffffffffffffffffffffffffffffffffffffffff1916815260200190815260200160002060006101000a81548160ff02191690831515021790555050565b828054600181600116156101000203166002900490600052602060002090601f016020900481019282601f106200023357805160ff191683800117855562000264565b8280016001018555821562000264579182015b828111156200026357825182559160200191906001019062000246565b5b50905062000273919062000277565b5090565b6200029c91905b80821115620002985760008160009055506001016200027e565b5090565b90565b6000620002ae601c8362000303565b91507f4552433136353a20696e76616c696420696e74657266616365206964000000006000830152602082019050919050565b60006020820190508181036000830152620002fc816200029f565b9050919050565b600082825260208201905092915050565b61309780620003246000396000f3fe608060405234801561001057600080fd5b506004361061014d5760003560e01c80634e71d92d116100c357806395d89b411161007c57806395d89b41146103c2578063a22cb465146103e0578063b88d4fde146103fc578063bee5493b14610418578063c87b56dd14610448578063e985e9c5146104785761014d565b80634e71d92d146102ee5780634f6ccce7146102f85780636352211e146103285780636c0360eb1461035857806370a082311461037657806370a23d9b146103a65761014d565b806318160ddd1161011557806318160ddd1461021c57806323b872dd1461023a5780632b9a46ad146102565780632f745c591461028657806340c10f19146102b657806342842e0e146102d25761014d565b806301ffc9a71461015257806306fdde0314610182578063081812fc146101a0578063095ea7b3146101d05780630a2642bf146101ec575b600080fd5b61016c60048036038101906101679190612232565b6104a8565b6040516101799190612b33565b60405180910390f35b61018a61050f565b6040516101979190612b4e565b60405180910390f35b6101ba60048036038101906101b59190612284565b6105b1565b6040516101c79190612ab1565b60405180910390f35b6101ea60048036038101906101e591906121f6565b610636565b005b61020660048036038101906102019190612284565b61074e565b6040516102139190612db0565b60405180910390f35b61022461076f565b6040516102319190612db0565b60405180910390f35b610254600480360381019061024f91906120f0565b610780565b005b610270600480360381019061026b919061208b565b6107e0565b60405161027d9190612db0565b60405180910390f35b6102a0600480360381019061029b91906121f6565b6107f8565b6040516102ad9190612db0565b60405180910390f35b6102d060048036038101906102cb91906121f6565b610853565b005b6102ec60048036038101906102e791906120f0565b610892565b005b6102f66108b2565b005b610312600480360381019061030d9190612284565b610938565b60405161031f9190612db0565b60405180910390f35b610342600480360381019061033d9190612284565b61095b565b60405161034f9190612ab1565b60405180910390f35b610360610992565b60405161036d9190612b4e565b60405180910390f35b610390600480360381019061038b919061208b565b610a34565b60405161039d9190612db0565b60405180910390f35b6103c060048036038101906103bb91906122ad565b610af3565b005b6103ca610b7b565b6040516103d79190612b4e565b60405180910390f35b6103fa60048036038101906103f591906121ba565b610c1d565b005b6104166004803603810190610411919061213f565b610d9e565b005b610432600480360381019061042d9190612284565b610e00565b60405161043f9190612db0565b60405180910390f35b610462600480360381019061045d9190612284565b610e21565b60405161046f9190612b4e565b60405180910390f35b610492600480360381019061048d91906120b4565b610fa4565b60405161049f9190612b33565b60405180910390f35b6000806000837bffffffffffffffffffffffffffffffffffffffffffffffffffffffff19167bffffffffffffffffffffffffffffffffffffffffffffffffffffffff1916815260200190815260200160002060009054906101000a900460ff169050919050565b606060068054600181600116156101000203166002900480601f0160208091040260200160405190810160405280929190818152602001828054600181600116156101000203166002900480156105a75780601f1061057c576101008083540402835291602001916105a7565b820191906000526020600020905b81548152906001019060200180831161058a57829003601f168201915b5050505050905090565b60006105bc82611038565b6105fb576040517f08c379a00000000000000000000000000000000000000000000000000000000081526004016105f290612cf0565b60405180910390fd5b6004600083815260200190815260200160002060009054906101000a900473ffffffffffffffffffffffffffffffffffffffff169050919050565b60006106418261095b565b90508073ffffffffffffffffffffffffffffffffffffffff168373ffffffffffffffffffffffffffffffffffffffff1614156106b2576040517f08c379a00000000000000000000000000000000000000000000000000000000081526004016106a990612d50565b60405180910390fd5b8073ffffffffffffffffffffffffffffffffffffffff166106d1611055565b73ffffffffffffffffffffffffffffffffffffffff16148061070057506106ff816106fa611055565b610fa4565b5b61073f576040517f08c379a000000000000000000000000000000000000000000000000000000000815260040161073690612c70565b60405180910390fd5b610749838361105d565b505050565b600a818154811061075b57fe5b906000526020600020016000915090505481565b600061077b6002611116565b905090565b61079161078b611055565b8261112b565b6107d0576040517f08c379a00000000000000000000000000000000000000000000000000000000081526004016107c790612d70565b60405180910390fd5b6107db838383611209565b505050565b600b6020528060005260406000206000915090505481565b600061084b82600160008673ffffffffffffffffffffffffffffffffffffffff1673ffffffffffffffffffffffffffffffffffffffff16815260200190815260200160002061142090919063ffffffff16565b905092915050565b600a81908060018154018082558091505060019003906000526020600020016000909190919091505561088e826001600a805490500361143a565b5050565b6108ad83838360405180602001604052806000815250610d9e565b505050565b680ad78ebc5ac6200000600b60003373ffffffffffffffffffffffffffffffffffffffff1673ffffffffffffffffffffffffffffffffffffffff168152602001908152602001600020819055507f4679a537ec93499901bc8881ac673137f619ec05731e8b42506278f3d10c58cc3360405161092e9190612acc565b60405180910390a1565b60008061094f8360026115c890919063ffffffff16565b50905080915050919050565b600061098b826040518060600160405280602981526020016130396029913960026115f79092919063ffffffff16565b9050919050565b606060098054600181600116156101000203166002900480601f016020809104026020016040519081016040528092919081815260200182805460018160011615610100020316600290048015610a2a5780601f106109ff57610100808354040283529160200191610a2a565b820191906000526020600020905b815481529060010190602001808311610a0d57829003601f168201915b5050505050905090565b60008073ffffffffffffffffffffffffffffffffffffffff168273ffffffffffffffffffffffffffffffffffffffff161415610aa5576040517f08c379a0000000000000000000000000000000000000000000000000000000008152600401610a9c90612c90565b60405180910390fd5b610aec600160008473ffffffffffffffffffffffffffffffffffffffff1673ffffffffffffffffffffffffffffffffffffffff168152602001908152602001600020611616565b9050919050565b6000600a8381548110610b0257fe5b90600052602060002001549050610b22828261162b90919063ffffffff16565b600a8481548110610b2f57fe5b90600052602060002001819055507f0c605aa976f8102598e9b10ae689cdaaf419574c44c640e116cd74f404941e798383604051610b6e929190612dcb565b60405180910390a1505050565b606060078054600181600116156101000203166002900480601f016020809104026020016040519081016040528092919081815260200182805460018160011615610100020316600290048015610c135780601f10610be857610100808354040283529160200191610c13565b820191906000526020600020905b815481529060010190602001808311610bf657829003601f168201915b5050505050905090565b610c25611055565b73ffffffffffffffffffffffffffffffffffffffff168273ffffffffffffffffffffffffffffffffffffffff161415610c93576040517f08c379a0000000000000000000000000000000000000000000000000000000008152600401610c8a90612bf0565b60405180910390fd5b8060056000610ca0611055565b73ffffffffffffffffffffffffffffffffffffffff1673ffffffffffffffffffffffffffffffffffffffff16815260200190815260200160002060008473ffffffffffffffffffffffffffffffffffffffff1673ffffffffffffffffffffffffffffffffffffffff16815260200190815260200160002060006101000a81548160ff0219169083151502179055508173ffffffffffffffffffffffffffffffffffffffff16610d4d611055565b73ffffffffffffffffffffffffffffffffffffffff167f17307eab39ab6107e8899845ad3d59bd9653f200f220920489ca2b5937696c3183604051610d929190612b33565b60405180910390a35050565b610daf610da9611055565b8361112b565b610dee576040517f08c379a0000000000000000000000000000000000000000000000000000000008152600401610de590612d70565b60405180910390fd5b610dfa8484848461167b565b50505050565b6000600a8281548110610e0f57fe5b90600052602060002001549050919050565b6060610e2c82611038565b610e6b576040517f08c379a0000000000000000000000000000000000000000000000000000000008152600401610e6290612d30565b60405180910390fd5b6060600860008481526020019081526020016000208054600181600116156101000203166002900480601f016020809104026020016040519081016040528092919081815260200182805460018160011615610100020316600290048015610f145780601f10610ee957610100808354040283529160200191610f14565b820191906000526020600020905b815481529060010190602001808311610ef757829003601f168201915b505050505090506060610f25610992565b9050600081511415610f3b578192505050610f9f565b600082511115610f70578082604051602001610f58929190612a8d565b60405160208183030381529060405292505050610f9f565b80610f7a856116d7565b604051602001610f8b929190612a8d565b604051602081830303815290604052925050505b919050565b6000600560008473ffffffffffffffffffffffffffffffffffffffff1673ffffffffffffffffffffffffffffffffffffffff16815260200190815260200160002060008373ffffffffffffffffffffffffffffffffffffffff1673ffffffffffffffffffffffffffffffffffffffff16815260200190815260200160002060009054906101000a900460ff16905092915050565b600061104e82600261181e90919063ffffffff16565b9050919050565b600033905090565b816004600083815260200190815260200160002060006101000a81548173ffffffffffffffffffffffffffffffffffffffff021916908373ffffffffffffffffffffffffffffffffffffffff160217905550808273ffffffffffffffffffffffffffffffffffffffff166110d08361095b565b73ffffffffffffffffffffffffffffffffffffffff167f8c5be1e5ebec7d5bd14f71427d1e84f3dd0314c0f7b2291e5b200ac8c7c3b92560405160405180910390a45050565b600061112482600001611838565b9050919050565b600061113682611038565b611175576040517f08c379a000000000000000000000000000000000000000000000000000000000815260040161116c90612c50565b60405180910390fd5b60006111808361095b565b90508073ffffffffffffffffffffffffffffffffffffffff168473ffffffffffffffffffffffffffffffffffffffff1614806111ef57508373ffffffffffffffffffffffffffffffffffffffff166111d7846105b1565b73ffffffffffffffffffffffffffffffffffffffff16145b8061120057506111ff8185610fa4565b5b91505092915050565b8273ffffffffffffffffffffffffffffffffffffffff166112298261095b565b73ffffffffffffffffffffffffffffffffffffffff161461127f576040517f08c379a000000000000000000000000000000000000000000000000000000000815260040161127690612d10565b60405180910390fd5b600073ffffffffffffffffffffffffffffffffffffffff168273ffffffffffffffffffffffffffffffffffffffff1614156112ef576040517f08c379a00000000000000000000000000000000000000000000000000000000081526004016112e690612bd0565b60405180910390fd5b6112fa838383611849565b61130560008261105d565b61135681600160008673ffffffffffffffffffffffffffffffffffffffff1673ffffffffffffffffffffffffffffffffffffffff16815260200190815260200160002061184e90919063ffffffff16565b506113a881600160008573ffffffffffffffffffffffffffffffffffffffff1673ffffffffffffffffffffffffffffffffffffffff16815260200190815260200160002061186890919063ffffffff16565b506113bf818360026118829092919063ffffffff16565b50808273ffffffffffffffffffffffffffffffffffffffff168473ffffffffffffffffffffffffffffffffffffffff167fddf252ad1be2c89b69c2b068fc378daa952ba7f163c4a11628f55a4df523b3ef60405160405180910390a4505050565b600061142f83600001836118b7565b60001c905092915050565b600073ffffffffffffffffffffffffffffffffffffffff168273ffffffffffffffffffffffffffffffffffffffff1614156114aa576040517f08c379a00000000000000000000000000000000000000000000000000000000081526004016114a190612cd0565b60405180910390fd5b6114b381611038565b156114f3576040517f08c379a00000000000000000000000000000000000000000000000000000000081526004016114ea90612bb0565b60405180910390fd5b6114ff60008383611849565b61155081600160008573ffffffffffffffffffffffffffffffffffffffff1673ffffffffffffffffffffffffffffffffffffffff16815260200190815260200160002061186890919063ffffffff16565b50611567818360026118829092919063ffffffff16565b50808273ffffffffffffffffffffffffffffffffffffffff16600073ffffffffffffffffffffffffffffffffffffffff167fddf252ad1be2c89b69c2b068fc378daa952ba7f163c4a11628f55a4df523b3ef60405160405180910390a45050565b6000806000806115db8660000186611924565b915091508160001c8160001c8090509350935050509250929050565b600061160a846000018460001b846119a7565b60001c90509392505050565b600061162482600001611a38565b9050919050565b600082821115611670576040517f08c379a000000000000000000000000000000000000000000000000000000000815260040161166790612c10565b60405180910390fd5b818303905092915050565b611686848484611209565b61169284848484611a49565b6116d1576040517f08c379a00000000000000000000000000000000000000000000000000000000081526004016116c890612b90565b60405180910390fd5b50505050565b6060600082141561171f576040518060400160405280600181526020017f30000000000000000000000000000000000000000000000000000000000000008152509050611819565b600082905060005b60008214611749578080600101915050600a828161174157fe5b049150611727565b60608167ffffffffffffffff8111801561176257600080fd5b506040519080825280601f01601f1916602001820160405280156117955781602001600182028036833780820191505090505b50905060006001830390508593505b6000841461181157600a84816117b657fe5b0660300160f81b828280600190039350815181106117d057fe5b60200101907effffffffffffffffffffffffffffffffffffffffffffffffffffffffffffff1916908160001a905350600a848161180957fe5b0493506117a4565b819450505050505b919050565b6000611830836000018360001b611bad565b905092915050565b600081600001805490509050919050565b505050565b6000611860836000018360001b611bd0565b905092915050565b600061187a836000018360001b611cb8565b905092915050565b60006118ae846000018460001b8473ffffffffffffffffffffffffffffffffffffffff1660001b611d28565b90509392505050565b600081836000018054905011611902576040517f08c379a00000000000000000000000000000000000000000000000000000000081526004016118f990612b70565b60405180910390fd5b82600001828154811061191157fe5b9060005260206000200154905092915050565b60008082846000018054905011611970576040517f08c379a000000000000000000000000000000000000000000000000000000000815260040161196790612cb0565b60405180910390fd5b600084600001848154811061198157fe5b906000526020600020906002020190508060000154816001015492509250509250929050565b60008084600101600085815260200190815260200160002054905060008114158390611a09576040517f08c379a0000000000000000000000000000000000000000000000000000000008152600401611a009190612b4e565b60405180910390fd5b50846000016001820381548110611a1c57fe5b9060005260206000209060020201600101549150509392505050565b600081600001805490509050919050565b6000611a6a8473ffffffffffffffffffffffffffffffffffffffff16611e04565b611a775760019050611ba5565b6060611b3e63150b7a0260e01b611a8c611055565b888787604051602401611aa29493929190612ae7565b604051602081830303815290604052907bffffffffffffffffffffffffffffffffffffffffffffffffffffffff19166020820180517bffffffffffffffffffffffffffffffffffffffffffffffffffffffff8381831617835250505050604051806060016040528060328152602001613007603291398773ffffffffffffffffffffffffffffffffffffffff16611e179092919063ffffffff16565b9050600081806020019051810190611b56919061225b565b905063150b7a0260e01b7bffffffffffffffffffffffffffffffffffffffffffffffffffffffff1916817bffffffffffffffffffffffffffffffffffffffffffffffffffffffff191614925050505b949350505050565b600080836001016000848152602001908152602001600020541415905092915050565b60008083600101600084815260200190815260200160002054905060008114611cac5760006001820390506000600186600001805490500390506000866000018281548110611c1b57fe5b9060005260206000200154905080876000018481548110611c3857fe5b9060005260206000200181905550600183018760010160008381526020019081526020016000208190555086600001805480611c7057fe5b60019003818190600052602060002001600090559055866001016000878152602001908152602001600020600090556001945050505050611cb2565b60009150505b92915050565b6000611cc48383611e2f565b611d1d578260000182908060018154018082558091505060019003906000526020600020016000909190919091505582600001805490508360010160008481526020019081526020016000208190555060019050611d22565b600090505b92915050565b6000808460010160008581526020019081526020016000205490506000811415611dcf57846000016040518060400160405280868152602001858152509080600181540180825580915050600190039060005260206000209060020201600090919091909150600082015181600001556020820151816001015550508460000180549050856001016000868152602001908152602001600020819055506001915050611dfd565b82856000016001830381548110611de257fe5b90600052602060002090600202016001018190555060009150505b9392505050565b600080823b905060008111915050919050565b6060611e268484600085611e52565b90509392505050565b600080836001016000848152602001908152602001600020541415905092915050565b606082471015611e97576040517f08c379a0000000000000000000000000000000000000000000000000000000008152600401611e8e90612c30565b60405180910390fd5b611ea085611e04565b611edf576040517f08c379a0000000000000000000000000000000000000000000000000000000008152600401611ed690612d90565b60405180910390fd5b600060608673ffffffffffffffffffffffffffffffffffffffff168587604051611f099190612a76565b60006040518083038185875af1925050503d8060008114611f46576040519150601f19603f3d011682016040523d82523d6000602084013e611f4b565b606091505b5091509150611f5b828286611f67565b92505050949350505050565b60608315611f7757829050611fc7565b600083511115611f8a5782518084602001fd5b816040517f08c379a0000000000000000000000000000000000000000000000000000000008152600401611fbe9190612b4e565b60405180910390fd5b9392505050565b600081359050611fdd81612faa565b92915050565b600081359050611ff281612fc1565b92915050565b60008135905061200781612fd8565b92915050565b60008151905061201c81612fd8565b92915050565b600082601f83011261203357600080fd5b813561204661204182612e21565b612df4565b9150808252602083016020830185838301111561206257600080fd5b61206d838284612f57565b50505092915050565b60008135905061208581612fef565b92915050565b60006020828403121561209d57600080fd5b60006120ab84828501611fce565b91505092915050565b600080604083850312156120c757600080fd5b60006120d585828601611fce565b92505060206120e685828601611fce565b9150509250929050565b60008060006060848603121561210557600080fd5b600061211386828701611fce565b935050602061212486828701611fce565b925050604061213586828701612076565b9150509250925092565b6000806000806080858703121561215557600080fd5b600061216387828801611fce565b945050602061217487828801611fce565b935050604061218587828801612076565b925050606085013567ffffffffffffffff8111156121a257600080fd5b6121ae87828801612022565b91505092959194509250565b600080604083850312156121cd57600080fd5b60006121db85828601611fce565b92505060206121ec85828601611fe3565b9150509250929050565b6000806040838503121561220957600080fd5b600061221785828601611fce565b925050602061222885828601612076565b9150509250929050565b60006020828403121561224457600080fd5b600061225284828501611ff8565b91505092915050565b60006020828403121561226d57600080fd5b600061227b8482850161200d565b91505092915050565b60006020828403121561229657600080fd5b60006122a484828501612076565b91505092915050565b600080604083850312156122c057600080fd5b60006122ce85828601612076565b92505060206122df85828601612076565b9150509250929050565b6122f281612f21565b82525050565b61230181612ead565b82525050565b61231081612e9b565b82525050565b61231f81612ebf565b82525050565b600061233082612e4d565b61233a8185612e63565b935061234a818560208601612f66565b61235381612f99565b840191505092915050565b600061236982612e4d565b6123738185612e74565b9350612383818560208601612f66565b80840191505092915050565b600061239a82612e58565b6123a48185612e7f565b93506123b4818560208601612f66565b6123bd81612f99565b840191505092915050565b60006123d382612e58565b6123dd8185612e90565b93506123ed818560208601612f66565b80840191505092915050565b6000612406602283612e7f565b91507f456e756d657261626c655365743a20696e646578206f7574206f6620626f756e60008301527f64730000000000000000000000000000000000000000000000000000000000006020830152604082019050919050565b600061246c603283612e7f565b91507f4552433732313a207472616e7366657220746f206e6f6e20455243373231526560008301527f63656976657220696d706c656d656e74657200000000000000000000000000006020830152604082019050919050565b60006124d2601c83612e7f565b91507f4552433732313a20746f6b656e20616c7265616479206d696e746564000000006000830152602082019050919050565b6000612512602483612e7f565b91507f4552433732313a207472616e7366657220746f20746865207a65726f2061646460008301527f72657373000000000000000000000000000000000000000000000000000000006020830152604082019050919050565b6000612578601983612e7f565b91507f4552433732313a20617070726f766520746f2063616c6c6572000000000000006000830152602082019050919050565b60006125b8601e83612e7f565b91507f536166654d6174683a207375627472616374696f6e206f766572666c6f7700006000830152602082019050919050565b60006125f8602683612e7f565b91507f416464726573733a20696e73756666696369656e742062616c616e636520666f60008301527f722063616c6c00000000000000000000000000000000000000000000000000006020830152604082019050919050565b600061265e602c83612e7f565b91507f4552433732313a206f70657261746f7220717565727920666f72206e6f6e657860008301527f697374656e7420746f6b656e00000000000000000000000000000000000000006020830152604082019050919050565b60006126c4603883612e7f565b91507f4552433732313a20617070726f76652063616c6c6572206973206e6f74206f7760008301527f6e6572206e6f7220617070726f76656420666f7220616c6c00000000000000006020830152604082019050919050565b600061272a602a83612e7f565b91507f4552433732313a2062616c616e636520717565727920666f7220746865207a6560008301527f726f2061646472657373000000000000000000000000000000000000000000006020830152604082019050919050565b6000612790602283612e7f565b91507f456e756d657261626c654d61703a20696e646578206f7574206f6620626f756e60008301527f64730000000000000000000000000000000000000000000000000000000000006020830152604082019050919050565b60006127f6602083612e7f565b91507f4552433732313a206d696e7420746f20746865207a65726f20616464726573736000830152602082019050919050565b6000612836602c83612e7f565b91507f4552433732313a20617070726f76656420717565727920666f72206e6f6e657860008301527f697374656e7420746f6b656e00000000000000000000000000000000000000006020830152604082019050919050565b600061289c602983612e7f565b91507f4552433732313a207472616e73666572206f6620746f6b656e2074686174206960008301527f73206e6f74206f776e00000000000000000000000000000000000000000000006020830152604082019050919050565b6000612902602f83612e7f565b91507f4552433732314d657461646174613a2055524920717565727920666f72206e6f60008301527f6e6578697374656e7420746f6b656e00000000000000000000000000000000006020830152604082019050919050565b6000612968602183612e7f565b91507f4552433732313a20617070726f76616c20746f2063757272656e74206f776e6560008301527f72000000000000000000000000000000000000000000000000000000000000006020830152604082019050919050565b60006129ce603183612e7f565b91507f4552433732313a207472616e736665722063616c6c6572206973206e6f74206f60008301527f776e6572206e6f7220617070726f7665640000000000000000000000000000006020830152604082019050919050565b6000612a34601d83612e7f565b91507f416464726573733a2063616c6c20746f206e6f6e2d636f6e74726163740000006000830152602082019050919050565b612a7081612f17565b82525050565b6000612a82828461235e565b915081905092915050565b6000612a9982856123c8565b9150612aa582846123c8565b91508190509392505050565b6000602082019050612ac66000830184612307565b92915050565b6000602082019050612ae160008301846122e9565b92915050565b6000608082019050612afc60008301876122f8565b612b096020830186612307565b612b166040830185612a67565b8181036060830152612b288184612325565b905095945050505050565b6000602082019050612b486000830184612316565b92915050565b60006020820190508181036000830152612b68818461238f565b905092915050565b60006020820190508181036000830152612b89816123f9565b9050919050565b60006020820190508181036000830152612ba98161245f565b9050919050565b60006020820190508181036000830152612bc9816124c5565b9050919050565b60006020820190508181036000830152612be981612505565b9050919050565b60006020820190508181036000830152612c098161256b565b9050919050565b60006020820190508181036000830152612c29816125ab565b9050919050565b60006020820190508181036000830152612c49816125eb565b9050919050565b60006020820190508181036000830152612c6981612651565b9050919050565b60006020820190508181036000830152612c89816126b7565b9050919050565b60006020820190508181036000830152612ca98161271d565b9050919050565b60006020820190508181036000830152612cc981612783565b9050919050565b60006020820190508181036000830152612ce9816127e9565b9050919050565b60006020820190508181036000830152612d0981612829565b9050919050565b60006020820190508181036000830152612d298161288f565b9050919050565b60006020820190508181036000830152612d49816128f5565b9050919050565b60006020820190508181036000830152612d698161295b565b9050919050565b60006020820190508181036000830152612d89816129c1565b9050919050565b60006020820190508181036000830152612da981612a27565b9050919050565b6000602082019050612dc56000830184612a67565b92915050565b6000604082019050612de06000830185612a67565b612ded6020830184612a67565b9392505050565b6000604051905081810181811067ffffffffffffffff82111715612e1757600080fd5b8060405250919050565b600067ffffffffffffffff821115612e3857600080fd5b601f19601f8301169050602081019050919050565b600081519050919050565b600081519050919050565b600082825260208201905092915050565b600081905092915050565b600082825260208201905092915050565b600081905092915050565b6000612ea682612ef7565b9050919050565b6000612eb882612ef7565b9050919050565b60008115159050919050565b60007fffffffff0000000000000000000000000000000000000000000000000000000082169050919050565b600073ffffffffffffffffffffffffffffffffffffffff82169050919050565b6000819050919050565b6000612f2c82612f33565b9050919050565b6000612f3e82612f45565b9050919050565b6000612f5082612ef7565b9050919050565b82818337600083830152505050565b60005b83811015612f84578082015181840152602081019050612f69565b83811115612f93576000848401525b50505050565b6000601f19601f8301169050919050565b612fb381612e9b565b8114612fbe57600080fd5b50565b612fca81612ebf565b8114612fd557600080fd5b50565b612fe181612ecb565b8114612fec57600080fd5b50565b612ff881612f17565b811461300357600080fd5b5056fe4552433732313a207472616e7366657220746f206e6f6e20455243373231526563656976657220696d706c656d656e7465724552433732313a206f776e657220717565727920666f72206e6f6e6578697374656e7420746f6b656ea26469706673582212204963335aeb153fe257c83e8f68892714c3f367a9d2192f5968e70c656077c60a64736f6c63430006060033",
  "immutableReferences": {},
  "source": "// We will be using Solidity version 0.5.3\r\npragma solidity =0.6.6;\r\npragma experimental ABIEncoderV2;\r\n\r\n// Import the IERC20 interface and and SafeMath library\r\nimport '@openzeppelin/contracts/token/ERC20/IERC20.sol';\r\nimport '@openzeppelin/contracts/token/ERC721/ERC721.sol';\r\n\r\ncontract TestNFT is ERC721 {\r\n    constructor() ERC721('TestERC721', 'TEST') public {\r\n    }\r\n\r\n    uint256[] public allocations;\r\n    mapping(address => uint256) public userToAllocation;\r\n\r\n    event AllocationSpent(uint256 id, uint256 amount);\r\n    event UserClaimed(address user);\r\n\r\n    function mint(address to, uint256 value) public {\r\n        allocations.push(value);\r\n        _mint(to, allocations.length - 1);\r\n    }\r\n\r\n    function getAvailableAllocation(uint256 id) public view returns (uint256) {\r\n        return allocations[id];\r\n    }\r\n\r\n    function spendAllocation(uint256 id, uint256 amount) public {\r\n        uint256 allocation = allocations[id];\r\n        allocations[id] = allocation.sub(amount);\r\n        emit AllocationSpent(id, amount);\r\n    }\r\n\r\n    function claim() public {\r\n        userToAllocation[msg.sender]=200*1 ether;\r\n        emit UserClaimed(msg.sender);\r\n    }\r\n}",
  "sourcePath": "D:\\blockchain\\sinDong\\sinDong\\fund-raising\\contracts\\test\\TestNFT.sol",
  "compiler": {
    "name": "solc",
    "version": "0.6.6+commit.6c089d02.Emscripten.clang"
  },
  "schemaVersion": "3.4.3",
  "updatedAt": "2022-02-06T14:09:42.307Z",
  "devdoc": {
    "methods": {
      "approve(address,uint256)": {
        "details": "See {IERC721-approve}."
      },
      "balanceOf(address)": {
        "details": "See {IERC721-balanceOf}."
      },
      "baseURI()": {
        "details": "Returns the base URI set via {_setBaseURI}. This will be automatically added as a prefix in {tokenURI} to each token's URI, or to the token ID if no specific URI is set for that token ID."
      },
      "getApproved(uint256)": {
        "details": "See {IERC721-getApproved}."
      },
      "isApprovedForAll(address,address)": {
        "details": "See {IERC721-isApprovedForAll}."
      },
      "name()": {
        "details": "See {IERC721Metadata-name}."
      },
      "ownerOf(uint256)": {
        "details": "See {IERC721-ownerOf}."
      },
      "safeTransferFrom(address,address,uint256)": {
        "details": "See {IERC721-safeTransferFrom}."
      },
      "safeTransferFrom(address,address,uint256,bytes)": {
        "details": "See {IERC721-safeTransferFrom}."
      },
      "setApprovalForAll(address,bool)": {
        "details": "See {IERC721-setApprovalForAll}."
      },
      "supportsInterface(bytes4)": {
        "details": "See {IERC165-supportsInterface}.     * Time complexity O(1), guaranteed to always use less than 30 000 gas."
      },
      "symbol()": {
        "details": "See {IERC721Metadata-symbol}."
      },
      "tokenByIndex(uint256)": {
        "details": "See {IERC721Enumerable-tokenByIndex}."
      },
      "tokenOfOwnerByIndex(address,uint256)": {
        "details": "See {IERC721Enumerable-tokenOfOwnerByIndex}."
      },
      "tokenURI(uint256)": {
        "details": "See {IERC721Metadata-tokenURI}."
      },
      "totalSupply()": {
        "details": "See {IERC721Enumerable-totalSupply}."
      },
      "transferFrom(address,address,uint256)": {
        "details": "See {IERC721-transferFrom}."
      }
    }
  },
  "userdoc": {
    "methods": {}
  }
}