{
    "contractName": "TestNFT",
    "abi": [
        {
            "inputs": [],
            "stateMutability": "nonpayable",
            "type": "constructor"
        },
        {
            "anonymous": false,
            "inputs": [
                {
                    "indexed": false,
                    "internalType": "uint256",
                    "name": "id",
                    "type": "uint256"
                },
                {
                    "indexed": false,
                    "internalType": "uint256",
                    "name": "amount",
                    "type": "uint256"
                }
            ],
            "name": "AllocationSpent",
            "type": "event"
        },
        {
            "anonymous": false,
            "inputs": [
                {
                    "indexed": true,
                    "internalType": "address",
                    "name": "owner",
                    "type": "address"
                },
                {
                    "indexed": true,
                    "internalType": "address",
                    "name": "approved",
                    "type": "address"
                },
                {
                    "indexed": true,
                    "internalType": "uint256",
                    "name": "tokenId",
                    "type": "uint256"
                }
            ],
            "name": "Approval",
            "type": "event"
        },
        {
            "anonymous": false,
            "inputs": [
                {
                    "indexed": true,
                    "internalType": "address",
                    "name": "owner",
                    "type": "address"
                },
                {
                    "indexed": true,
                    "internalType": "address",
                    "name": "operator",
                    "type": "address"
                },
                {
                    "indexed": false,
                    "internalType": "bool",
                    "name": "approved",
                    "type": "bool"
                }
            ],
            "name": "ApprovalForAll",
            "type": "event"
        },
        {
            "anonymous": false,
            "inputs": [
                {
                    "indexed": true,
                    "internalType": "address",
                    "name": "from",
                    "type": "address"
                },
                {
                    "indexed": true,
                    "internalType": "address",
                    "name": "to",
                    "type": "address"
                },
                {
                    "indexed": true,
                    "internalType": "uint256",
                    "name": "tokenId",
                    "type": "uint256"
                }
            ],
            "name": "Transfer",
            "type": "event"
        },
        {
            "inputs": [
                {
                    "internalType": "uint256",
                    "name": "",
                    "type": "uint256"
                }
            ],
            "name": "allocations",
            "outputs": [
                {
                    "internalType": "uint256",
                    "name": "",
                    "type": "uint256"
                }
            ],
            "stateMutability": "view",
            "type": "function"
        },
        {
            "inputs": [
                {
                    "internalType": "address",
                    "name": "to",
                    "type": "address"
                },
                {
                    "internalType": "uint256",
                    "name": "tokenId",
                    "type": "uint256"
                }
            ],
            "name": "approve",
            "outputs": [],
            "stateMutability": "nonpayable",
            "type": "function"
        },
        {
            "inputs": [
                {
                    "internalType": "address",
                    "name": "owner",
                    "type": "address"
                }
            ],
            "name": "balanceOf",
            "outputs": [
                {
                    "internalType": "uint256",
                    "name": "",
                    "type": "uint256"
                }
            ],
            "stateMutability": "view",
            "type": "function"
        },
        {
            "inputs": [],
            "name": "baseURI",
            "outputs": [
                {
                    "internalType": "string",
                    "name": "",
                    "type": "string"
                }
            ],
            "stateMutability": "view",
            "type": "function"
        },
        {
            "inputs": [
                {
                    "internalType": "uint256",
                    "name": "tokenId",
                    "type": "uint256"
                }
            ],
            "name": "getApproved",
            "outputs": [
                {
                    "internalType": "address",
                    "name": "",
                    "type": "address"
                }
            ],
            "stateMutability": "view",
            "type": "function"
        },
        {
            "inputs": [
                {
                    "internalType": "address",
                    "name": "owner",
                    "type": "address"
                },
                {
                    "internalType": "address",
                    "name": "operator",
                    "type": "address"
                }
            ],
            "name": "isApprovedForAll",
            "outputs": [
                {
                    "internalType": "bool",
                    "name": "",
                    "type": "bool"
                }
            ],
            "stateMutability": "view",
            "type": "function"
        },
        {
            "inputs": [],
            "name": "name",
            "outputs": [
                {
                    "internalType": "string",
                    "name": "",
                    "type": "string"
                }
            ],
            "stateMutability": "view",
            "type": "function"
        },
        {
            "inputs": [
                {
                    "internalType": "uint256",
                    "name": "tokenId",
                    "type": "uint256"
                }
            ],
            "name": "ownerOf",
            "outputs": [
                {
                    "internalType": "address",
                    "name": "",
                    "type": "address"
                }
            ],
            "stateMutability": "view",
            "type": "function"
        },
        {
            "inputs": [
                {
                    "internalType": "address",
                    "name": "from",
                    "type": "address"
                },
                {
                    "internalType": "address",
                    "name": "to",
                    "type": "address"
                },
                {
                    "internalType": "uint256",
                    "name": "tokenId",
                    "type": "uint256"
                }
            ],
            "name": "safeTransferFrom",
            "outputs": [],
            "stateMutability": "nonpayable",
            "type": "function"
        },
        {
            "inputs": [
                {
                    "internalType": "address",
                    "name": "from",
                    "type": "address"
                },
                {
                    "internalType": "address",
                    "name": "to",
                    "type": "address"
                },
                {
                    "internalType": "uint256",
                    "name": "tokenId",
                    "type": "uint256"
                },
                {
                    "internalType": "bytes",
                    "name": "_data",
                    "type": "bytes"
                }
            ],
            "name": "safeTransferFrom",
            "outputs": [],
            "stateMutability": "nonpayable",
            "type": "function"
        },
        {
            "inputs": [
                {
                    "internalType": "address",
                    "name": "operator",
                    "type": "address"
                },
                {
                    "internalType": "bool",
                    "name": "approved",
                    "type": "bool"
                }
            ],
            "name": "setApprovalForAll",
            "outputs": [],
            "stateMutability": "nonpayable",
            "type": "function"
        },
        {
            "inputs": [
                {
                    "internalType": "bytes4",
                    "name": "interfaceId",
                    "type": "bytes4"
                }
            ],
            "name": "supportsInterface",
            "outputs": [
                {
                    "internalType": "bool",
                    "name": "",
                    "type": "bool"
                }
            ],
            "stateMutability": "view",
            "type": "function"
        },
        {
            "inputs": [],
            "name": "symbol",
            "outputs": [
                {
                    "internalType": "string",
                    "name": "",
                    "type": "string"
                }
            ],
            "stateMutability": "view",
            "type": "function"
        },
        {
            "inputs": [
                {
                    "internalType": "uint256",
                    "name": "index",
                    "type": "uint256"
                }
            ],
            "name": "tokenByIndex",
            "outputs": [
                {
                    "internalType": "uint256",
                    "name": "",
                    "type": "uint256"
                }
            ],
            "stateMutability": "view",
            "type": "function"
        },
        {
            "inputs": [
                {
                    "internalType": "address",
                    "name": "owner",
                    "type": "address"
                },
                {
                    "internalType": "uint256",
                    "name": "index",
                    "type": "uint256"
                }
            ],
            "name": "tokenOfOwnerByIndex",
            "outputs": [
                {
                    "internalType": "uint256",
                    "name": "",
                    "type": "uint256"
                }
            ],
            "stateMutability": "view",
            "type": "function"
        },
        {
            "inputs": [
                {
                    "internalType": "uint256",
                    "name": "tokenId",
                    "type": "uint256"
                }
            ],
            "name": "tokenURI",
            "outputs": [
                {
                    "internalType": "string",
                    "name": "",
                    "type": "string"
                }
            ],
            "stateMutability": "view",
            "type": "function"
        },
        {
            "inputs": [],
            "name": "totalSupply",
            "outputs": [
                {
                    "internalType": "uint256",
                    "name": "",
                    "type": "uint256"
                }
            ],
            "stateMutability": "view",
            "type": "function"
        },
        {
            "inputs": [
                {
                    "internalType": "address",
                    "name": "from",
                    "type": "address"
                },
                {
                    "internalType": "address",
                    "name": "to",
                    "type": "address"
                },
                {
                    "internalType": "uint256",
                    "name": "tokenId",
                    "type": "uint256"
                }
            ],
            "name": "transferFrom",
            "outputs": [],
            "stateMutability": "nonpayable",
            "type": "function"
        },
        {
            "inputs": [
                {
                    "internalType": "address",
                    "name": "",
                    "type": "address"
                }
            ],
            "name": "userToAllocation",
            "outputs": [
                {
                    "internalType": "uint256",
                    "name": "",
                    "type": "uint256"
                }
            ],
            "stateMutability": "view",
            "type": "function"
        },
        {
            "inputs": [
                {
                    "internalType": "address",
                    "name": "to",
                    "type": "address"
                },
                {
                    "internalType": "uint256",
                    "name": "value",
                    "type": "uint256"
                }
            ],
            "name": "mint",
            "outputs": [],
            "stateMutability": "nonpayable",
            "type": "function"
        },
        {
            "inputs": [
                {
                    "internalType": "uint256",
                    "name": "id",
                    "type": "uint256"
                }
            ],
            "name": "getAvailableAllocation",
            "outputs": [
                {
                    "internalType": "uint256",
                    "name": "",
                    "type": "uint256"
                }
            ],
            "stateMutability": "view",
            "type": "function"
        },
        {
            "inputs": [
                {
                    "internalType": "uint256",
                    "name": "id",
                    "type": "uint256"
                },
                {
                    "internalType": "uint256",
                    "name": "amount",
                    "type": "uint256"
                }
            ],
            "name": "spendAllocation",
            "outputs": [],
            "stateMutability": "nonpayable",
            "type": "function"
        }
    ],
    "bytecode": "0x60806040523480156200001157600080fd5b506040518060400160405280600a81526020017f54657374455243373231000000000000000000000000000000000000000000008152506040518060400160405280600481526020017f5445535400000000000000000000000000000000000000000000000000000000815250620000966301ffc9a760e01b6200011860201b60201c565b8160069080519060200190620000ae929190620001f0565b508060079080519060200190620000c7929190620001f0565b50620000e06380ac58cd60e01b6200011860201b60201c565b620000f8635b5e139f60e01b6200011860201b60201c565b6200011063780e9d6360e01b6200011860201b60201c565b505062000314565b63ffffffff60e01b817bffffffffffffffffffffffffffffffffffffffffffffffffffffffff1916141562000184576040517f08c379a00000000000000000000000000000000000000000000000000000000081526004016200017b90620002e1565b60405180910390fd5b6001600080837bffffffffffffffffffffffffffffffffffffffffffffffffffffffff19167bffffffffffffffffffffffffffffffffffffffffffffffffffffffff1916815260200190815260200160002060006101000a81548160ff02191690831515021790555050565b828054600181600116156101000203166002900490600052602060002090601f016020900481019282601f106200023357805160ff191683800117855562000264565b8280016001018555821562000264579182015b828111156200026357825182559160200191906001019062000246565b5b50905062000273919062000277565b5090565b6200029c91905b80821115620002985760008160009055506001016200027e565b5090565b90565b6000620002ae601c8362000303565b91507f4552433136353a20696e76616c696420696e74657266616365206964000000006000830152602082019050919050565b60006020820190508181036000830152620002fc816200029f565b9050919050565b600082825260208201905092915050565b612f9c80620003246000396000f3fe608060405234801561001057600080fd5b50600436106101425760003560e01c80634f6ccce7116100b857806395d89b411161007c57806395d89b41146103ad578063a22cb465146103cb578063b88d4fde146103e7578063bee5493b14610403578063c87b56dd14610433578063e985e9c51461046357610142565b80634f6ccce7146102e35780636352211e146103135780636c0360eb1461034357806370a082311461036157806370a23d9b1461039157610142565b806318160ddd1161010a57806318160ddd1461021157806323b872dd1461022f5780632b9a46ad1461024b5780632f745c591461027b57806340c10f19146102ab57806342842e0e146102c757610142565b806301ffc9a71461014757806306fdde0314610177578063081812fc14610195578063095ea7b3146101c55780630a2642bf146101e1575b600080fd5b610161600480360381019061015c9190612197565b610493565b60405161016e9190612a6e565b60405180910390f35b61017f6104fa565b60405161018c9190612a89565b60405180910390f35b6101af60048036038101906101aa91906121e9565b61059c565b6040516101bc9190612a07565b60405180910390f35b6101df60048036038101906101da919061215b565b610621565b005b6101fb60048036038101906101f691906121e9565b610739565b6040516102089190612ceb565b60405180910390f35b61021961075a565b6040516102269190612ceb565b60405180910390f35b61024960048036038101906102449190612055565b61076b565b005b61026560048036038101906102609190611ff0565b6107cb565b6040516102729190612ceb565b60405180910390f35b6102956004803603810190610290919061215b565b6107e3565b6040516102a29190612ceb565b60405180910390f35b6102c560048036038101906102c0919061215b565b61083e565b005b6102e160048036038101906102dc9190612055565b61087d565b005b6102fd60048036038101906102f891906121e9565b61089d565b60405161030a9190612ceb565b60405180910390f35b61032d600480360381019061032891906121e9565b6108c0565b60405161033a9190612a07565b60405180910390f35b61034b6108f7565b6040516103589190612a89565b60405180910390f35b61037b60048036038101906103769190611ff0565b610999565b6040516103889190612ceb565b60405180910390f35b6103ab60048036038101906103a69190612212565b610a58565b005b6103b5610ae0565b6040516103c29190612a89565b60405180910390f35b6103e560048036038101906103e0919061211f565b610b82565b005b61040160048036038101906103fc91906120a4565b610d03565b005b61041d600480360381019061041891906121e9565b610d65565b60405161042a9190612ceb565b60405180910390f35b61044d600480360381019061044891906121e9565b610d86565b60405161045a9190612a89565b60405180910390f35b61047d60048036038101906104789190612019565b610f09565b60405161048a9190612a6e565b60405180910390f35b6000806000837bffffffffffffffffffffffffffffffffffffffffffffffffffffffff19167bffffffffffffffffffffffffffffffffffffffffffffffffffffffff1916815260200190815260200160002060009054906101000a900460ff169050919050565b606060068054600181600116156101000203166002900480601f0160208091040260200160405190810160405280929190818152602001828054600181600116156101000203166002900480156105925780601f1061056757610100808354040283529160200191610592565b820191906000526020600020905b81548152906001019060200180831161057557829003601f168201915b5050505050905090565b60006105a782610f9d565b6105e6576040517f08c379a00000000000000000000000000000000000000000000000000000000081526004016105dd90612c2b565b60405180910390fd5b6004600083815260200190815260200160002060009054906101000a900473ffffffffffffffffffffffffffffffffffffffff169050919050565b600061062c826108c0565b90508073ffffffffffffffffffffffffffffffffffffffff168373ffffffffffffffffffffffffffffffffffffffff16141561069d576040517f08c379a000000000000000000000000000000000000000000000000000000000815260040161069490612c8b565b60405180910390fd5b8073ffffffffffffffffffffffffffffffffffffffff166106bc610fba565b73ffffffffffffffffffffffffffffffffffffffff1614806106eb57506106ea816106e5610fba565b610f09565b5b61072a576040517f08c379a000000000000000000000000000000000000000000000000000000000815260040161072190612bab565b60405180910390fd5b6107348383610fc2565b505050565b600a818154811061074657fe5b906000526020600020016000915090505481565b6000610766600261107b565b905090565b61077c610776610fba565b82611090565b6107bb576040517f08c379a00000000000000000000000000000000000000000000000000000000081526004016107b290612cab565b60405180910390fd5b6107c683838361116e565b505050565b600b6020528060005260406000206000915090505481565b600061083682600160008673ffffffffffffffffffffffffffffffffffffffff1673ffffffffffffffffffffffffffffffffffffffff16815260200190815260200160002061138590919063ffffffff16565b905092915050565b600a819080600181540180825580915050600190039060005260206000200160009091909190915055610879826001600a805490500361139f565b5050565b61089883838360405180602001604052806000815250610d03565b505050565b6000806108b483600261152d90919063ffffffff16565b50905080915050919050565b60006108f082604051806060016040528060298152602001612f3e60299139600261155c9092919063ffffffff16565b9050919050565b606060098054600181600116156101000203166002900480601f01602080910402602001604051908101604052809291908181526020018280546001816001161561010002031660029004801561098f5780601f106109645761010080835404028352916020019161098f565b820191906000526020600020905b81548152906001019060200180831161097257829003601f168201915b5050505050905090565b60008073ffffffffffffffffffffffffffffffffffffffff168273ffffffffffffffffffffffffffffffffffffffff161415610a0a576040517f08c379a0000000000000000000000000000000000000000000000000000000008152600401610a0190612bcb565b60405180910390fd5b610a51600160008473ffffffffffffffffffffffffffffffffffffffff1673ffffffffffffffffffffffffffffffffffffffff16815260200190815260200160002061157b565b9050919050565b6000600a8381548110610a6757fe5b90600052602060002001549050610a87828261159090919063ffffffff16565b600a8481548110610a9457fe5b90600052602060002001819055507f0c605aa976f8102598e9b10ae689cdaaf419574c44c640e116cd74f404941e798383604051610ad3929190612d06565b60405180910390a1505050565b606060078054600181600116156101000203166002900480601f016020809104026020016040519081016040528092919081815260200182805460018160011615610100020316600290048015610b785780601f10610b4d57610100808354040283529160200191610b78565b820191906000526020600020905b815481529060010190602001808311610b5b57829003601f168201915b5050505050905090565b610b8a610fba565b73ffffffffffffffffffffffffffffffffffffffff168273ffffffffffffffffffffffffffffffffffffffff161415610bf8576040517f08c379a0000000000000000000000000000000000000000000000000000000008152600401610bef90612b2b565b60405180910390fd5b8060056000610c05610fba565b73ffffffffffffffffffffffffffffffffffffffff1673ffffffffffffffffffffffffffffffffffffffff16815260200190815260200160002060008473ffffffffffffffffffffffffffffffffffffffff1673ffffffffffffffffffffffffffffffffffffffff16815260200190815260200160002060006101000a81548160ff0219169083151502179055508173ffffffffffffffffffffffffffffffffffffffff16610cb2610fba565b73ffffffffffffffffffffffffffffffffffffffff167f17307eab39ab6107e8899845ad3d59bd9653f200f220920489ca2b5937696c3183604051610cf79190612a6e565b60405180910390a35050565b610d14610d0e610fba565b83611090565b610d53576040517f08c379a0000000000000000000000000000000000000000000000000000000008152600401610d4a90612cab565b60405180910390fd5b610d5f848484846115e0565b50505050565b6000600a8281548110610d7457fe5b90600052602060002001549050919050565b6060610d9182610f9d565b610dd0576040517f08c379a0000000000000000000000000000000000000000000000000000000008152600401610dc790612c6b565b60405180910390fd5b6060600860008481526020019081526020016000208054600181600116156101000203166002900480601f016020809104026020016040519081016040528092919081815260200182805460018160011615610100020316600290048015610e795780601f10610e4e57610100808354040283529160200191610e79565b820191906000526020600020905b815481529060010190602001808311610e5c57829003601f168201915b505050505090506060610e8a6108f7565b9050600081511415610ea0578192505050610f04565b600082511115610ed5578082604051602001610ebd9291906129e3565b60405160208183030381529060405292505050610f04565b80610edf8561163c565b604051602001610ef09291906129e3565b604051602081830303815290604052925050505b919050565b6000600560008473ffffffffffffffffffffffffffffffffffffffff1673ffffffffffffffffffffffffffffffffffffffff16815260200190815260200160002060008373ffffffffffffffffffffffffffffffffffffffff1673ffffffffffffffffffffffffffffffffffffffff16815260200190815260200160002060009054906101000a900460ff16905092915050565b6000610fb382600261178390919063ffffffff16565b9050919050565b600033905090565b816004600083815260200190815260200160002060006101000a81548173ffffffffffffffffffffffffffffffffffffffff021916908373ffffffffffffffffffffffffffffffffffffffff160217905550808273ffffffffffffffffffffffffffffffffffffffff16611035836108c0565b73ffffffffffffffffffffffffffffffffffffffff167f8c5be1e5ebec7d5bd14f71427d1e84f3dd0314c0f7b2291e5b200ac8c7c3b92560405160405180910390a45050565b60006110898260000161179d565b9050919050565b600061109b82610f9d565b6110da576040517f08c379a00000000000000000000000000000000000000000000000000000000081526004016110d190612b8b565b60405180910390fd5b60006110e5836108c0565b90508073ffffffffffffffffffffffffffffffffffffffff168473ffffffffffffffffffffffffffffffffffffffff16148061115457508373ffffffffffffffffffffffffffffffffffffffff1661113c8461059c565b73ffffffffffffffffffffffffffffffffffffffff16145b8061116557506111648185610f09565b5b91505092915050565b8273ffffffffffffffffffffffffffffffffffffffff1661118e826108c0565b73ffffffffffffffffffffffffffffffffffffffff16146111e4576040517f08c379a00000000000000000000000000000000000000000000000000000000081526004016111db90612c4b565b60405180910390fd5b600073ffffffffffffffffffffffffffffffffffffffff168273ffffffffffffffffffffffffffffffffffffffff161415611254576040517f08c379a000000000000000000000000000000000000000000000000000000000815260040161124b90612b0b565b60405180910390fd5b61125f8383836117ae565b61126a600082610fc2565b6112bb81600160008673ffffffffffffffffffffffffffffffffffffffff1673ffffffffffffffffffffffffffffffffffffffff1681526020019081526020016000206117b390919063ffffffff16565b5061130d81600160008573ffffffffffffffffffffffffffffffffffffffff1673ffffffffffffffffffffffffffffffffffffffff1681526020019081526020016000206117cd90919063ffffffff16565b50611324818360026117e79092919063ffffffff16565b50808273ffffffffffffffffffffffffffffffffffffffff168473ffffffffffffffffffffffffffffffffffffffff167fddf252ad1be2c89b69c2b068fc378daa952ba7f163c4a11628f55a4df523b3ef60405160405180910390a4505050565b6000611394836000018361181c565b60001c905092915050565b600073ffffffffffffffffffffffffffffffffffffffff168273ffffffffffffffffffffffffffffffffffffffff16141561140f576040517f08c379a000000000000000000000000000000000000000000000000000000000815260040161140690612c0b565b60405180910390fd5b61141881610f9d565b15611458576040517f08c379a000000000000000000000000000000000000000000000000000000000815260040161144f90612aeb565b60405180910390fd5b611464600083836117ae565b6114b581600160008573ffffffffffffffffffffffffffffffffffffffff1673ffffffffffffffffffffffffffffffffffffffff1681526020019081526020016000206117cd90919063ffffffff16565b506114cc818360026117e79092919063ffffffff16565b50808273ffffffffffffffffffffffffffffffffffffffff16600073ffffffffffffffffffffffffffffffffffffffff167fddf252ad1be2c89b69c2b068fc378daa952ba7f163c4a11628f55a4df523b3ef60405160405180910390a45050565b6000806000806115408660000186611889565b915091508160001c8160001c8090509350935050509250929050565b600061156f846000018460001b8461190c565b60001c90509392505050565b60006115898260000161199d565b9050919050565b6000828211156115d5576040517f08c379a00000000000000000000000000000000000000000000000000000000081526004016115cc90612b4b565b60405180910390fd5b818303905092915050565b6115eb84848461116e565b6115f7848484846119ae565b611636576040517f08c379a000000000000000000000000000000000000000000000000000000000815260040161162d90612acb565b60405180910390fd5b50505050565b60606000821415611684576040518060400160405280600181526020017f3000000000000000000000000000000000000000000000000000000000000000815250905061177e565b600082905060005b600082146116ae578080600101915050600a82816116a657fe5b04915061168c565b60608167ffffffffffffffff811180156116c757600080fd5b506040519080825280601f01601f1916602001820160405280156116fa5781602001600182028036833780820191505090505b50905060006001830390508593505b6000841461177657600a848161171b57fe5b0660300160f81b8282806001900393508151811061173557fe5b60200101907effffffffffffffffffffffffffffffffffffffffffffffffffffffffffffff1916908160001a905350600a848161176e57fe5b049350611709565b819450505050505b919050565b6000611795836000018360001b611b12565b905092915050565b600081600001805490509050919050565b505050565b60006117c5836000018360001b611b35565b905092915050565b60006117df836000018360001b611c1d565b905092915050565b6000611813846000018460001b8473ffffffffffffffffffffffffffffffffffffffff1660001b611c8d565b90509392505050565b600081836000018054905011611867576040517f08c379a000000000000000000000000000000000000000000000000000000000815260040161185e90612aab565b60405180910390fd5b82600001828154811061187657fe5b9060005260206000200154905092915050565b600080828460000180549050116118d5576040517f08c379a00000000000000000000000000000000000000000000000000000000081526004016118cc90612beb565b60405180910390fd5b60008460000184815481106118e657fe5b906000526020600020906002020190508060000154816001015492509250509250929050565b6000808460010160008581526020019081526020016000205490506000811415839061196e576040517f08c379a00000000000000000000000000000000000000000000000000000000081526004016119659190612a89565b60405180910390fd5b5084600001600182038154811061198157fe5b9060005260206000209060020201600101549150509392505050565b600081600001805490509050919050565b60006119cf8473ffffffffffffffffffffffffffffffffffffffff16611d69565b6119dc5760019050611b0a565b6060611aa363150b7a0260e01b6119f1610fba565b888787604051602401611a079493929190612a22565b604051602081830303815290604052907bffffffffffffffffffffffffffffffffffffffffffffffffffffffff19166020820180517bffffffffffffffffffffffffffffffffffffffffffffffffffffffff8381831617835250505050604051806060016040528060328152602001612f0c603291398773ffffffffffffffffffffffffffffffffffffffff16611d7c9092919063ffffffff16565b9050600081806020019051810190611abb91906121c0565b905063150b7a0260e01b7bffffffffffffffffffffffffffffffffffffffffffffffffffffffff1916817bffffffffffffffffffffffffffffffffffffffffffffffffffffffff191614925050505b949350505050565b600080836001016000848152602001908152602001600020541415905092915050565b60008083600101600084815260200190815260200160002054905060008114611c115760006001820390506000600186600001805490500390506000866000018281548110611b8057fe5b9060005260206000200154905080876000018481548110611b9d57fe5b9060005260206000200181905550600183018760010160008381526020019081526020016000208190555086600001805480611bd557fe5b60019003818190600052602060002001600090559055866001016000878152602001908152602001600020600090556001945050505050611c17565b60009150505b92915050565b6000611c298383611d94565b611c82578260000182908060018154018082558091505060019003906000526020600020016000909190919091505582600001805490508360010160008481526020019081526020016000208190555060019050611c87565b600090505b92915050565b6000808460010160008581526020019081526020016000205490506000811415611d3457846000016040518060400160405280868152602001858152509080600181540180825580915050600190039060005260206000209060020201600090919091909150600082015181600001556020820151816001015550508460000180549050856001016000868152602001908152602001600020819055506001915050611d62565b82856000016001830381548110611d4757fe5b90600052602060002090600202016001018190555060009150505b9392505050565b600080823b905060008111915050919050565b6060611d8b8484600085611db7565b90509392505050565b600080836001016000848152602001908152602001600020541415905092915050565b606082471015611dfc576040517f08c379a0000000000000000000000000000000000000000000000000000000008152600401611df390612b6b565b60405180910390fd5b611e0585611d69565b611e44576040517f08c379a0000000000000000000000000000000000000000000000000000000008152600401611e3b90612ccb565b60405180910390fd5b600060608673ffffffffffffffffffffffffffffffffffffffff168587604051611e6e91906129cc565b60006040518083038185875af1925050503d8060008114611eab576040519150601f19603f3d011682016040523d82523d6000602084013e611eb0565b606091505b5091509150611ec0828286611ecc565b92505050949350505050565b60608315611edc57829050611f2c565b600083511115611eef5782518084602001fd5b816040517f08c379a0000000000000000000000000000000000000000000000000000000008152600401611f239190612a89565b60405180910390fd5b9392505050565b600081359050611f4281612eaf565b92915050565b600081359050611f5781612ec6565b92915050565b600081359050611f6c81612edd565b92915050565b600081519050611f8181612edd565b92915050565b600082601f830112611f9857600080fd5b8135611fab611fa682612d5c565b612d2f565b91508082526020830160208301858383011115611fc757600080fd5b611fd2838284612e5c565b50505092915050565b600081359050611fea81612ef4565b92915050565b60006020828403121561200257600080fd5b600061201084828501611f33565b91505092915050565b6000806040838503121561202c57600080fd5b600061203a85828601611f33565b925050602061204b85828601611f33565b9150509250929050565b60008060006060848603121561206a57600080fd5b600061207886828701611f33565b935050602061208986828701611f33565b925050604061209a86828701611fdb565b9150509250925092565b600080600080608085870312156120ba57600080fd5b60006120c887828801611f33565b94505060206120d987828801611f33565b93505060406120ea87828801611fdb565b925050606085013567ffffffffffffffff81111561210757600080fd5b61211387828801611f87565b91505092959194509250565b6000806040838503121561213257600080fd5b600061214085828601611f33565b925050602061215185828601611f48565b9150509250929050565b6000806040838503121561216e57600080fd5b600061217c85828601611f33565b925050602061218d85828601611fdb565b9150509250929050565b6000602082840312156121a957600080fd5b60006121b784828501611f5d565b91505092915050565b6000602082840312156121d257600080fd5b60006121e084828501611f72565b91505092915050565b6000602082840312156121fb57600080fd5b600061220984828501611fdb565b91505092915050565b6000806040838503121561222557600080fd5b600061223385828601611fdb565b925050602061224485828601611fdb565b9150509250929050565b61225781612de8565b82525050565b61226681612dd6565b82525050565b61227581612dfa565b82525050565b600061228682612d88565b6122908185612d9e565b93506122a0818560208601612e6b565b6122a981612e9e565b840191505092915050565b60006122bf82612d88565b6122c98185612daf565b93506122d9818560208601612e6b565b80840191505092915050565b60006122f082612d93565b6122fa8185612dba565b935061230a818560208601612e6b565b61231381612e9e565b840191505092915050565b600061232982612d93565b6123338185612dcb565b9350612343818560208601612e6b565b80840191505092915050565b600061235c602283612dba565b91507f456e756d657261626c655365743a20696e646578206f7574206f6620626f756e60008301527f64730000000000000000000000000000000000000000000000000000000000006020830152604082019050919050565b60006123c2603283612dba565b91507f4552433732313a207472616e7366657220746f206e6f6e20455243373231526560008301527f63656976657220696d706c656d656e74657200000000000000000000000000006020830152604082019050919050565b6000612428601c83612dba565b91507f4552433732313a20746f6b656e20616c7265616479206d696e746564000000006000830152602082019050919050565b6000612468602483612dba565b91507f4552433732313a207472616e7366657220746f20746865207a65726f2061646460008301527f72657373000000000000000000000000000000000000000000000000000000006020830152604082019050919050565b60006124ce601983612dba565b91507f4552433732313a20617070726f766520746f2063616c6c6572000000000000006000830152602082019050919050565b600061250e601e83612dba565b91507f536166654d6174683a207375627472616374696f6e206f766572666c6f7700006000830152602082019050919050565b600061254e602683612dba565b91507f416464726573733a20696e73756666696369656e742062616c616e636520666f60008301527f722063616c6c00000000000000000000000000000000000000000000000000006020830152604082019050919050565b60006125b4602c83612dba565b91507f4552433732313a206f70657261746f7220717565727920666f72206e6f6e657860008301527f697374656e7420746f6b656e00000000000000000000000000000000000000006020830152604082019050919050565b600061261a603883612dba565b91507f4552433732313a20617070726f76652063616c6c6572206973206e6f74206f7760008301527f6e6572206e6f7220617070726f76656420666f7220616c6c00000000000000006020830152604082019050919050565b6000612680602a83612dba565b91507f4552433732313a2062616c616e636520717565727920666f7220746865207a6560008301527f726f2061646472657373000000000000000000000000000000000000000000006020830152604082019050919050565b60006126e6602283612dba565b91507f456e756d657261626c654d61703a20696e646578206f7574206f6620626f756e60008301527f64730000000000000000000000000000000000000000000000000000000000006020830152604082019050919050565b600061274c602083612dba565b91507f4552433732313a206d696e7420746f20746865207a65726f20616464726573736000830152602082019050919050565b600061278c602c83612dba565b91507f4552433732313a20617070726f76656420717565727920666f72206e6f6e657860008301527f697374656e7420746f6b656e00000000000000000000000000000000000000006020830152604082019050919050565b60006127f2602983612dba565b91507f4552433732313a207472616e73666572206f6620746f6b656e2074686174206960008301527f73206e6f74206f776e00000000000000000000000000000000000000000000006020830152604082019050919050565b6000612858602f83612dba565b91507f4552433732314d657461646174613a2055524920717565727920666f72206e6f60008301527f6e6578697374656e7420746f6b656e00000000000000000000000000000000006020830152604082019050919050565b60006128be602183612dba565b91507f4552433732313a20617070726f76616c20746f2063757272656e74206f776e6560008301527f72000000000000000000000000000000000000000000000000000000000000006020830152604082019050919050565b6000612924603183612dba565b91507f4552433732313a207472616e736665722063616c6c6572206973206e6f74206f60008301527f776e6572206e6f7220617070726f7665640000000000000000000000000000006020830152604082019050919050565b600061298a601d83612dba565b91507f416464726573733a2063616c6c20746f206e6f6e2d636f6e74726163740000006000830152602082019050919050565b6129c681612e52565b82525050565b60006129d882846122b4565b915081905092915050565b60006129ef828561231e565b91506129fb828461231e565b91508190509392505050565b6000602082019050612a1c600083018461225d565b92915050565b6000608082019050612a37600083018761224e565b612a44602083018661225d565b612a5160408301856129bd565b8181036060830152612a63818461227b565b905095945050505050565b6000602082019050612a83600083018461226c565b92915050565b60006020820190508181036000830152612aa381846122e5565b905092915050565b60006020820190508181036000830152612ac48161234f565b9050919050565b60006020820190508181036000830152612ae4816123b5565b9050919050565b60006020820190508181036000830152612b048161241b565b9050919050565b60006020820190508181036000830152612b248161245b565b9050919050565b60006020820190508181036000830152612b44816124c1565b9050919050565b60006020820190508181036000830152612b6481612501565b9050919050565b60006020820190508181036000830152612b8481612541565b9050919050565b60006020820190508181036000830152612ba4816125a7565b9050919050565b60006020820190508181036000830152612bc48161260d565b9050919050565b60006020820190508181036000830152612be481612673565b9050919050565b60006020820190508181036000830152612c04816126d9565b9050919050565b60006020820190508181036000830152612c248161273f565b9050919050565b60006020820190508181036000830152612c448161277f565b9050919050565b60006020820190508181036000830152612c64816127e5565b9050919050565b60006020820190508181036000830152612c848161284b565b9050919050565b60006020820190508181036000830152612ca4816128b1565b9050919050565b60006020820190508181036000830152612cc481612917565b9050919050565b60006020820190508181036000830152612ce48161297d565b9050919050565b6000602082019050612d0060008301846129bd565b92915050565b6000604082019050612d1b60008301856129bd565b612d2860208301846129bd565b9392505050565b6000604051905081810181811067ffffffffffffffff82111715612d5257600080fd5b8060405250919050565b600067ffffffffffffffff821115612d7357600080fd5b601f19601f8301169050602081019050919050565b600081519050919050565b600081519050919050565b600082825260208201905092915050565b600081905092915050565b600082825260208201905092915050565b600081905092915050565b6000612de182612e32565b9050919050565b6000612df382612e32565b9050919050565b60008115159050919050565b60007fffffffff0000000000000000000000000000000000000000000000000000000082169050919050565b600073ffffffffffffffffffffffffffffffffffffffff82169050919050565b6000819050919050565b82818337600083830152505050565b60005b83811015612e89578082015181840152602081019050612e6e565b83811115612e98576000848401525b50505050565b6000601f19601f8301169050919050565b612eb881612dd6565b8114612ec357600080fd5b50565b612ecf81612dfa565b8114612eda57600080fd5b50565b612ee681612e06565b8114612ef157600080fd5b50565b612efd81612e52565b8114612f0857600080fd5b5056fe4552433732313a207472616e7366657220746f206e6f6e20455243373231526563656976657220696d706c656d656e7465724552433732313a206f776e657220717565727920666f72206e6f6e6578697374656e7420746f6b656ea26469706673582212209c1fcb17d13fa21e54a4ba74c8e974ef9174886e9a272a2bc464fe368c24839764736f6c63430006060033",
    "immutableReferences": {},
    "source": "// We will be using Solidity version 0.5.3\r\npragma solidity =0.6.6;\r\npragma experimental ABIEncoderV2;\r\n\r\n// Import the IERC20 interface and and SafeMath library\r\nimport '@openzeppelin/contracts/token/ERC20/IERC20.sol';\r\nimport '@openzeppelin/contracts/token/ERC721/ERC721.sol';\r\n\r\ncontract TestNFT is ERC721 {\r\n    constructor() ERC721('TestERC721', 'TEST') public {\r\n    }\r\n\r\n    uint256[] public allocations;\r\n    mapping(address => uint256) public userToAllocation;\r\n\r\n    event AllocationSpent(uint256 id, uint256 amount);\r\n\r\n    function mint(address to, uint256 value) public {\r\n        allocations.push(value);\r\n        _mint(to, allocations.length - 1);\r\n    }\r\n\r\n    function getAvailableAllocation(uint256 id) public view returns (uint256) {\r\n        return allocations[id];\r\n    }\r\n\r\n    function spendAllocation(uint256 id, uint256 amount) public {\r\n        uint256 allocation = allocations[id];\r\n        allocations[id] = allocation.sub(amount);\r\n        emit AllocationSpent(id, amount);\r\n    }\r\n}",
    "sourcePath": "D:\\blockchain\\sinDong\\sinDong\\fund-raising\\contracts\\test\\TestNFT.sol",
    "compiler": {
        "name": "solc",
        "version": "0.6.6+commit.6c089d02.Emscripten.clang"
    },
    "schemaVersion": "3.4.3",
    "updatedAt": "2022-01-25T01:44:53.833Z",
    "devdoc": {
        "methods": {
            "approve(address,uint256)": {
                "details": "See {IERC721-approve}."
            },
            "balanceOf(address)": {
                "details": "See {IERC721-balanceOf}."
            },
            "baseURI()": {
                "details": "Returns the base URI set via {_setBaseURI}. This will be automatically added as a prefix in {tokenURI} to each token's URI, or to the token ID if no specific URI is set for that token ID."
            },
            "getApproved(uint256)": {
                "details": "See {IERC721-getApproved}."
            },
            "isApprovedForAll(address,address)": {
                "details": "See {IERC721-isApprovedForAll}."
            },
            "name()": {
                "details": "See {IERC721Metadata-name}."
            },
            "ownerOf(uint256)": {
                "details": "See {IERC721-ownerOf}."
            },
            "safeTransferFrom(address,address,uint256)": {
                "details": "See {IERC721-safeTransferFrom}."
            },
            "safeTransferFrom(address,address,uint256,bytes)": {
                "details": "See {IERC721-safeTransferFrom}."
            },
            "setApprovalForAll(address,bool)": {
                "details": "See {IERC721-setApprovalForAll}."
            },
            "supportsInterface(bytes4)": {
                "details": "See {IERC165-supportsInterface}.     * Time complexity O(1), guaranteed to always use less than 30 000 gas."
            },
            "symbol()": {
                "details": "See {IERC721Metadata-symbol}."
            },
            "tokenByIndex(uint256)": {
                "details": "See {IERC721Enumerable-tokenByIndex}."
            },
            "tokenOfOwnerByIndex(address,uint256)": {
                "details": "See {IERC721Enumerable-tokenOfOwnerByIndex}."
            },
            "tokenURI(uint256)": {
                "details": "See {IERC721Metadata-tokenURI}."
            },
            "totalSupply()": {
                "details": "See {IERC721Enumerable-totalSupply}."
            },
            "transferFrom(address,address,uint256)": {
                "details": "See {IERC721-transferFrom}."
            }
        }
    },
    "userdoc": {
        "methods": {}
    }
}